:100000000C947D000C94A7000C94A7000C94A700FE
:100010000C94A7000C94A7000C94A7000C94A700C4
:100020000C94A7000C94A7000C94A7000C94A700B4
:100030000C94A7000C94A7000C94A7000C94A700A4
:100040000C94A7000C94A7000C94C9110C94A70061
:100050000C949D120C9473120C94A7000C94A7009E
:100060000C94A7000C94A7000C94A7000C94A70074
:100070000C943D120C9413120C94A7000C94A7003E
:100080000C94A7000C94A7000C94A7000000220079
:10009000250028002B0002020202020202020404D0
:1000A000040404040404030303030303030301011E
:1000B0000101010101010102040810204080010238
:1000C0000408102040800102040810204080010232
:1000D0000408102040800000000203000A0B00000A
:1000E00000000504090800000000000000000000F6
:1000F000000000000000D312231511241FBECFEF13
:10010000D0E4DEBFCDBF1CE0A0E0B1E0E0E1F1E370
:1001100000E00BBF02C007900D92AE36B107D9F7D1
:1001200022E1AEE6BCE001C01D92AA3AB207E1F7B7
:1001300010E0CCE7D0E004C02197FE010E94331606
:10014000CB37D107C9F70E94B9130C947B180C94D4
:1001500000003FB7F8948091800C9091810CA091A1
:10016000820CB091830C26B5A89B05C02F3F19F0D7
:100170000196A11DB11D3FBFBA2FA92F982F882727
:10018000BC01CD01620F711D811D911D43E0660F01
:10019000771F881F991F4A95D1F708958F929F92D4
:1001A000AF92BF92CF92DF92EF92FF924B015C0130
:1001B0000E94A9006B017C010E94A9006C197D09B5
:1001C0008E099F09683E734081059105A8F321E0DF
:1001D000821A9108A108B10888EEC80E83E0D81EE3
:1001E000E11CF11C81149104A104B10429F7FF90D2
:1001F000EF90DF90CF90BF90AF909F908F90089539
:10020000AF92BF92CF92DF92EF92FF920F931F9324
:10021000CF93DF936C017B018B01040F151FEB0162
:100220005E01AE18BF08C017D10759F06991D60119
:10023000ED91FC910190F081E02DC6010995892B8B
:1002400079F7C501DF91CF911F910F91FF90EF904A
:10025000DF90CF90BF90AF900895FC01538D448DF7
:10026000252F30E0842F90E0821B930B541710F061
:10027000CF96089501970895FC01918D828D98176E
:1002800061F0A28DAE0FBF2FB11D5D968C91928D46
:100290009F5F9F73928F90E008958FEF9FEF089577
:1002A000FC01918D828D981731F0828DE80FF11D40
:1002B000858D90E008958FEF9FEF0895FC01918D5B
:1002C000228D892F90E0805C9F4F821B91098F7354
:1002D0009927089587EF91E10E945E0121E0892B23
:1002E00009F420E0822F08958AE591E10E945E01E1
:1002F00021E0892B09F420E0822F0895FC01A48DD0
:10030000A80FB92FB11DA35ABF4F2C91848D90E037
:1003100001968F739927848FA689B7892C93A0891A
:10032000B1898C91837080648C93938D848D9813A4
:1003300006C00288F389E02D80818F7D8083089537
:10034000EF92FF920F931F93CF93DF93EC0181E025
:10035000888F9B8D8C8D98131AC0E889F9898081CC
:1003600085FF15C09FB7F894EE89FF896083E889FF
:10037000F98980818370806480839FBF81E090E0F1
:10038000DF91CF911F910F91FF90EF900895F62E7E
:100390000B8D10E00F5F1F4F0F731127E02E8C8D18
:1003A0008E110CC00FB607FCFACFE889F98980815D
:1003B00085FFF5CFCE010E947E01F1CFEB8DEC0FD2
:1003C000FD2FF11DE35AFF4FF0829FB7F8940B8F7A
:1003D000EA89FB8980818062CFCFCF93DF93EC01E4
:1003E000888D8823B9F0AA89BB89E889F9898C911D
:1003F00085FD03C0808186FD0DC00FB607FCF7CFD9
:100400008C9185FFF2CF808185FFEDCFCE010E94D8
:100410007E01E9CFDF91CF91089580E090E0892BB4
:1004200029F00E94740181110E94000080E090E098
:10043000892B29F00E946A0181110C940000089513
:10044000FB019081892790E1899F900111248227E7
:1004500090E0382F2227AC0163E0440F551F6A95C6
:10046000E1F724273527418150E02427352774E020
:10047000959587957A95E1F78227932791838083D5
:1004800008950F931F93CF93DF9300D0CDB7DEB7BE
:100490008C01862FF801208131813A832983BE01A6
:1004A0006F5F7F4F0E94200289819A81F8019183BA
:1004B00080830F900F90DF91CF911F910F9108953E
:1004C000CF93DF93FC0101900020E9F73197AF0152
:1004D000481B590BBC018AE591E10E940001EC0127
:1004E00042E050E066E37BE08AE591E10E94000192
:1004F0008C0F9D1FDF91CF910895AF92BF92DF9235
:10050000EF92FF920F931F93CF93DF93EC018B0138
:10051000FB01D3808281645F7F4F8E3F09F459C015
:10052000ED2CF12CFB01EE0DFF1DDE2C91E09E1554
:1005300038F49701215031099291992309F463C04D
:100540008883D982F80184818A8385818B8386811F
:100550008C8387818D8380858E8381858F83818540
:100560009285A385988781859285A385A987A70110
:10057000CE010A960E946418FAE0EF0EF11CCE0D2F
:10058000DF1DF801848199E0F92E80FF3AC08DE0EB
:10059000F8019081988391819983A82EB12C8823AA
:1005A00041F0B8016A5E7E4FA501CE0102960E941D
:1005B0006418C5018F0D911D03968D0D911DDF915E
:1005C000CF911F910F91FF90EF90DF90BF90AF9070
:1005D00008958883D98286818A8387818B838085E9
:1005E0008C8381858D83438150E0CE0106960E94E5
:1005F0006418F801838190E00696C80FD91F25E0A2
:10060000F22E80E0C5CF790190CF2F923F924F928A
:100610005F926F927F928F929F92AF92BF92CF9292
:10062000DF92EF92FF920F931F93CF93DF93CDB79B
:10063000DEB7CA58D1400FB6F894DEBF0FBECDBFAB
:100640001C01CF59DE4F79836883C156D140C95B05
:10065000DE4F288339834A835B83C754D140DC0152
:10066000CD90DD90ED90FC90DA01C90113E0880F88
:10067000991FAA1FBB1F1A95D1F78C0D9D1DAE1D8A
:10068000BF1DF10180839183A283B3838C159D05E7
:10069000AE05BF0558F484819581A681B781019686
:1006A000A11DB11D84839583A683B783A3E0F6942F
:1006B000E794D794C794AA95D1F7FFE3CF22DD241E
:1006C000EE24FF248101085D1F4FC957DE4F1983B7
:1006D0000883C758D1408E010F5B1E4FCF5BDE4FA2
:1006E00019830883C154D140C95BDE4F48805980CB
:1006F0006A807B80C754D140411451046104710465
:1007000009F49BC480E490E0A0E0B0E08C199D095E
:10071000AE09BF095301420184159505A605B70529
:1007200010F44C015D01C957DE4F88819981C7588B
:10073000D1408C0D9D1DA401CF59DE4F6881798178
:10074000C156D1400E946418C80CD91CEA1CFB1C7D
:10075000CF59DE4F68807980C156D140680C791C32
:10076000CF59DE4F79826882C156D140C95BDE4FD6
:10077000488059806A807B80C754D1404818590806
:100780006A087B08C95BDE4F488259826A827B8295
:10079000C754D14000E4C016D104E104F10409F0CB
:1007A000A3CFC957DE4F88819981C758D1408E01A8
:1007B0000F5F1E4FF801DC0113962C9113972083D5
:1007C00012962C911297218311962C9111972283C6
:1007D0002C91238304963496CF5BDE4F488059805A
:1007E000C154D1404E165F0631F7D1011896CD9015
:1007F000DD90ED90FC901B97CD59DE4FC882D982D9
:10080000EA82FB82C356D1401C964D905D906D905C
:100810007C901F97C959DE4F488259826A827B8239
:10082000C756D14050964D905D906D907C905397F7
:10083000C559DE4F488259826A827B82CB56D140AD
:1008400054964D905D906D907C905797C159DE4FB6
:10085000488259826A827B82CF56D14058964D9009
:100860005D906D907C905B97CD58DE4F48825982A9
:100870006A827B82C357D1405C964D905D906D90AB
:100880007C905F97C958DE4F488259826A827B828A
:10089000C757D14090964D905D906D907C90939706
:1008A000C558DE4F488259826A827B82CB57D1403D
:1008B00094964D905D906D907C909797C158DE4FC7
:1008C000488259826A827B82CF57D1409E012F5F36
:1008D0003F4FCD5ADE4F39832883C355D140C901DC
:1008E000D8014D915D916D917D918D01DC014D930C
:1008F0005D936D937D93CD01E017F10789F7CD5A94
:10090000DE4F48805980C355D140B0EC4B0E511C8E
:10091000CD5ADE4F68807980C355D140CD5BDE4F24
:1009200079826882C354D140F30180AD91ADA2AD0C
:10093000B3AD0481158126813781F4E06F0E711CFF
:100940006C017D014FE0CC0CDD1CEE1CFF1C4A95B8
:10095000D1F7AC01BD01E1E17695679557954795D3
:10096000EA95D1F7C42AD52AE62AF72AAC01BD01B7
:10097000FDE0440F551F661F771FFA95D1F74C0114
:100980005D01E3E1B694A79497948794EA95D1F733
:10099000482959296A297B294C255D256E257F2503
:1009A000FAE0B695A79597958795FA95D1F784279C
:1009B0009527A627B727CD5BDE4FE881F981C35481
:1009C000D14044A155A166A177A1C080D180E28029
:1009D000F3804C0D5D1D6E1D7F1D840F951FA61F9E
:1009E000B71F6801790147E0F694E794D794C7945C
:1009F0004A95D1F7B901A801E9E1440F551F661FD7
:100A0000771FEA95D1F7C42AD52AE62AF72AB90131
:100A1000A801FEE0440F551F661F771FFA95D1F716
:100A200048015901E2E1B694A79497948794EA9516
:100A3000D1F7482959296A297B294C255D256E253E
:100A40007F25F3E03695279517950795FA95D1F709
:100A50004027512762277327840F951FA61FB71FB2
:100A6000F30184AF95AFA6AFB7AF4614570409F0B2
:100A700055CF0AE011E0C757DE4F19830883C958E4
:100A8000D140C159DE4F288139814A815B81CF56DF
:100A9000D140CD57DE4F288339834A835B83C358C7
:100AA000D140C559DE4F88819981AA81BB81CB563F
:100AB000D140C15BDE4F88839983AA83BB83CF5427
:100AC000D140C959DE4F488059806A807B80C75623
:100AD000D140C55BDE4F488259826A827B82CB540B
:100AE000D140CD59DE4F488159816A817B81C356FF
:100AF000D140C558DE4FC880D980EA80FB80CB57F3
:100B0000D140C75ADE4FC882D982EA82FB82C955DA
:100B1000D140C958DE4FE880F9800A811B81C75750
:100B2000D140CB5ADE4FE882F9820A831B83C55538
:100B3000D140C158DE4F088119812A813B81CF57AE
:100B4000D140CD5BDE4F088319832A833B83C35496
:100B5000D140CD58DE4F88819981AA81BB81C3578E
:100B6000D140C757DE4FE881F981C958D140E190A3
:100B7000F19001911191C757DE4FF983E883C9586D
:100B8000D140C35ADE4FE882F9820A831B83CD55D8
:100B9000D140CD5ADE4FE881F981C355D1408190D3
:100BA0009190A190B190CD5ADE4FF983E883C3555F
:100BB000D1402C013D012AE1440C551C661C771CD8
:100BC0002A95D1F78C019D01E6E03695279517957A
:100BD0000795EA95D1F7402A512A622A732A8C0197
:100BE0009D01F5E1000F111F221F331FFA95D1F768
:100BF0006C017D01EBE0F694E794D794C794EA95F5
:100C0000D1F70C291D292E293F2904251525262534
:100C100037252C013D01F9E1769467945794479468
:100C2000FA95D1F76C017D01E7E0CC0CDD1CEE1CE0
:100C3000FF1CEA95D1F7C428D528E628F7280C250B
:100C40001D252E253F25C35ADE4F488059806A80D6
:100C50007B80CD55D140840C951CA61CB71C080D7B
:100C6000191D2A1D3B1D4C015D0180949094A09498
:100C7000B094C75ADE4FC880D980EA80FB80C9553E
:100C8000D1408C209D20AE20BF20CB5ADE4FC880A3
:100C9000D980EA80FB80C555D140C822D922EA22FA
:100CA000FB228C249D24AE24BF24800E911EA21E04
:100CB000B31ECD5BDE4FE880F9800A811B81C354EF
:100CC000D1408E0C9F1CA01EB11ECD57DE4F088157
:100CD00019812A813B81C358D140080D191D2A1D55
:100CE0003B1DC35ADE4F088319832A833B83CD55AE
:100CF000D1406A017B01FEE1CC0CDD1CEE1CFF1C27
:100D0000FA95D1F78A019B01E2E036952795179570
:100D10000795EA95D1F7280139014C285D286E28FE
:100D20007F288A019B01F3E1000F111F221F331F4F
:100D3000FA95D1F76A017B01EDE0F694E794D79438
:100D4000C794EA95D1F70C291D292E293F2904259E
:100D50001525262537252A013B01F6E1769467946F
:100D600057944794FA95D1F76A017B01EAE0CC0CDD
:100D7000DD1CEE1CFF1CEA95D1F74C285D286E287F
:100D80007F2873016201C026D126E226F326CD5BBF
:100D9000DE4FC882D982EA82FB82C354D140C55B50
:100DA000DE4F088119812A813B81CB54D140C15B40
:100DB000DE4F488059806A807B80CF54D140042523
:100DC0001525262537250423152326233723C55B20
:100DD000DE4FC880D980EA80FB80CB54D140C4204C
:100DE000D520E620F7200C251D252E253F25CD5B9F
:100DF000DE4FC880D980EA80FB80C354D1400C0DFF
:100E00001D1D2E1D3F1D080D191D2A1D3B1DC75AF6
:100E1000DE4F488059806A807B80C955D140CD5BC8
:100E2000DE4F488259826A827B82C354D140C15BC3
:100E3000DE4FC880D980EA80FB80CF54D140CD57A7
:100E4000DE4FC882D982EA82FB82C358D140FAE0E1
:100E5000EF2EF2E0FF2EC757DE4FE881F981C95827
:100E6000D140EE16FF0609F0ADC0CD59DE4F4880E7
:100E700059806A807B80C356D140040D151D261D04
:100E8000371DF1010087118722873387C959DE4F4B
:100E9000488059806A807B80C756D140440D551DDB
:100EA000661D771D4487558766877787C559DE4F4E
:100EB000488159816A817B81CB56D140C55BDE4F29
:100EC000488059806A807B80CB54D140440D551DA9
:100ED000661D771D408B518B628B738BC159DE4F22
:100EE000488159816A817B81CF56D140C15BDE4FF9
:100EF000488059806A807B80CF54D140440D551D75
:100F0000661D771D448B558B668B778BCD58DE4FD6
:100F1000488159816A817B81C357D140C35ADE4FD2
:100F2000488059806A807B80CD55D140440D551D45
:100F3000661D771D408F518F628F738FC958DE4FAA
:100F4000488059806A807B80C757D140840D951DA9
:100F5000A61DB71D848F958FA68FB78FC558DE4FFE
:100F600088819981AA81BB81CB57D140CB5ADE4F72
:100F7000488059806A807B80C555D140840D951D7D
:100F8000A61DB71D80A391A3A2A3B3A3C158DE4F92
:100F900088819981AA81BB81CF57D140C75ADE4F42
:100FA000488059806A807B80C955D140840D951D49
:100FB000A61DB71D84A395A3A6A3B7A3C12CD12CAE
:100FC000760192CBC55BDE4F488059806A807B807A
:100FD000CB54D140C15BDE4F488259826A827B820A
:100FE000CF54D140C55BDE4F488359836A837B83EE
:100FF000CB54D140B901A801CB5ADE4FC880D9806B
:10100000EA80FB80C555D140C75ADE4FC882D982DD
:10101000EA82FB82C955D140CB5ADE4F888399833F
:10102000AA83BB83C555D140C35ADE4F88819981BD
:10103000AA81BB81CD55D14094CDC657DE4F0FB6A6
:10104000F894DEBF0FBECDBFDF91CF911F910F91FE
:10105000FF90EF90DF90CF90BF90AF909F908F90D8
:101060007F906F905F904F903F902F900895EF92F8
:10107000FF920F931F93CF93DF93CDB7DEB7C85482
:10108000D1090FB6F894DEBF0FBECDBF8C017B0136
:10109000FC0180819181A281B381AC01BD0123E07B
:1010A00076956795579547952A95D1F74F735527AC
:1010B00027E730E0241B350B2F73332740E84983A3
:1010C000BE016E5F7F4F47E4FB0111924A95E9F73D
:1010D000AE01420F531FFA0181879087A783B68321
:1010E000F8015481458196818781DE01A20FB31FEB
:1010F00015965C93DE01A20FB31F14964C93DE018C
:10110000A20FB31F13969C93FB01E20FF31F808382
:10111000275F3F4F50E040E061507109C8010E94D5
:101120000503F8018385F7018083F8018285F701C3
:101130008183F8018185F7018283F8018085F701B9
:101140008383F8018785F7018483F8018685F70199
:101150008583C85BDF4F0FB6F894DEBF0FBECDBFEF
:10116000DF91CF911F910F91FF90EF9008953F92E3
:101170004F925F926F927F928F929F92AF92BF92A7
:10118000CF92DF92EF92FF920F931F93CF93DF9353
:10119000CDB7DEB7CC57D1090FB6F894DEBF0FBE7E
:1011A000CDBF6C013E2C80911E11582F527081FDD5
:1011B0001DC0E0912011F0912111309731F0808114
:1011C0002DE0522E11E080FD02C0512C10E08DEF79
:1011D000F60182833C96E00FF11D8291811103C0DC
:1011E00001500130D1F78AE0482E09C08EEFD601B8
:1011F00012968C93022F512C96E0492E10E0D601C6
:1012000013960C93139717966C93179718964C9305
:10121000189711114CC014961C92D60115961C9269
:1012200015978091191116968C9316978091191124
:101230008F5F8093191112968C911297AA968FAF97
:10124000AA9713968C911397AB968FAFAB9719967D
:101250008D919D91AC91F60136812781552359F1ED
:10126000AC963FAFAC97AD962FAFAD97AE964FAF64
:10127000AE97AF968FAFAF97A42CB12C8FEF9FEFA7
:101280009A838983CE0187599F4F7C014C018A0C38
:101290009B1C9FEFE91AF90A8E149F0439F1BE01D5
:1012A0006F5F7F4FD7018C910E942002F2CF81E0C7
:1012B000F6018483B2CF5481AC965FAFAC97558171
:1012C000AD965FAFAD97AE963FAFAE97AF962FAFEF
:1012D000AF97E0964FAFE097E1968FAFE197E29638
:1012E0009FAFE297E396AFAFE397C6CF89819A812C
:1012F000ED969FAF8EAFED97F6016380712C76016E
:10130000FCE0EF0EF11C470181E0681A7108BE0194
:1013100065587F4F9FEF6916790631F0D4018D91A2
:101320004D010E942002F0CF832D0E942002EC96F6
:101330009FADEC97ED968FADED97D6011396EC919E
:101340001397EE0DFF2DF11D90831396EC911397DB
:10135000EE0DFF2DF11D81839C9311968C931197B7
:10136000112309F4E6C000912011109121110115FB
:10137000110509F4DEC0F801808180FFDAC0139600
:101380007C9081814601FAEE8F1AFEEF9F0AD4010C
:101390008C93F8018281E4968FAFE4978381E59680
:1013A0008FAFE5978481E6968FAFE6978581E796C4
:1013B0008FAFE7978681E8968FAFE8978781E996A8
:1013C0008FAFE9978085EA968FAFEA978185EB9694
:1013D0008FAFEB9786E0FE01ED58FF4F119601901D
:1013E0000D928A95E1F7D80112962C9112971396D7
:1013F0003C91139714964C91149715965C91159700
:1014000016966C91169717967C91179718968C9153
:10141000189719969C91A1E00E943C16F80122832E
:1014200033834483558366837783808791871982CA
:101430001A821B821C821D821E821F82188687E6EA
:1014400096EEA9E0BAE689879A87AB87BC8785E8DC
:101450009EEAA7E6BBEB8D879E87AF87B88B82E7B6
:1014600093EFAEE6BCE3898B9A8BAB8BBC8B8AE3A4
:1014700095EFAFE4B5EA8D8B9E8BAF8BB88F8FE77E
:1014800092E5AEE0B1E5898F9A8FAB8FBC8F8CE887
:1014900098E6A5E0BBE98D8F9E8FAF8FB8A38BEA4E
:1014A00099EDA3E8BFE189A39AA3ABA3BCA389E10B
:1014B0009DECA0EEBBE58DA39EA3AFA3B8A7B8019A
:1014C000665F7F4F20E230E040E050E0CE010196C1
:1014D0000E940503242D30E050E040E0BE01675932
:1014E0007F4FCE0101960E940503272D30E050E08A
:1014F00040E0B701CE0101960E940503B701670DD8
:10150000711D22E030E040E050E0CE0101960E94E3
:10151000050327E030E040E050E0B401CE01019641
:101520000E940503B601635E7E4FCE0101960E94C4
:101530003708D60113968C918A0D9B2D911D02962A
:10154000850D911DC458DF4F0FB6F894DEBF0FBE56
:10155000CDBFDF91CF911F910F91FF90EF90DF9062
:10156000CF90BF90AF909F908F907F906F905F9043
:101570004F903F900895CF92DF92EF920F93CF93C9
:10158000DF93CDB7DEB7CB53D2400FB6F894DEBFB2
:101590000FBECDBF89E39BE00E94600284E9C82EA4
:1015A00082E1D82EF6014781668180E8E4E8FCE01C
:1015B000A4E2B1E0AC0FBD1F159601900D928A9583
:1015C000E1F7CC5DDE4F19821882C452D140CA5D6A
:1015D000DE4F1882C652D140C95DDE4F1882C75215
:1015E000D14082E0C85DDE4F8883C852D14085E893
:1015F000FE01EC5DFE4FDE011D9601900D928A9575
:10160000E1F781E891E0A0E08A879B87AC8793E9C6
:10161000E92E05E825E8CE0101960E94B708BE0133
:101620006F5F7F4FCE018C5D9E4F0E947D02F60161
:10163000A081B181ED91FC9111970280F381E02DA1
:10164000AC01BE016C5D7E4FCD010995C55CDD4FDF
:101650000FB6F894DEBF0FBECDBFDF91CF910F91D3
:10166000EF90DF90CF900895CF92DF92EF920F939B
:10167000CF93DF93CDB7DEB7CB53D2400FB6F894FC
:10168000DEBF0FBECDBF80E59BE00E94600284E913
:10169000C82E82E1D82EF60181859085478166812A
:1016A0001D861E861F86188A998B8A8B1B8A83E06B
:1016B0008C8B8D8B1A861B861C8692E3E92E09E0A3
:1016C00029E0CE0101960E94B708BE016F5F7F4FEF
:1016D000CE018C5D9E4F0E947D02F601A081B181FA
:1016E000ED91FC9111970280F381E02DAC01BE01D8
:1016F0006C5D7E4FCD010995C55CDD4F0FB6F8944A
:10170000DEBF0FBECDBFDF91CF910F91EF90DF9085
:10171000CF9008952F923F924F925F926F927F9257
:101720008F929F92AF92BF92CF92DF92EF92FF92F1
:101730000F931F93CF93DF93CDB7DEB7C658D34037
:101740000FB6F894DEBF0FBECDBF60ED77E080E04E
:1017500090E00E94CE0080E59BE00E9460028091B4
:101760009D1290919C1240919B1260919A12C05DC3
:10177000DE4F188219821A821B82C053D140CC5C82
:10178000DE4F9883C453D140CB5CDE4F8883C55372
:10179000D140CA5CDE4F1882C653D14083E0C95C99
:1017A000DE4F8883C753D140C85CDE4F8883C8535F
:1017B000D140C35DDE4F188219821A82CD52D140CA
:1017C00072E3E72E09E029E0CE018C5D9E4F0E9476
:1017D000B708BE016C5D7E4FCE01895B9D4F0E94B4
:1017E0007D028C0168EE73E080E090E00E94CE0004
:1017F0008091941290919512DC01ED91FC91028000
:10180000F381E02DA801BE01695B7D4F099586E655
:101810009BE00E94600261E070E080E090E00E9446
:10182000CE00E1E0F0E0C558DC4FF983E883CB5708
:10183000D3402E01F1EA4F1AFCEF5F0A8091941217
:1018400090919512DC01ED91FC910084F185E02DE1
:1018500009951816190634F1C558DC4FE881F9814D
:10186000CB57D3403197B9F289EF9BE00E946002D9
:10187000CA57DC4F0FB6F894DEBF0FBECDBFDF9165
:10188000CF911F910F91FF90EF90DF90CF90BF907D
:10189000AF909F908F907F906F905F904F903F9010
:1018A0002F9008958091941290919512DC01ED9102
:1018B000FC910284F385E02D09958C01C658DC4F1C
:1018C0008883CA57D34010921211809115119091BC
:1018D00016118131910508F033C0FC01EE58F34F29
:1018E0000C943316830C830CF50C100D220D2A0D6D
:1018F000340D3E0D480D6A0D840D9C0DB40D940EF3
:10190000940EFF0EFF0EC658DC4FB881CA57D34065
:10191000BD3F09F054C082E090E09093161180938F
:1019200015111092890C0093880C80911E118E7FE6
:1019300080931E118FEF9FEF9093870C8093860CFE
:10194000809112118130A9F490918C0C9093181110
:1019500020911A1130911B112115310521F410929B
:101960001D1110921C112F5F3F4F30931B112093BC
:101970001A119091890C9C8310921411823031F4C9
:1019800020919A0D30919B0D3A8329839EEF980FF9
:10199000923008F0CCC481E080931411109212119F
:1019A000C658DC4FF881CA57D340FD3F09F4B0C494
:1019B00081E090E090931611809315113FCFC658A7
:1019C000DC4FE881CA57D340EE3F09F0DFC482E024
:1019D00090E090931611809315111092890C00934A
:1019E000880C80911E118160A3CF0093890C109206
:1019F0001711602F86E89CE00E94410280911E1121
:101A000080FF07C010928A0C10928B0C85E090E04A
:101A100002C083E090E0909316118093151190CF4F
:101A200000938A0CC8018E7F9927892B19F081E0D9
:101A300090E0F1CF602F86E89CE00E94410284E0B4
:101A400090E0E9CF00938B0C602F86E89CE00E9429
:101A50004102DCCF00938C0C602F86E89CE00E9452
:101A6000410286E090E0D7CF00938D0C602F86E88E
:101A70009CE00E94410287E090E0CDCF00938E0C65
:101A8000602F86E89CE00E94410288E090E0C3CF8E
:101A9000C658DC4F8880CA57D340882D90E0A0E01C
:101AA00080938F0C9093900CA093910C602F86E8FC
:101AB0009CE00E94410280911E1180FF08C080912D
:101AC000890C882309F44DC08BE090E0A4CF89E015
:101AD00090E0A1CF80918F0C9091900CA091910CEF
:101AE000C658DC4F9880CA57D340992980938F0CF1
:101AF0009093900CA093910C602F86E89CE00E943C
:101B000041028AE090E087CF80918F0C9091900CF9
:101B1000A091910CC658DC4F8880CA57D340A829A1
:101B200080938F0C9093900CA093910C602F86E87B
:101B30009CE00E944102C3CFE091171181E08E0F1B
:101B400080931711F0E0EE56F34F0083602F86E884
:101B50009CE00E944102909117118091890C98138A
:101B6000EFCE8CE090E057CF80918F0C9091900C4D
:101B7000A091910C5C01CA2ED12CC158DC4FA882D7
:101B8000B982CA82DB82CF57D34058EEC52ED12C02
:101B9000E12CF12CCD57DC4FC882D982EA82FB823E
:101BA000C358D340C12CD12C76012AE0CD57DC4F4D
:101BB00088819981AA81BB81C358D3408C0D9D1D1A
:101BC000AE1DBF1D0196A11DB11DB695A795979598
:101BD0008795289FF001299FF00D1124E65FFD4FA6
:101BE00080809180A280B380CA58DC4F888299821D
:101BF000AA82BB82C657D340C158DC4F4881598165
:101C00006A817B81CF57D340481559056A057B050A
:101C100008F048C0AC01BD0141505109610971098A
:101C2000CD57DC4F488359836A837B83C358D340A5
:101C300002C06C017D01CD57DC4F488159816A811A
:101C40007B81C358D340C416D506E606F70608F4D0
:101C5000ADCF8AE08C9DF0018D9DF00D1124E65FE3
:101C6000FD4F80819181A281B381C158DC4F2881D1
:101C700039814A815B81CF57D340281739074A07FA
:101C80005B0741F5648186E89CE00E9441028091F7
:101C9000860C9091870C99270817190621F58DE07D
:101CA00090E023C0C158DC4F88809980AA80BB8017
:101CB000CF57D340CA58DC4FC880D980EA80FB8018
:101CC000C657D340C814D904EA04FB0408F4B1CFC2
:101CD0006C01BFCF8EE090E09093161180931511A8
:101CE00000939A0D2DCE8EE090E090931611809384
:101CF000151100939A0D809117119AE09C9DF001A7
:101D00009D9DF00D1124E65FFD4F4681841708F07C
:101D100017CE50E090E0481B590B70E060E08E5603
:101D2000934F0E946D180CCE0E97B1F03091870C36
:101D3000C358DC4F3883CD57D340C258DC4F18828C
:101D4000CE57D340C358DC4F88809980CD57D340BD
:101D500081E00815190409F082E0809312110093C4
:101D60009B0D80918A0C80FF17C0809112118230E8
:101D700051F480E190E090931611809315118DE05D
:101D800080931F11DDCD8FE090E09093161180932A
:101D9000151110921211F3CFE0912011F091211141
:101DA000309749F002A4F3A5E02D3097A9F4809173
:101DB0001211823001F581E090E09093161180932A
:101DC000151183E291E0E6E8FCE0DE011196019056
:101DD0000D920197E1F7B4CD80918F0C9091900C0A
:101DE000A091910CAC016A2F70E082E191E109951C
:101DF0008111E1CFDCCF83E080931211DCCF8091A1
:101E00001F11EDE0F0E0E81BF109E456F24F00830A
:101E1000815080931F118111B9C280902011909040
:101E2000211181E08114910409F402C22090221151
:101E30003090231119821A821B821C821D821E82FD
:101E40001F82188687E6A82E86EEB82E89E0C82E57
:101E50008AE6D82EA986BA86CB86DC8695E8C92E76
:101E60009EEAD92E97E6E92E9BEBF92ECD86DE86EB
:101E7000EF86F88A22E733EF4EE65CE3298B3A8B54
:101E80004B8B5C8B4AE355EF6FE475EA4D8B5E8BB1
:101E90006F8B788F6FE772E58EE091E5698F7A8FAF
:101EA0008B8F9C8F8CE898E6A5E0BBE98D8F9E8F89
:101EB000AF8FB8A32BEAA22E29EDB22E23E8C22EB3
:101EC0002FE1D22EA9A2BAA2CBA2DCA239E1C32E65
:101ED0003DECD32E30EEE32E3BE5F32ECDA2DEA279
:101EE000EFA2F8A620E230E040E050E0B401665FE7
:101EF0007F4FCE0101960E9405032AE030E040E0CA
:101F000050E068E87CE0CE0101960E940503209134
:101F1000890C30E050E040E062E97CE0CE010196BF
:101F20000E94050322E030E040E050E06AE97DE0F5
:101F3000CE0101960E94050327E030E040E050E02A
:101F40006CE97DE0CE0101960E940503BE01605957
:101F50007C4FCE0101960E94370846E050E063EACC
:101F60007DE0CE0180599C4F0E945718892BF9F0D3
:101F700082E090E0D4019D969C938E939C97E09193
:101F80002011F091211102A4F3A5E02D80E03097FB
:101F900009F44EC180918F0C9091900CA091910CFE
:101FA000AC016A2F70E082E191E1099541C1B091E5
:101FB0009C0DCA58DC4FB883C657D340C859DC4F74
:101FC0001882C856D340C759DC4F1882C956D3402F
:101FD000C659DC4F1882CA56D340C559DC4F188207
:101FE000CB56D340C459DC4F1882CC56D340C3598A
:101FF000DC4F1882CD56D340C259DC4F1882CE56E2
:10200000D340C159DC4F1882CF56D34086E0EDE96A
:10201000FDE0DE01A859BC4F01900D928A95E1F7D1
:102020002114310439F1F10180819181E0918D0C0D
:1020300020918E0CD101712C612C86159705E9F049
:1020400013963C911397E31310C014963C91149788
:1020500023130BC012963C911297CA58DC4FF8819B
:10206000C657D340F31709F4EDC03FEF631A730A64
:102070001996E3CF83E090E07DCF409718F084E09D
:1020800090E078CFC859DC4F2881C856D340C75953
:10209000DC4F3881C956D340C659DC4F4881CA56F7
:1020A000D340C559DC4F5881CB56D340C459DC4F7F
:1020B0006881CC56D340C359DC4F7881CD56D3408C
:1020C000C259DC4F8881CE56D340C159DC4F98812C
:1020D000CF56D34020583247444A5F4F6F4F7F4F0F
:1020E0008F4F9F4FD4011296AC9012971396BC90CD
:1020F00013971496CC9014971596DC901597169616
:10210000EC9016971796FC90179718960C911897C5
:1021100019961C9119970E94481618F485E090E0D2
:102120002ACF89E0869DD001879DB00D1124A20D94
:10213000B31D1396EC93139780918E0C14968C9389
:102140001497CA58DC4FE881C657D3401296EC93D7
:10215000C3010196D1018D939C9389E0869DD001A6
:10216000879DB00D11241596A20DB31D86E0EDE9F3
:10217000FDE001900D928A95E1F7C859DC4F388057
:10218000C856D340C759DC4F2880C956D340C659DA
:10219000DC4F6880CA56D340C559DC4F7880CB5697
:1021A000D340C459DC4FB881CC56D340C359DC4F1F
:1021B000A881CD56D340C259DC4FF881CE56D340CA
:1021C000CA58DC4FF883C657D340C159DC4FE88169
:1021D000CF56D340C158DC4FE883CF57D340F401EA
:1021E000A280B380C480D580E680F7800085118509
:1021F000232D322DA3016B2F7A2FCA58DC4F8881F3
:10220000C657D340C158DC4F9881CF57D3400E9466
:10221000481649F040F03282238264827582B68388
:10222000A7838087918781E090E0F40195A784A738
:1022300020911511309116112031310509F063C03C
:1022400082E0DACDF20110821182128213821482AE
:1022500015821682178289E0869DF001879DF00D18
:1022600011243596E20DF31D86E0D20101900D9206
:102270008A95E1F7C859DC4F2881C856D340C75921
:10228000DC4F3881C956D340C659DC4F4881CA5605
:10229000D340C559DC4F5881CB56D340C459DC4F8D
:1022A0006881CC56D340C359DC4F7881CD56D3409A
:1022B000D201AC901196BC9011971296CC901297C7
:1022C0001396DC9013971496EC9014971596FC9047
:1022D000159716960C91169717961C91C259DC4FBC
:1022E0008881CE56D340C159DC4F9881CF56D34018
:1022F0000E94481611F008F030CF86E090E0F4011B
:1023000095A784A73CCE882309F475CD81E074CDD0
:1023100082E090E090931611809315111092890C31
:102320008FEF9FEF9093870C8093860C87CA88234A
:1023300009F484CA8CEB9BE00E9460028A859B852D
:10234000AC85892B8A2B09F079CA4C814A3008F078
:1023500049E089E0D2011D928A95E9F750E0BE017B
:10236000635F7F4FC2010E946418888580939E122C
:10237000898580939F1282ED9BE00E946002C55880
:10238000DC4F19821882CB57D34058CA8091121162
:10239000F0CA1F920F920FB60F9211242F933F9302
:1023A0008F939F93AF93BF9380917C0C90917D0C02
:1023B000A0917E0CB0917F0C30917B0C26E0230F16
:1023C0002D3768F129E8230F0396A11DB11D209335
:1023D0007B0C80937C0C90937D0CA0937E0CB0932F
:1023E0007F0C8091800C9091810CA091820CB09117
:1023F000830C0196A11DB11D8093800C9093810CDC
:10240000A093820CB093830CBF91AF919F918F9159
:102410003F912F910F900FBE0F901F90189502962D
:10242000A11DB11DD4CF1F920F920FB60F92112490
:102430000BB60F922F933F934F935F936F937F93BE
:102440008F939F93AF93BF93EF93FF9387EF91E1A8
:102450000E947E01FF91EF91BF91AF919F918F916B
:102460007F916F915F914F913F912F910F900BBE94
:102470000F900FBE0F901F9018951F920F920FB6DE
:102480000F9211240BB60F922F938F939F93EF937C
:10249000FF93E0910712F09108128081E0910D12F4
:1024A000F0910E1282FD1DC09081809110128F5FFD
:1024B0008F7320911112821741F0E0911012F0E019
:1024C000E950FE4E958F80931012FF91EF919F91EE
:1024D0008F912F910F900BBE0F900FBE0F901F90FA
:1024E00018958081F2CF1F920F920FB60F92112490
:1024F0000BB60F922F933F934F935F936F937F93FE
:102500008F939F93AF93BF93EF93FF938AE591E1EE
:102510000E947E01FF91EF91BF91AF919F918F91AA
:102520007F916F915F914F913F912F910F900BBED3
:102530000F900FBE0F901F9018951F920F920FB61D
:102540000F9211240BB60F922F938F939F93EF93BB
:10255000FF93E0916A11F0916B118081E09170110D
:10256000F091711182FD1DC09081809173118F5F78
:102570008F7320917411821741F0E0917311F0E094
:10258000E65AFE4E958F80937311FF91EF919F91C4
:102590008F912F910F900BBE0F900FBE0F901F9039
:1025A00018958081F2CF1092FA111092F91148EE2D
:1025B00053E060E070E04093FB115093FC11609396
:1025C000FD117093FE1188E29BE09093F8118093C7
:1025D000F7112DEC30E030930412209303122CEC11
:1025E00030E0309306122093051228EC30E030934F
:1025F00008122093071229EC30E030930A1220933E
:1026000009122AEC30E030930C1220930B122EECBE
:1026100030E030930E1220930D121092101210928F
:102620001112109212121092131210925D11109248
:102630005C1140935E1150935F1160936011709331
:10264000611190935B1180935A1185EC90E0909307
:1026500067118093661184EC90E0909369118093E8
:10266000681180EC90E090936B1180936A1181EC7B
:1026700090E090936D1180936C1182EC90E09093B8
:102680006F1180936E1186EC90E09093711180939E
:1026900070111092731110927411109275111092A2
:1026A00076111092A1121092A0121092A312109201
:1026B000A2121092A5121092A41261E370E090E0B1
:1026C00080E00E947617009709F19093A112809301
:1026D000A01220E330E03093A3122093A2122091A5
:1026E000A4123091A512232B11F4FC01108280E377
:1026F00090E09093A5128093A4126DE27CE080910B
:10270000A0129091A1120E94741814C08091A0127E
:102710009091A112009711F00E94ED161092A11253
:102720001092A0121092A5121092A4121092A3124D
:102730001092A21287EF91E19093951280939412D8
:1027400082E19CEAA0E2BCE38093961290939712F8
:10275000A0939812B093991281E080939A128EE917
:1027600080939B1282E080939C1288E080939D125C
:102770000895789484B5836084BD85B5836085BDF4
:1027800080916E00816080936E0092E09093810052
:1027900080918100816080938100809180008160C0
:1027A000809380008091B10084608093B10080911B
:1027B000B00081608093B00080919100836080932D
:1027C00091008091900081608093900086E88093D2
:1027D0007A001092C100E0916A11F0916B11908320
:1027E000E0916611F09167111082E0916811F0910B
:1027F000691180E1808310927211E0916E11F09165
:102800006F1186E08083E0916C11F0916D118081F1
:1028100088698083E0916C11F0916D1180818F7DCA
:102820008083C2E0D0E116E0E0919412F09195121D
:10283000A089B189CC93A485B5851C92A685B7855E
:10284000DC93108EA489B5891C93A289B3898C91DD
:1028500088698C930288F389E02D80818F7D808345
:102860008091941290919512DC01ED91FC9100847D
:10287000F185E02D0995181619065CF08EE59CE0AF
:102880000E9460026AEF70E080E090E00E94CE005B
:10289000CBCF0E948A0B60ED77E080E090E00E9451
:1028A000CE00812C912C54018A94DD24D394C3EE64
:1028B000D0E003EC10E023EAE22E20E0F22E2FB766
:1028C000F89480917C0C90917D0CA0917E0CB0913D
:1028D0007F0C2FBF8093770C9093780CA093790C8A
:1028E000B0937A0C4091730C5091740C6091750CFC
:1028F0007091760C4C505E4F6F4F7F4F48175907C1
:102900006A077B0750F48093730C9093740CA09328
:10291000750CB093760C0E94340B4091770C50915B
:10292000780C6091790C70917A0C80916F0C909179
:10293000700CA091710CB091720C88519C4FAF4FEC
:10294000BF4F84179507A607B70708F052C04093FA
:102950006F0C5093700C6093710C7093720C0E940A
:102960007815A50194010E94D0156093840C0E94F3
:102970007815A50194010E94D0156093850C0E94E2
:10298000BB0A30916E0C3D2530936E0CFE01949184
:10299000F8012491F7018491882359F19923C1F01A
:1029A00092509A30A8F4E92FF0E0E752FB4E0C94D5
:1029B00033161A151E15E3140215E814E81406154B
:1029C0000C1510151615909180009F77909380003C
:1029D000E82FF0E0EE0FFF1FE457FF4FA591B491F1
:1029E0008FB7F8949C9131112CC0209529232C93FA
:1029F0008FBF6AE070E080E090E00E94CE000E940D
:102A00000D025DCF909180009F7DE0CF9091B0004E
:102A10009F779093B000DCCF9091B0009F7DF9CF6D
:102A2000909190009F7790939000D2CF90919000DA
:102A30009F7DF9CF94B59F7794BDCACF94B59F7D04
:102A4000FBCF292BD4CF8091A0129091A112009797
:102A500011F00C94ED1608958F929F92AF92BF9251
:102A6000CF92DF92EF92FF92CF93DF93EC016881D8
:102A700079818A819B81611571058105910521F418
:102A800064E279ED8BE597E02DE133EF41E050E032
:102A90000E94D01549015A019B01AC01A7EAB1E49B
:102AA0000E94EF156B017C01ACEEB4EFA50194011F
:102AB0000E94FD15C60ED71EE81EF91EF7FE06C0C1
:102AC00081E0C81AD108E10880E8F80AC882D982F2
:102AD000EA82FB82C701B6019F77DF91CF91FF9019
:102AE000EF90DF90CF90BF90AF909F908F90089520
:102AF0008F929F92AF92BF92CF92DF92EF92FF920E
:102B00006091000170910101809102019091030197
:102B1000611571058105910521F464E279ED8BE57C
:102B200097E02DE133EF41E050E00E94D0154901DC
:102B30005A019B01AC01A7EAB1E40E94EF156B01B9
:102B40007C01ACEEB4EFA50194010E94FD15C60E08
:102B5000D71EE81EF91EF7FE06C081E0C81AD1088C
:102B6000E10880E8F80AC0920001D0920101E092E9
:102B70000201F0920301C701B6019F77FF90EF9029
:102B8000DF90CF90BF90AF909F908F90089560930B
:102B90000001709301018093020190930301089555
:102BA000052E97FB1EF400940E94E71557FD07D0F1
:102BB0000E94021607FC03D04EF40C94E7155095C2
:102BC0004095309521953F4F4F4F5F4F0895909519
:102BD0008095709561957F4F8F4F9F4F08950E940C
:102BE0002416A59F900DB49F900DA49F800D911D5C
:102BF00011240895B7FF0C94EF150E94EF15821B66
:102C0000930B0895A1E21A2EAA1BBB1BFD010DC058
:102C1000AA1FBB1FEE1FFF1FA217B307E407F5078C
:102C200020F0A21BB30BE40BF50B661F771F881F68
:102C3000991F1A9469F760957095809590959B01FE
:102C4000AC01BD01CF010895A29FB001B39FC001A7
:102C5000A39F700D811D1124911DB29F700D811DC8
:102C60001124911D0895EE0FFF1F0024001C0BBEC0
:102C70000790F691E02D09940024A7FD00942A0FF7
:102C8000301D401D501D601D701D801D901D08953C
:102C90002A153B054C055D056E057F0580079107EC
:102CA00008950F931F93CF93DF938230910510F413
:102CB00082E090E0E091A812F091A91230E020E0CB
:102CC000B0E0A0E0309799F42115310509F44AC02D
:102CD000281B390B24303105D8F58A819B81611579
:102CE000710589F1FB0193838283FE0111C040814C
:102CF00051810281138148175907E0F0481759079D
:102D000099F4109761F012960C93129713961C93F6
:102D10003296CF01DF91CF911F910F9108950093CB
:102D2000A8121093A912F4CF2115310551F04217C2
:102D3000530738F0A901DB019A01BD01DF01F80159
:102D4000C1CFEF01F9CF9093A9128093A812CDCFF4
:102D5000FE01E20FF31F81939193225031093983D1
:102D60002883D7CF2091A6123091A712232B41F4AC
:102D700020910601309107013093A7122093A612EB
:102D800020910401309105012115310541F42DB741
:102D90003EB74091080150910901241B350BE09189
:102DA000A612F091A712E217F307A0F42E1B3F0B17
:102DB0002817390778F0AC014E5F5F4F24173507AD
:102DC00048F04E0F5F1F5093A7124093A6128193B5
:102DD00091939FCFF0E0E0E09CCFCF93DF930097FB
:102DE000E9F0FC01329713821282A091A812B091EF
:102DF000A912ED0130E020E01097A1F4208131818B
:102E0000820F931F2091A6123091A712281739071D
:102E100009F061C0F093A712E093A612DF91CF9161
:102E20000895EA01CE17DF07E8F54A815B819E012C
:102E300041155105B1F7E901FB83EA8349915991A5
:102E4000C40FD51FEC17FD0761F4808191810296B4
:102E5000840F951FE90199838883828193819B83E5
:102E60008A83F0E0E0E012968D919C911397009791
:102E7000B9F52D913C911197CD010296820F931FC8
:102E80002091A6123091A7122817390739F63097EA
:102E900051F51092A9121092A812B093A712A09304
:102EA000A612BCCFD383C28340815181840F951F6A
:102EB000C817D90761F44E5F5F4F88819981480F29
:102EC000591F518340838A819B819383828321157B
:102ED000310509F0B0CFF093A912E093A8129ECF6C
:102EE000FD01DC01C0CF13821282D7CF4F925F92D7
:102EF0006F927F928F929F92AF92BF92CF92DF920A
:102F0000EF92FF920F931F93CF93DF938C01009763
:102F100099F4CB01DF91CF911F910F91FF90EF902A
:102F2000DF90CF90BF90AF909F908F907F906F90E9
:102F30005F904F900C945116FC01E60FF71F9C0117
:102F400022503109E217F30708F4AEC0D901CD9140
:102F5000DC911197C617D70720F1C530D10578F05D
:102F6000CE0104978617970750F0C61BD70B229700
:102F7000C193D1936D937C93CF010E94ED16C8014C
:102F8000DF91CF911F910F91FF90EF90DF90CF9045
:102F9000BF90AF909F908F907F906F905F904F9079
:102FA00008955B01AC1ABD0A4C018C0E9D1EA091C8
:102FB000A812B091A912512C412CF12CE12C1097A0
:102FC00031F58091A6129091A7128815990509F004
:102FD0005CC04616570608F058C0809104019091D5
:102FE0000501009741F48DB79EB7409108015091BB
:102FF0000901841B950BE817F90708F055C0F093F9
:10300000A712E093A612F90171836083B8CF8D9166
:103010009C91119712966C90129713967C9013972F
:10302000A815B90559F56C0142E0C40ED11CCA14AB
:10303000DB0420F1AC014A195B09DA0112961597FD
:1030400080F06282738251834083D9016D937C93B7
:10305000E114F10471F0D7011396FC93EE931297EB
:103060008ECF22968C0F9D1FF90191838083F301EF
:10307000EFCFF093A912E093A81281CF481659061A
:1030800008F42C017D01D3019ACFCB010E94511687
:103090007C01009749F0AE01B8010E946418C80194
:1030A0000E94ED1687016BCF10E000E068CFFB01B6
:1030B000DC0104C08D910190801921F441505040F1
:1030C000C8F7881B990B0895FB01DC0102C0019031
:1030D0000D9241505040D8F70895DC0101C06D9326
:1030E00041505040E0F70895FB01DC0101900D9242
:1030F0000020E1F7089510E0CCE7D0E004C0FE0125
:103100000E9433162196CD37D107C9F7F894FFCF27
:10311000010000000000AA128000982F8A4291440A
:103120003771CFFBC0B5A5DBB5E95BC25639F111EC
:10313000F159A4823F92D55E1CAB98AA07D8015BD7
:103140008312BE853124C37D0C55745DBE72FEB101
:10315000DE80A706DC9B74F19BC1C1699BE48647B6
:10316000BEEFC69DC10FCCA10C246F2CE92DAA8403
:10317000744ADCA9B05CDA88F97652513E986DC683
:1031800031A8C82703B0C77F59BFF30BE0C64791EA
:10319000A7D55163CA0667292914850AB72738219C
:1031A0001B2EFC6D2C4D130D385354730A65BB0A4E
:1031B0006A762EC9C281852C7292A1E8BFA24B66A5
:1031C0001AA8708B4BC2A3516CC719E892D1240680
:1031D00099D685350EF470A06A1016C1A419086C32
:1031E000371E4C774827B5BCB034B30C1C394AAAFB
:1031F000D84E4FCA9C5BF36F2E68EE828F746F635C
:10320000A5781478C8840802C78CFAFFBE90EB6CCE
:1032100050A4F7A3F9BEF27871C60000000032098D
:1032200009000000010000007C1F2B0000000200CC
:103230000000890C0C00000004000000ED0E0E03DD
:103240000C0D05000000D91C1C0100000600000048
:103250006803030000000700000077202000000042
:10326000080000007524240000000B00000059062F
:103270000601040014000000D61414030203150014
:1032800000009F020203000116000000DC19190073
:10329000000017000000A81717030405180000001D
:1032A000181E3400000019000000176565000000BA
:1032B0001A000000AA16180000001B000000901A57
:1032C0001D0000001C0000004310100000001D0045
:1032D0000000730E100000001E000000271C1C00E0
:1032E00000001F000000F620300000002000000059
:1032F000B91C1C00000021000000681C1C0000001C
:1033000022000000ED161600000023000000F41655
:103310001600000024000000DE1525000000250036
:103320000000D40607030405260000000906070371
:10333000040527000000FE252603202128000000A8
:10334000E60405030203290000001C040403020331
:103350002A0000001C02120000002B000000840262
:10336000030300012C000000DD04090302032D000B
:103370000000E802030300012E0000000B0202001F
:1033800000002F0000009903080300013000000036
:10339000290D15010C0031000000270C140000005D
:1033A000320000004E252503121333000000C40430
:1033B00005030203360000000F1B1B03181937001A
:1033C00000000319190000003D000000A748480054
:1033D00000003E000000B71A1A0000003F00000085
:1033E00077B5B500000040000000BFE1E10000003B
:1033F00041000000762A2A000000420000009406E6
:103400000603020343000000150404000000450009
:103410000000F30B1E010A00460000007C12260388
:103420001011490000002625260320214A00000033
:103430001414140000004B0000009E2323031E1FE1
:103440004C000000982121031E1F4D0000008F0337
:103450000A030809500000000E040403020351008F
:1034600000006A16160000005200000031273303E6
:1034700024255300000016252500000054000000FC
:103480008F3535033233550000008C333300000094
:1034900056000000053535033233570000009633DF
:1034A0003300000059000000E71C1C0000005A0017
:1034B0000000B738380000005B0000003F2A2A00F7
:1034C00000005C0000003621210000005D000000CB
:1034D0002F515100000064000000AF1A22000000CC
:1034E00065000000662075000000660000009E2058
:1034F0007500000067000000D0143900000068006B
:103500000000382074000000690000005D3E3F00AC
:1035100000006A0000008A2C2C0000006B000000F4
:103520006C40410000006C00000020545C00000072
:103530006D000000B909090000006E00000054FE93
:10354000FE0301026F000000221012031011700030
:103550000000AE0C0C000000710000007C2427006D
:10356000000072000000ED2C2C0000007300000031
:10357000044040000000740000004C1618000000D9
:103580007500000080060603040576000000380E72
:103590000E00000077000000740C0C030A0B78008A
:1035A000000086616100000079000000ED02020366
:1035B00000017A000000CB02020300017B00000042
:1035C000FA71710300017C000000572339000000EC
:1035D0007D000000CB06060000007E000000DC4FEE
:1035E00051034F507F00000019232300000080008A
:1035F0000000E22323000000810000002E161800C6
:103600000000820000001D0D0D000000830000007E
:10361000DFFFFF00000084000000550E27000000BF
:103620008500000006121200000086000000E52B55
:103630002B00000087000000CB0808000000880075
:10364000000001161600000089000000C30E1000E3
:1036500000008A0000006D24780000008B0000004C
:10366000A82B2B03292A8C000000B5292900000073
:103670008D0000002F20200000008E00000048F385
:10368000F30000008F000000830E10000000900087
:1036900000007F5D5D000000920000006764640030
:1036A0000000930000009A243600000094000000FF
:1036B000B23C4E00000095000000C81E3C00000017
:1036C000A2000000BD0809000000C0000000242C7A
:1036D00036000000E1000000D04149000000E60093
:1036E0000000A32A2A000000E70000006928280043
:1036F0000000E8000000973F41000000E9000000E2
:1037000023B6B6000000EA0000009628280000005A
:10371000EB000000B32A2A000000F10000005A204C
:1037200020000000F200000068343C000000F300BC
:10373000000055353D013400F40000005F0606002E
:103740000000F5000000820202000000F600000008
:10375000B82626000000F7000000511313000000F7
:10376000F800000008FEFE030304F9000000CC246A
:1037700024000000FA000000311E1E000000FB00C3
:103780000000AA1212000000FC0000002C1212001F
:103790000000FD000000533336000000FE00000072
:1037A0002E090900000000010000472A2A03080929
:1037B0000101000083090900000002010000BB2094
:1037C000E8030001030100005CEBED0000000401D0
:1037D000000092050E00000005010000B31B3D0033
:1037E0000000060100000C12170000000701000095
:1037F00085FFFF00000008010000311C20000000D0
:10380000090100001A10140000000A010000C1FFA5
:10381000FF0302030B01000023FFFF0302030C015F
:1038200000000E04040302030D0100006DD5D70053
:1038300000000E0100003B13140000000F01000007
:10384000163435000000130100007E1F2000000028
:1038500014010000123132000000150100003E1E6C
:103860001E0000001801000046212100000019017F
:103870000000300D0D0000001A0100007B2323031F
:1038800020211B0100004A90910000001C01000053
:10389000632020031E1F1D010000892831032627F5
:1038A0001E010000D235390332331F010000011719
:1038B0001703141520010000141717031415220113
:1038C0000000FB2E2E000000230100000A39390001
:1038D000000027010000EA0C0C0000002B01000092
:1038E0001360620000002C010000D91616000000D1
:1038F0002D010000F33A3A000000360100001C11CF
:1039000011000000370100005F74740000004001E6
:103910000000F314140302034101000058020203E3
:10392000000142010000F3959500000043010000F2
:103930004E93930300014401000084929200000022
:103940004A010000179EA70000004B0100005BE643
:10395000E90000004C010000ECEFEF0000004D0119
:103960000000E76D6D0000004E010000480A0A00EB
:1039700000004F010000E118180000005001000095
:10398000F5545400000053010000C7050500000075
:103990005401000063464600000059010000D115A3
:1039A000150302035E010000E814FC00000068013A
:1039B00000000B1919000000690100005D212100C1
:1039C0000000720100004B576D0000007301000001
:1039D0000A1A1A000000740100001A8C8C00000002
:1039E00075010000752A2A00000077010000FB8C99
:1039F0008C00000078010000C708080000007C016E
:103A00000000E81414000000810100009385850384
:103A100002038201000084101003040583010000EA
:103A200004484803040584010000082525032021DB
:103A3000860100009CEEF00000008B01000000D425
:103A4000D40000008C01000032A0A00000008D0115
:103A50000000B66C6C000000900100006EFEFE03DA
:103A6000040591010000B706060304059A01000051
:103A7000A035350000009B0100006A030300000030
:103A80009C0100002106060304059D0100004D076E
:103A900007030405B3010000862E2E000000B401C8
:103AA0000000C10909000000B50100001E0101006D
:103AB0000000B8010000422323000000282300007A
:103AC0007189890000002D2300007522220000006A
:103AD00064320000722C2C03000165320000FE3BB2
:103AE0003B031E1F663200008C3535030405673228
:103AF0000000F92E2E030001683200004D36360317
:103B00001C1D69320000312B2B03000173320000B1
:103B10005EF9F9030001763200008B3333000000B8
:103B200077320000071212031011783200001405DA
:103B30000500000000000000A00100012D01ED01C2
:103B40005E013C0150010D0A0053656E64696E67A9
:103B50002054756E6E656C20646174612E2E2E008B
:103B600053656E64696E6720486561727462656151
:103B700074732E2E2E0048656172746265617473D1
:103B80002073656E7421204E6F772077696C6C20EE
:103B9000636865636B20666F722072656369657622
:103BA0006564206865617274626561747320746F06
:103BB000207265636F726420737973696420616E2B
:103BC0006420636F6D7069642E2E2E004D657373D3
:103BD0006167652050617273696E6720446F6E651E
:103BE0002100737973696420616E6420636F6D7066
:103BF0006964207375636365737366756C6C792093
:103C00007265636F72646564005265717565737483
:103C10002073656E7421204E6F7720796F75206157
:103C2000726520726561647920746F2072656369C2
:103C30006576652064617461732E2E2E006535668D
:103C400034666238626364306565393532366239AC
:103C500034363736313131626439313830363839BB
:103C600032353631322C43494275696C64004E6FEF
:0E3C70007420436F6E6E6563746564210000FE
:00000001FF
