:100000000C947D000C94A7000C94A7000C94A700FE
:100010000C94A7000C94A7000C94A7000C94A700C4
:100020000C94A7000C94A7000C94A7000C94A700B4
:100030000C94A7000C94A7000C94A7000C94A700A4
:100040000C94A7000C94A7000C94630B0C94A700CD
:100050000C94370C0C940D0C0C94A7000C94A70076
:100060000C94A7000C94A7000C94A7000C94A70074
:100070000C94D70B0C94AD0B0C94A7000C94A70018
:100080000C94A7000C94A7000C94A7000000220079
:10009000250028002B0002020202020202020404D0
:1000A000040404040404030303030303030301011E
:1000B0000101010101010102040810204080010238
:1000C0000408102040800102040810204080010232
:1000D0000408102040800000000203000A0B00000A
:1000E00000000504090800000000000000000000F6
:1000F0000000000000006D0CAA0E11241FBECFEFFF
:10010000D0E4DEBFCDBF12E0A0E0B1E0E4EEF3E268
:1001100000E00BBF02C007900D92AE37B107D9F7D0
:1001200024E0AEE7B2E001C01D92AE32B207E1F7C3
:1001300010E0CCE7D0E004C02197FE010E94BA0F86
:10014000CB37D107C9F70E94530D0C94E5110C94DD
:1001500000003FB7F8948091900290919102A09195
:100160009202B091930226B5A89B05C02F3F19F0CB
:100170000196A11DB11D3FBFBA2FA92F982F882727
:10018000BC01CD01620F711D811D911D43E0660F01
:10019000771F881F991F4A95D1F708958F929F92D4
:1001A000AF92BF92CF92DF92EF92FF924B015C0130
:1001B0000E94A9006B017C010E94A9006C197D09B5
:1001C0008E099F09683E734081059105A8F321E0DF
:1001D000821A9108A108B10888EEC80E83E0D81EE3
:1001E000E11CF11C81149104A104B10429F7FF90D2
:1001F000EF90DF90CF90BF90AF909F908F90089539
:10020000AF92BF92CF92DF92EF92FF920F931F9324
:10021000CF93DF936C017B018B01040F151FEB0162
:100220005E01AE18BF08C017D10759F06991D60119
:10023000ED91FC910190F081E02DC6010995892B8B
:1002400079F7C501DF91CF911F910F91FF90EF904A
:10025000DF90CF90BF90AF900895FC01538D448DF7
:10026000252F30E0842F90E0821B930B541710F061
:10027000CF96089501970895FC01918D828D98176E
:1002800061F0A28DAE0FBF2FB11D5D968C91928D46
:100290009F5F9F73928F90E008958FEF9FEF089577
:1002A000FC01918D828D981731F0828DE80FF11D40
:1002B000858D90E008958FEF9FEF0895FC01918D5B
:1002C000228D892F90E0805C9F4F821B91098F7354
:1002D000992708958BE793E00E945E0121E0892B26
:1002E00009F420E0822F08958EED92E00E945E01D5
:1002F00021E0892B09F420E0822F0895FC01A48DD0
:10030000A80FB92FB11DA35ABF4F2C91848D90E037
:1003100001968F739927848FA689B7892C93A0891A
:10032000B1898C91837080648C93938D848D9813A4
:1003300006C00288F389E02D80818F7D8083089537
:10034000EF92FF920F931F93CF93DF93EC0181E025
:10035000888F9B8D8C8D98131AC0E889F9898081CC
:1003600085FF15C09FB7F894EE89FF896083E889FF
:10037000F98980818370806480839FBF81E090E0F1
:10038000DF91CF911F910F91FF90EF900895F62E7E
:100390000B8D10E00F5F1F4F0F731127E02E8C8D18
:1003A0008E110CC00FB607FCFACFE889F98980815D
:1003B00085FFF5CFCE010E947E01F1CFEB8DEC0FD2
:1003C000FD2FF11DE35AFF4FF0829FB7F8940B8F7A
:1003D000EA89FB8980818062CFCFCF93DF93EC01E4
:1003E000888D8823B9F0AA89BB89E889F9898C911D
:1003F00085FD03C0808186FD0DC00FB607FCF7CFD9
:100400008C9185FFF2CF808185FFEDCFCE010E94D8
:100410007E01E9CFDF91CF91089580E090E0892BB4
:1004200029F00E94740181110E94000080E090E098
:10043000892B29F00E946A0181110C940000089513
:10044000FB019081892790E1899F900111248227E7
:1004500090E0382F2227AC0163E0440F551F6A95C6
:10046000E1F724273527418150E02427352774E020
:10047000959587957A95E1F78227932791838083D5
:100480000895CF93DF93FC0101900020E9F73197A5
:10049000AF01481B590BBC018EED92E00E94000198
:1004A000EC0142E050E06CE172E08EED92E00E94DF
:1004B00000018C0F9D1FDF91CF910895AF92BF92E5
:1004C000DF92EF92FF920F931F93CF93DF93EC0194
:1004D0008B01FB01D3808281645F7F4F8E3F09F4E3
:1004E00059C0ED2CF12CFB01EE0DFF1DDE2C91E02F
:1004F0009E1538F49701215031099291992309F4FE
:1005000063C08883D982F80184818A8385818B8343
:1005100086818C8387818D8380858E8381858F837F
:1005200081859285A385988781859285A385A987F2
:10053000A701CE010A960E94D511FAE0EF0EF11C38
:10054000CE0DDF1DF801848199E0F92E80FF3AC0BD
:100550008DE0F8019081988391819983A82EB12C28
:10056000882341F0B8016A5E7E4FA501CE01029654
:100570000E94D511C5018F0D911D03968D0D911D02
:10058000DF91CF911F910F91FF90EF90DF90BF907F
:10059000AF9008958883D98286818A8387818B83EF
:1005A00080858C8381858D83438150E0CE010696C2
:1005B0000E94D511F801838190E00696C80FD91FDB
:1005C00025E0F22E80E0C5CF790190CF2F923F92A7
:1005D0004F925F926F927F928F929F92AF92BF9253
:1005E000CF92DF92EF92FF920F931F93CF93DF93FF
:1005F000CDB7DEB7CA58D1400FB6F894DEBF0FBEF4
:10060000CDBF1C01CF59DE4F79836883C156D140DD
:10061000C95BDE4F288339834A835B83C754D1404B
:10062000DC01CD90DD90ED90FC90DA01C90113E082
:10063000880F991FAA1FBB1F1A95D1F78C0D9D1DFE
:10064000AE1DBF1DF10180839183A283B3838C15FE
:100650009D05AE05BF0558F484819581A681B781BB
:100660000196A11DB11D84839583A683B783A3E062
:10067000F694E794D794C794AA95D1F7FFE3CF22D5
:10068000DD24EE24FF248101085D1F4FC957DE4F92
:1006900019830883C758D1408E010F5B1E4FCF5B73
:1006A000DE4F19830883C154D140C95BDE4F4880B7
:1006B00059806A807B80C754D14041145104610441
:1006C000710409F49BC480E490E0A0E0B0E08C19D0
:1006D0009D09AE09BF095301420184159505A60580
:1006E000B70510F44C015D01C957DE4F888199812F
:1006F000C758D1408C0D9D1DA401CF59DE4F688194
:100700007981C156D1400E94D511C80CD91CEA1C70
:10071000FB1CCF59DE4F68807980C156D140680CF0
:10072000791CCF59DE4F79826882C156D140C95BAE
:10073000DE4F488059806A807B80C754D14048187A
:1007400059086A087B08C95BDE4F488259826A8271
:100750007B82C754D14000E4C016D104E104F10407
:1007600009F0A3CFC957DE4F88819981C758D1407E
:100770008E010F5F1E4FF801DC0113962C91139729
:10078000208312962C911297218311962C91119708
:1007900022832C91238304963496CF5BDE4F4880CE
:1007A0005980C154D1404E165F0631F7D1011896D9
:1007B000CD90DD90ED90FC901B97CD59DE4FC88217
:1007C000D982EA82FB82C356D1401C964D905D903F
:1007D0006D907C901F97C959DE4F488259826A827A
:1007E0007B82C756D14050964D905D906D907C9025
:1007F0005397C559DE4F488259826A827B82CB5615
:10080000D14054964D905D906D907C905797C15912
:10081000DE4F488259826A827B82CF56D1405896F9
:100820004D905D906D907C905B97CD58DE4F4882E7
:1008300059826A827B82C357D1405C964D905D900D
:100840006D907C905F97C958DE4F488259826A82CA
:100850007B82C757D14090964D905D906D907C9073
:100860009397C558DE4F488259826A827B82CB5764
:10087000D14094964D905D906D907C909797C15823
:10088000DE4F488259826A827B82CF57D1409E01D7
:100890002F5F3F4FCD5ADE4F39832883C355D14058
:1008A000C901D8014D915D916D917D918D01DC0162
:1008B0004D935D936D937D93CD01E017F10789F71B
:1008C000CD5ADE4F48805980C355D140B0EC4B0E15
:1008D000511CCD5ADE4F68807980C355D140CD5B25
:1008E000DE4F79826882C354D140F30180AD91AD6F
:1008F000A2ADB3AD0481158126813781F4E06F0E7E
:10090000711C6C017D014FE0CC0CDD1CEE1CFF1C4A
:100910004A95D1F7AC01BD01E1E176956795579510
:100920004795EA95D1F7C42AD52AE62AF72AAC01D9
:10093000BD01FDE0440F551F661F771FFA95D1F7E3
:100940004C015D01E3E1B694A79497948794EA95EE
:10095000D1F7482959296A297B294C255D256E251F
:100960007F25FAE0B695A79597958795FA95D1F7E3
:1009700084279527A627B727CD5BDE4FE881F9812D
:10098000C354D14044A155A166A177A1C080D180B4
:10099000E280F3804C0D5D1D6E1D7F1D840F951F41
:1009A000A61FB71F6801790147E0F694E794D79432
:1009B000C7944A95D1F7B901A801E9E1440F551F41
:1009C000661F771FEA95D1F7C42AD52AE62AF72AA7
:1009D000B901A801FEE0440F551F661F771FFA9565
:1009E000D1F748015901E2E1B694A794979487940E
:1009F000EA95D1F7482959296A297B294C255D2593
:100A00006E257F25F3E03695279517950795FA957E
:100A1000D1F74027512762277327840F951FA61F00
:100A2000B71FF30184AF95AFA6AFB7AF4614570415
:100A300009F055CF0AE011E0C757DE4F198308834C
:100A4000C958D140C159DE4F288139814A815B8123
:100A5000CF56D140CD57DE4F288339834A835B83FD
:100A6000C358D140C559DE4F88819981AA81BB8185
:100A7000CB56D140C15BDE4F88839983AA83BB8369
:100A8000CF54D140C959DE4F488059806A807B805D
:100A9000C756D140C55BDE4F488259826A827B824D
:100AA000CB54D140CD59DE4F488159816A817B8139
:100AB000C356D140C558DE4FC880D980EA80FB803C
:100AC000CB57D140C75ADE4FC882D982EA82FB8217
:100AD000C955D140C958DE4FE880F9800A811B8191
:100AE000C757D140CB5ADE4FE882F9820A831B8375
:100AF000C555D140C158DE4F088119812A813B81FB
:100B0000CF57D140CD5BDE4F088319832A833B83C7
:100B1000C354D140CD58DE4F88819981AA81BB81D1
:100B2000C357D140C757DE4FE881F981C958D1403A
:100B3000E190F19001911191C757DE4FF983E8835D
:100B4000C958D140C35ADE4FE882F9820A831B8319
:100B5000CD55D140CD5ADE4FE881F981C355D14002
:100B600081909190A190B190CD5ADE4FF983E883A6
:100B7000C355D1402C013D012AE1440C551C661C93
:100B8000771C2A95D1F78C019D01E6E036952795D3
:100B900017950795EA95D1F7402A512A622A732AB8
:100BA0008C019D01F5E1000F111F221F331FFA95E3
:100BB000D1F76C017D01EBE0F694E794D794C794EC
:100BC000EA95D1F70C291D292E293F290425152541
:100BD000262537252C013D01F9E176946794579439
:100BE0004794FA95D1F76C017D01E7E0CC0CDD1C50
:100BF000EE1CFF1CEA95D1F7C428D528E628F72873
:100C00000C251D252E253F25C35ADE4F48805980CF
:100C10006A807B80CD55D140840C951CA61CB71CE6
:100C2000080D191D2A1D3B1D4C015D0180949094F7
:100C3000A094B094C75ADE4FC880D980EA80FB8068
:100C4000C955D1408C209D20AE20BF20CB5ADE4F0D
:100C5000C880D980EA80FB80C555D140C822D922FE
:100C6000EA22FB228C249D24AE24BF24800E911EF8
:100C7000A21EB31ECD5BDE4FE880F9800A811B8186
:100C8000C354D1408E0C9F1CA01EB11ECD57DE4F09
:100C9000088119812A813B81C358D140080D191D53
:100CA0002A1D3B1DC35ADE4F088319832A833B83C9
:100CB000CD55D1406A017B01FEE1CC0CDD1CEE1C60
:100CC000FF1CFA95D1F78A019B01E2E03695279542
:100CD00017950795EA95D1F7280139014C285D2829
:100CE0006E287F288A019B01F3E1000F111F221F4C
:100CF000331FFA95D1F76A017B01EDE0F694E79492
:100D0000D794C794EA95D1F70C291D292E293F299C
:100D100004251525262537252A013B01F6E1769481
:100D2000679457944794FA95D1F76A017B01EAE0FA
:100D3000CC0CDD1CEE1CFF1CEA95D1F74C285D287D
:100D40006E287F2873016201C026D126E226F32691
:100D5000CD5BDE4FC882D982EA82FB82C354D14088
:100D6000C55BDE4F088119812A813B81CB54D1407C
:100D7000C15BDE4F488059806A807B80CF54D14070
:100D80000425152526253725042315232623372357
:100D9000C55BDE4FC880D980EA80FB80CB54D14050
:100DA000C420D520E620F7200C251D252E253F2523
:100DB000CD5BDE4FC880D980EA80FB80C354D14030
:100DC0000C0D1D1D2E1D3F1D080D191D2A1D3B1D3F
:100DD000C75ADE4F488059806A807B80C955D14010
:100DE000CD5BDE4F488259826A827B82C354D140F8
:100DF000C15BDE4FC880D980EA80FB80CF54D140F0
:100E0000CD57DE4FC882D982EA82FB82C358D140D7
:100E1000FAE0EF2EF2E0FF2EC757DE4FE881F981AE
:100E2000C958D140EE16FF0609F0ADC0CD59DE4FCE
:100E3000488059806A807B80C356D140040D151DBF
:100E4000261D371DF1010087118722873387C95975
:100E5000DE4F488059806A807B80C756D140440D60
:100E6000551D661D771D4487558766877787C55949
:100E7000DE4F488159816A817B81CB56D140C55B69
:100E8000DE4F488059806A807B80CB54D140440D2E
:100E9000551D661D771D408B518B628B738BC1591D
:100EA000DE4F488159816A817B81CF56D140C15B39
:100EB000DE4F488059806A807B80CF54D140440DFA
:100EC000551D661D771D448B558B668B778BCD58D2
:100ED000DE4F488159816A817B81C357D140C35A13
:100EE000DE4F488059806A807B80CD55D140440DCB
:100EF000551D661D771D408F518F628F738FC958A6
:100F0000DE4F488059806A807B80C757D140840D6E
:100F1000951DA61DB71D848F958FA68FB78FC558B9
:100F2000DE4F88819981AA81BB81CB57D140CB5AB2
:100F3000DE4F488059806A807B80C555D140840D42
:100F4000951DA61DB71D80A391A3A2A3B3A3C1584D
:100F5000DE4F88819981AA81BB81CF57D140C75A82
:100F6000DE4F488059806A807B80C955D140840D0E
:100F7000951DA61DB71D84A395A3A6A3B7A3C12C39
:100F8000D12C760192CBC55BDE4F488059806A80B8
:100F90007B80CB54D140C15BDE4F488259826A824C
:100FA0007B82CF54D140C55BDE4F488359836A832F
:100FB0007B83CB54D140B901A801CB5ADE4FC88006
:100FC000D980EA80FB80C555D140C75ADE4FC88220
:100FD000D982EA82FB82C955D140CB5ADE4F888341
:100FE0009983AA83BB83C555D140C35ADE4F8881FC
:100FF0009981AA81BB81CD55D14094CDC657DE4F92
:101000000FB6F894DEBF0FBECDBFDF91CF911F9119
:101010000F91FF90EF90DF90CF90BF90AF909F9097
:101020008F907F906F905F904F903F902F9008959A
:101030004F925F926F927F928F929F92AF92BF92E8
:10104000CF92DF92EF92FF920F931F93CF93DF9394
:10105000CDB7DEB7C45CD1090FB6F894DEBF0FBEC2
:10106000CDBF6C014E2C8091A202582F527081FD91
:101070001EC0E091A402F091A502309739F0808162
:10108000EDE0AE2EBB24B39480FD02C0A12CB12CA8
:101090008DEFF60182833C96E00FF11D8291811164
:1010A00003C001500130D1F73AE0532E09C08EEF52
:1010B000D60112968C93022FA12C76E0572EB12CDC
:1010C000D60113960C93139717966C93179718964F
:1010D0004C931897B11056C014961C92D6011596D1
:1010E0001C92159780919D0216968C93169780916D
:1010F0009D028F5F80939D0212968C911297CF5420
:10110000DF4F8883C15BD04013968C911397CE54E8
:10111000DF4F8883C25BD04019968D919D91AC9131
:10112000F60136812781552389F1CD54DF4F38836D
:10113000C35BD040CC54DF4F2883C45BD040CB543A
:10114000DF4F4883C55BD040CA54DF4F8883C65BFE
:10115000D040852C912C8FEF9FEF9A8389838E014D
:101160000F541F4F7801E80CF91C0F5F1F4FE0165A
:10117000F106B9F1BE016F5F7F4FD8018C910E94DB
:101180002002F3CF81E0F6018483A8CF5481CD54AF
:10119000DF4F5883C35BD0405581CC54DF4F588319
:1011A000C45BD040CB54DF4F3883C55BD040CA54BA
:1011B000DF4F2883C65BD040C954DF4F4883C75BED
:1011C000D040C854DF4F8883C85BD040C754DF4F3E
:1011D0009883C95BD040C654DF4FA883CA5BD04018
:1011E000B8CF89819A81CD53DF4F99838883C35CBF
:1011F000D040F6016380712C7601FCE0EF0EF11C0B
:10120000870181E0681A7108BE016D537F4F9FEF1F
:101210006916790631F0D8018D918D010E94200266
:10122000F0CF842D0E942002CD53DF4F9881C35C04
:10123000D040CC53DF4F8881C45CD040D601139698
:10124000EC911397EE0DFF2DF11D90831396EC9109
:101250001397EE0DFF2DF11D81839C9311968C93B6
:101260001197BB2009F43FC10091A4021091A5027F
:101270000115110509F437C1F801808180FF33C1E0
:101280001396BC9081813601FAEE6F1AFEEF7F0A49
:10129000D3018C93F8017281638154814581368139
:1012A000278190858185C554DF4F7883CB5BD04003
:1012B000C454DF4F6883CC5BD040C354DF4F5883A6
:1012C000CD5BD040C254DF4F4883CE5BD040C15489
:1012D000DF4F3883CF5BD040C054DF4F2883C05CE2
:1012E000D040CF53DF4F9883C15CD040CE53DF4F07
:1012F0008883C25CD04086E0FE01E554FF4F119622
:1013000001900D928A95E1F7D80112962C911297CF
:1013100013963C91139714964C91149715965C91E3
:10132000159716966C91169717967C9117971896A5
:101330008C91189719969C91A1E00E94C30FF80117
:1013400022833383448355836683778380879187A1
:1013500019821A821B821C821D821E821F8218869D
:1013600087E696EEA9E0BAE689879A87AB87BC87BD
:1013700085E89EEAA7E6BBEB8D879E87AF87B88B93
:1013800082E793EFAEE6BCE3898B9A8BAB8BBC8B89
:101390008AE395EFAFE4B5EA8D8B9E8BAF8BB88F68
:1013A0008FE792E5AEE0B1E5898F9A8FAB8FBC8F66
:1013B0008CE898E6A5E0BBE98D8F9E8FAF8FB8A330
:1013C0008BEA99EDA3E8BFE189A39AA3ABA3BCA3E1
:1013D00089E19DECA0EEBBE58DA39EA3AFA3B8A7CA
:1013E000B801665F7F4F20E230E040E050E0CE0180
:1013F00001960E94E602252D30E050E040E0BE015B
:101400006F547F4FCE0101960E94E6022B2D30E0F3
:1014100050E040E0B701CE0101960E94E602B7011C
:101420006B0D711D22E030E040E050E0CE010196EE
:101430000E94E60227E030E040E050E0B301CE0138
:1014400001960E94E60289819A81AB81BC81AC0140
:10145000BD0123E076956795579547952A95D1F775
:101460004F73552727E730E0241B350B2F733327A5
:10147000BE0167597F4F40E8FB01419347E4119259
:101480004A95E9F7E9E6F0E0EC0FFD1FE20FF31FE4
:1014900080879783A683B5835D814E819F818885F0
:1014A0005483438392838183275F3F4F50E040E022
:1014B000BE0167597F4FCE0101960E94E6028C85DE
:1014C000F601E35EFE4F80838B85319680838A85AB
:1014D000319680838985319680838889319680838F
:1014E0008F8531968083D60113968C91880D992D26
:1014F000911D02968A0D911DCC53DF4F0FB6F894C3
:10150000DEBF0FBECDBFDF91CF911F910F91FF9036
:10151000EF90DF90CF90BF90AF909F908F907F9093
:101520006F905F904F900895CF92DF92EF920F935C
:10153000CF93DF93CDB7DEB7CB53D2400FB6F8943D
:10154000DEBF0FBECDBF8FE192E00E94410288E175
:10155000C82E84E0D82EF6014781668180E8E4E950
:10156000F2E0A4E2B1E0AC0FBD1F159601900D9220
:101570008A95E1F7CC5DDE4F19821882C452D140C2
:10158000CA5DDE4F1882C652D140C95DDE4F188257
:10159000C752D14082E0C85DDE4F8883C852D14037
:1015A00085E8FE01EC5DFE4FDE011D9601900D9277
:1015B0008A95E1F781E891E0A0E08A879B87AC8774
:1015C00093E9E92E05E825E8CE0101960E94180866
:1015D000BE016F5F7F4FCE018C5D9E4F0E945E0209
:1015E000F601A081B181ED91FC9111970280F38108
:1015F000E02DAC01BE016C5D7E4FCD010995C55C4F
:10160000DD4F0FB6F894DEBF0FBECDBFDF91CF9197
:101610000F91EF90DF90CF900895CF92DF92EF92ED
:101620000F93CF93DF93CDB7DEB7CB53D2400FB636
:10163000F894DEBF0FBECDBF86E392E00E94410268
:1016400088E1C82E84E0D82EF601818590854781F7
:1016500066811D861E861F86188A998B8A8B1B8A37
:1016600083E08C8B8D8B1A861B861C8692E3E92E79
:1016700009E029E0CE0101960E941808BE016F5FC3
:101680007F4FCE018C5D9E4F0E945E02F601A081CD
:10169000B181ED91FC9111970280F381E02DAC01B5
:1016A000BE016C5D7E4FCD010995C55CDD4F0FB667
:1016B000F894DEBF0FBECDBFDF91CF910F91EF90B9
:1016C000DF90CF9008951F920F920FB60F921124C2
:1016D0002F933F938F939F93AF93BF9380918C02EF
:1016E00090918D02A0918E02B0918F0230918B0269
:1016F00026E0230F2D3768F129E8230F0396A11D5B
:10170000B11D20938B0280938C0290938D02A09345
:101710008E02B0938F028091900290919102A091DD
:101720009202B09193020196A11DB11D8093900287
:1017300090939102A0939202B0939302BF91AF91C4
:101740009F918F913F912F910F900FBE0F901F90FF
:1017500018950296A11DB11DD4CF1F920F920FB6FE
:101760000F9211240BB60F922F933F934F935F93D9
:101770006F937F938F939F93AF93BF93EF93FF9359
:101780008BE793E00E947E01FF91EF91BF91AF91B3
:101790009F918F917F916F915F914F913F912F9189
:1017A0000F900BBE0F900FBE0F901F9018951F92B9
:1017B0000F920FB60F9211240BB60F922F938F93A7
:1017C0009F93EF93FF93E0918B03F0918C038081C3
:1017D000E0919103F091920382FD1DC09081809170
:1017E00094038F5F8F7320919503821741F0E091EE
:1017F0009403F0E0E558FC4F958F80939403FF919C
:10180000EF919F918F912F910F900BBE0F900FBE74
:101810000F901F9018958081F2CF1F920F920FB6F4
:101820000F9211240BB60F922F933F934F935F9318
:101830006F937F938F939F93AF93BF93EF93FF9398
:101840008EED92E00E947E01FF91EF91BF91AF91EA
:101850009F918F917F916F915F914F913F912F91C8
:101860000F900BBE0F900FBE0F901F9018951F92F8
:101870000F920FB60F9211240BB60F922F938F93E6
:101880009F93EF93FF93E091EE02F091EF0280813E
:10189000E091F402F091F50282FD1DC090818091EB
:1018A000F7028F5F8F732091F802821741F0E09169
:1018B000F702F0E0E252FD4F958F8093F702FF911F
:1018C000EF919F918F912F910F900BBE0F900FBEB4
:1018D0000F901F9018958081F2CF10927E03109286
:1018E0007D0348EE53E060E070E040937F03509347
:1018F000800360938103709382038EE092E0909363
:101900007C0380937B032DEC30E03093880320939D
:1019100087032CEC30E030938A032093890328EC72
:1019200030E030938C0320938B0329EC30E030932C
:101930008E0320938D032AEC30E0309390032093A4
:101940008F032EEC30E0309392032093910310929A
:10195000940310929503109296031092970310929D
:10196000E1021092E0024093E2025093E30260939E
:10197000E4027093E5029093DF028093DE0285EC2F
:1019800090E09093EB028093EA0284EC90E09093D5
:10199000ED028093EC0280EC90E09093EF02809354
:1019A000EE0281EC90E09093F1028093F00282ECE1
:1019B00090E09093F3028093F20286EC90E0909393
:1019C000F5028093F4021092F7021092F80210923E
:1019D000F9021092FA021092250410922404109237
:1019E000270410922604109229041092280461E31F
:1019F00070E090E080E00E94F410009709F190936D
:101A000025048093240420E330E0309327042093BE
:101A100026042091280430912904232B11F4FC0181
:101A2000108280E390E090932904809328046CE472
:101A300072E080912404909125040E94DE1114C06C
:101A40008091240490912504009711F00E946B105E
:101A50001092250410922404109229041092280454
:101A600010922704109226048BE793E090931904B8
:101A70008093180482E19CEAA0E2BCE380931A04FC
:101A800090931B04A0931C04B0931D0481E08093E9
:101A90001E048EE980931F0482E08093200488E076
:101AA000809321040895789484B5836084BD85B5BE
:101AB000836085BD80916E00816080936E0082E0BE
:101AC000809381009091810091609093810090912A
:101AD00080009160909380009091B1009460909309
:101AE000B1009091B00091609093B00090919100FE
:101AF00093609093910090919000916090939000EA
:101B000096E890937A001092C100E091EE02F09175
:101B1000EF028083E091EA02F091EB021082E09103
:101B2000EC02F091ED0230E130831092F602E09188
:101B3000F202F091F30226E02083E091F002F091AE
:101B4000F102908198699083E091F002F091F102A6
:101B500090819F7D9083E0911804F0911904A089F1
:101B6000B1898C93A485B5851C92A685B7853C93D5
:101B7000108EA489B5892C93A289B3898C91886928
:101B80008C930288F389E02D80818F7D8083809102
:101B9000180490911904DC01ED91FC910084F18509
:101BA000E02D099560ED77E080E090E00E94CE00A6
:101BB000812C912C54018A94DD24D394C3EED0E07F
:101BC00003EC10E023EAE22E20E0F22E2FB7F89487
:101BD00080918C0290918D02A0918E02B0918F0223
:101BE0002FBF8093870290938802A0938902B093BD
:101BF0008A02409183025091840260918502709123
:101C000086024C505E4F6F4F7F4F481759076A0747
:101C10007B0750F48093830290938402A093850203
:101C2000B09386020E940D0B40918702509188026A
:101C30006091890270918A0280917F029091800266
:101C4000A0918102B091820288519C4FAF4FBF4F4B
:101C500084179507A607B70708F052C040937F0284
:101C60005093800260938102709382020E94FF0E63
:101C7000A50194010E94570F609394020E94FF0EE9
:101C8000A50194010E94570F609395020E94940A47
:101C900030917E023D2530937E02FE019491F80141
:101CA0002491F7018491882359F19923C1F092502E
:101CB0009A30A8F4E92FF0E0E05AF14F0C94BA0FF3
:101CC000A10EA50E6A0E890E6F0E6F0E8D0E930E6D
:101CD000970E9D0E909180009F7790938000E82F43
:101CE000F0E0EE0FFF1FE457FF4FA591B4918FB7BF
:101CF000F8949C9131112CC0209529232C938FBFEF
:101D00006AE070E080E090E00E94CE000E940D0248
:101D10005DCF909180009F7DE0CF9091B0009F7744
:101D20009093B000DCCF9091B0009F7DF9CF90915F
:101D300090009F7790939000D2CF909190009F7DDC
:101D4000F9CF94B59F7794BDCACF94B59F7DFBCF53
:101D5000292BD4CF8091240490912504009711F071
:101D60000C946B1008958F929F92AF92BF92CF9276
:101D7000DF92EF92FF92CF93DF93EC01688179813C
:101D80008A819B81611571058105910521F464E2C9
:101D900079ED8BE597E02DE133EF41E050E00E94D3
:101DA000570F49015A019B01AC01A7EAB1E40E9417
:101DB000760F6B017C01ACEEB4EFA50194010E949B
:101DC000840FC60ED71EE81EF91EF7FE06C081E07E
:101DD000C81AD108E10880E8F80AC882D982EA82E4
:101DE000FB82C701B6019F77DF91CF91FF90EF9003
:101DF000DF90CF90BF90AF909F908F9008958F927B
:101E00009F92AF92BF92CF92DF92EF92FF9260913A
:101E1000000170910101809102019091030161150F
:101E200071058105910521F464E279ED8BE597E078
:101E30002DE133EF41E050E00E94570F49015A0174
:101E40009B01AC01A7EAB1E40E94760F6B017C0113
:101E5000ACEEB4EFA50194010E94840FC60ED71E0C
:101E6000E81EF91EF7FE06C081E0C81AD108E10895
:101E700080E8F80AC0920001D0920101E0920201CC
:101E8000F0920301C701B6019F77FF90EF90DF90BA
:101E9000CF90BF90AF909F908F9008956093000176
:101EA0007093010180930201909303010895052E20
:101EB00097FB1EF400940E946E0F57FD07D00E94FE
:101EC000890F07FC03D04EF40C946E0F509540958B
:101ED000309521953F4F4F4F5F4F089590958095D6
:101EE000709561957F4F8F4F9F4F08950E94AB0F64
:101EF000A59F900DB49F900DA49F800D911D11245E
:101F00000895B7FF0C94760F0E94760F821B930BF7
:101F10000895A1E21A2EAA1BBB1BFD010DC0AA1F2A
:101F2000BB1FEE1FFF1FA217B307E407F50720F042
:101F3000A21BB30BE40BF50B661F771F881F991FBD
:101F40001A9469F760957095809590959B01AC0106
:101F5000BD01CF010895A29FB001B39FC001A39F0F
:101F6000700D811D1124911DB29F700D811D1124D2
:101F7000911D0895EE0FFF1F0024001C0BBE07905B
:101F8000F691E02D09940024A7FD00942A0F301D3E
:101F9000401D501D601D701D801D901D08950F93E4
:101FA0001F93CF93DF938230910510F482E090E08D
:101FB000E0912C04F0912D0430E020E0B0E0A0E0AE
:101FC000309799F42115310509F44AC0281B390BC3
:101FD00024303105D8F58A819B816115710589F11D
:101FE000FB0193838283FE0111C0408151810281F4
:101FF000138148175907E0F04817590799F41097CB
:1020000061F012960C93129713961C933296CF019F
:10201000DF91CF911F910F91089500932C0410939D
:102020002D04F4CF2115310551F04217530738F034
:10203000A901DB019A01BD01DF01F801C1CFEF0168
:10204000F9CF90932D0480932C04CDCFFE01E20FA5
:10205000F31F819391932250310939832883D7CF7D
:1020600020912A0430912B04232B41F42091060166
:102070003091070130932B0420932A04209104010E
:10208000309105012115310541F42DB73EB740913E
:10209000080150910901241B350BE0912A04F091AD
:1020A0002B04E217F307A0F42E1B3F0B2817390768
:1020B00078F0AC014E5F5F4F2417350748F04E0FA4
:1020C0005F1F50932B0440932A04819391939FCFD9
:1020D000F0E0E0E09CCFCF93DF930097E9F0FC01C4
:1020E000329713821282A0912C04B0912D04ED013D
:1020F00030E020E01097A1F420813181820F931FFE
:1021000020912A0430912B042817390709F061C067
:10211000F0932B04E0932A04DF91CF910895EA0114
:10212000CE17DF07E8F54A815B819E014115510515
:10213000B1F7E901FB83EA8349915991C40FD51F97
:10214000EC17FD0761F4808191810296840F951F41
:10215000E90199838883828193819B838A83F0E05C
:10216000E0E012968D919C9113970097B9F52D910F
:102170003C911197CD010296820F931F20912A0462
:1021800030912B042817390739F6309751F5109202
:102190002D0410922C04B0932B04A0932A04BCCFDE
:1021A000D383C28340815181840F951FC817D907FB
:1021B00061F44E5F5F4F88819981480F591F5183A9
:1021C00040838A819B81938382832115310509F0A5
:1021D000B0CFF0932D04E0932C049ECFFD01DC01E1
:1021E000C0CF13821282D7CF4F925F926F927F92AD
:1021F0008F929F92AF92BF92CF92DF92EF92FF9217
:102200000F931F93CF93DF938C01009799F4CB0129
:10221000DF91CF911F910F91FF90EF90DF90CF90C2
:10222000BF90AF909F908F907F906F905F904F90F6
:102230000C94CF0FFC01E60FF71F9C0122503109CF
:10224000E217F30708F4AEC0D901CD91DC911197E4
:10225000C617D70720F1C530D10578F0CE01049715
:102260008617970750F0C61BD70B2297C193D193BF
:102270006D937C93CF010E946B10C801DF91CF91C9
:102280001F910F91FF90EF90DF90CF90BF90AF9094
:102290009F908F907F906F905F904F9008955B011B
:1022A000AC1ABD0A4C018C0E9D1EA0912C04B0915D
:1022B0002D04512C412CF12CE12C109731F58091FB
:1022C0002A0490912B048815990509F05CC04616E4
:1022D000570608F058C080910401909105010097BD
:1022E00041F48DB79EB74091080150910901841BBC
:1022F000950BE817F90708F055C0F0932B04E0930D
:102300002A04F90171836083B8CF8D919C91119754
:1023100012966C90129713967C901397A815B90596
:1023200059F56C0142E0C40ED11CCA14DB0420F143
:10233000AC014A195B09DA011296159780F06282A6
:10234000738251834083D9016D937C93E114F1042E
:1023500071F0D7011396FC93EE9312978ECF2296CD
:102360008C0F9D1FF90191838083F301EFCFF093D0
:102370002D04E0932C0481CF4816590608F42C0153
:102380007D01D3019ACFCB010E94CF0F7C01009732
:1023900049F0AE01B8010E94D511C8010E946B102E
:1023A00087016BCF10E000E068CFFB01DC0102C0C9
:1023B00001900D9241505040D8F70895FB01DC0187
:1023C00001900D920020E1F7089510E0CCE7D0E0F5
:1023D00004C0FE010E94BA0F2196CD37D107C9F77C
:0423E000F894FFCF9F
:1023E4000100000000002E048000982F8A429144CE
:1023F4003771CFFBC0B5A5DBB5E95BC25639F11126
:10240400F159A4823F92D55E1CAB98AA07D8015B10
:102414008312BE853124C37D0C55745DBE72FEB13A
:10242400DE80A706DC9B74F19BC1C1699BE48647EF
:10243400BEEFC69DC10FCCA10C246F2CE92DAA843C
:10244400744ADCA9B05CDA88F97652513E986DC6BC
:1024540031A8C82703B0C77F59BFF30BE0C6479123
:10246400A7D55163CA0667292914850AB7273821D5
:102474001B2EFC6D2C4D130D385354730A65BB0A87
:102484006A762EC9C281852C7292A1E8BFA24B66DE
:102494001AA8708B4BC2A3516CC719E892D12406B9
:1024A40099D685350EF470A06A1016C1A419086C6B
:1024B400371E4C774827B5BCB034B30C1C394AAA34
:1024C400D84E4FCA9C5BF36F2E68EE828F746F6395
:1024D400A5781478C8840802C78CFAFFBE90EB6C08
:1024E40050A4F7A3F9BEF27871C600000000A00161
:1024F40000012D01ED015E013C0150010D0A005364
:10250400656E64696E672054756E6E656C206461D7
:1025140074612E2E2E0053656E64696E67204865C3
:1025240061727462656174732E2E2E00613338619A
:102534003162386239623330373061306163303947
:1025440063393866303365323063656238613865C3
:0E255400613863652C43494275696C64000070
:00000001FF
