:100000000C9447000C9471000C9471000C947100D6
:100010000C9471000C9471000C9471000C9471009C
:100020000C9471000C9471000C9471000C9471008C
:100030000C9471000C9471000C9471000C9471007C
:100040000C9471000C9471000C94BF010C9471001D
:100050000C9433020C9409020C9471000C947100FE
:100060000C9471000C9471000C9471000C9471004C
:100070000C9471000C9471000C9471000C9471003C
:100080000C9471000C9471000C9471003B031124CA
:100090001FBECFEFD0E4DEBFCDBF11E0A0E0B1E0E6
:1000A000EAE2F7E000E00BBF02C007900D92A23336
:1000B000B107D9F721E0A2E3B1E001C01D92AC3D48
:1000C000B207E1F710E0C7E4D0E004C02197FE01D9
:1000D0000E948A03C634D107C9F70E9469020C94B2
:1000E00093030C9400003FB7F89480913B019091EA
:1000F0003C01A0913D01B0913E0126B5A89B05C0F1
:100100002F3F19F00196A11DB11D3FBFBA2FA92F96
:10011000982F8827BC01CD01620F711D811D911D93
:1001200043E0660F771F881F991F4A95D1F70895FE
:10013000AF92BF92CF92DF92EF92FF920F931F93F5
:10014000CF93DF936C017B018B01040F151FEB0133
:100150005E01AE18BF08C017D10759F06991D601EA
:10016000ED91FC910190F081E02DC6010995892B5C
:1001700079F7C501DF91CF911F910F91FF90EF901B
:10018000DF90CF90BF90AF900895FC01538D448DC8
:10019000252F30E0842F90E0821B930B541710F032
:1001A000CF96089501970895FC01918D828D98173F
:1001B00061F0A28DAE0FBF2FB11D5D968C91928D17
:1001C0009F5F9F73928F90E008958FEF9FEF089548
:1001D000FC01918D828D981731F0828DE80FF11D11
:1001E000858D90E008958FEF9FEF0895FC01918D2C
:1001F000228D892F90E0805C9F4F821B91098F7325
:10020000992708958FE391E00E94F60021E0892B61
:1002100009F420E0822F0895FC01A48DA80FB92FC6
:10022000B11DA35ABF4F2C91848D90E001968F731E
:100230009927848FA689B7892C93A089B1898C913D
:10024000837080648C93938D848D981306C002888C
:10025000F389E02D80818F7D80830895EF92FF9256
:100260000F931F93CF93DF93EC0181E0888F9B8DD9
:100270008C8D98131AC0E889F989808185FF15C093
:100280009FB7F894EE89FF896083E889F9898081B6
:100290008370806480839FBF81E090E0DF91CF9185
:1002A0001F910F91FF90EF900895F62E0B8D10E0A7
:1002B0000F5F1F4F0F731127E02E8C8D8E110CC016
:1002C0000FB607FCFACFE889F989808185FFF5CF61
:1002D000CE010E940C01F1CFEB8DEC0FFD2FF11D33
:1002E000E35AFF4FF0829FB7F8940B8FEA89FB899E
:1002F00080818062CFCFCF93DF93EC01888D8823FC
:10030000B9F0AA89BB89E889F9898C9185FD03C078
:10031000808186FD0DC00FB607FCF7CF8C9185FF5D
:10032000F2CF808185FFEDCFCE010E940C01E9CF95
:10033000DF91CF91089580E090E0892B29F00E9411
:10034000020181110E94000080E090E0892B49F0B9
:1003500080E090E0892B29F00E94000081110C942C
:1003600000000895FC0101900020E9F73197AF01EA
:10037000481B590BBC018FE391E00C9498001F922D
:100380000F920FB60F9211242F933F938F939F9349
:10039000AF93BF938091370190913801A0913901BB
:1003A000B0913A013091360126E0230F2D3768F1E4
:1003B00029E8230F0396A11DB11D209336018093D8
:1003C000370190933801A0933901B0933A0180919D
:1003D0003B0190913C01A0913D01B0913E010196FD
:1003E000A11DB11D80933B0190933C01A0933D0161
:1003F000B0933E01BF91AF919F918F913F912F910B
:100400000F900FBE0F901F9018950296A11DB11D61
:10041000D4CF1F920F920FB60F9211240BB60F92EA
:100420002F933F934F935F936F937F938F939F93FC
:10043000AF93BF93EF93FF938FE391E00E940C0182
:10044000FF91EF91BF91AF919F918F917F916F91AC
:100450005F914F913F912F910F900BBE0F900FBE68
:100460000F901F9018951F920F920FB60F921124A4
:100470000BB60F922F938F939F93EF93FF93E0917F
:100480004F01F09150018081E0915501F0915601AA
:1004900082FD1DC09081809158018F5F8F732091E4
:1004A0005901821741F0E0915801F0E0E15CFE4F04
:1004B000958F80935801FF91EF919F918F912F918C
:1004C0000F900BBE0F900FBE0F901F90189580815C
:1004D000F2CFCF93DF93CDB7DEB7A1970FB6F894E5
:1004E000DEBF0FBECDBF789484B5836084BD85B573
:1004F000836085BD80916E00816080936E0092E084
:10050000909381008091810081608093810080912F
:1005100080008160809380008091B100846080932E
:10052000B1008091B00081608093B0008091910013
:10053000836080939100809190008160809390000F
:1005400086E880937A001092C100E0914F01F0910B
:1005500050019083E0914B01F0914C011082E091A9
:100560004D01F0914E0188E0808310925701E09197
:100570005301F091540186E08083E0915101F091A4
:100580005201808188698083E0915101F09152018C
:1005900080818F7D808382E191E00E94B20182E2BE
:1005A00091E00E94B2019AE0492E512C612C712CED
:1005B0002091320130913301409134015091350145
:1005C00019A28E010F5D1F4FCA01B901A30192014B
:1005D0000E946803605DF80162938F012115310567
:1005E0004105510589F7309719F0CF010E94B201FA
:1005F00085E291E00E94B20182E291E00E94B201A4
:100600008091320190913301A0913401B091350174
:100610000196A11DB11D8093320190933301A093E7
:100620003401B09335010E9473004B015C0188EEE8
:10063000C82E83E0D82EE12CF12C0E94730068199B
:1006400079098A099B09683E734081059105A8F3E1
:10065000F1E0CF1AD108E108F10828EE820E23E07C
:10066000921EA11CB11CC114D104E104F10429F7AC
:100670000E949B019DCFEFE3F1E01382128288EE8E
:1006800093E0A0E0B0E084839583A683B78384E001
:1006900091E09183808385EC90E09587848784EC5A
:1006A00090E09787868780EC90E0918B808B81EC3F
:1006B00090E0938B828B82EC90E0958B848B86EC20
:1006C00090E0978B868B118E128E138E148E089568
:1006D000A1E21A2EAA1BBB1BFD010DC0AA1FBB1F46
:1006E000EE1FFF1FA217B307E407F50720F0A21BB8
:1006F000B30BE40BF50B661F771F881F991F1A9425
:1007000069F760957095809590959B01AC01BD014E
:10071000CF010895EE0FFF1F0024001C0BBE0790B1
:0A072000F691E02D0994F894FFCF44
:10072A00000000002E019800C5007B01F600D400ED
:10073A00E8005446554E495041594C4F41443031D6
:10074A0042000D0A002068656C6C6F2D776F726C21
:02075A00640039
:00000001FF
