:100000000C9486000C94B0000C94B0000C94B000DA
:100010000C94B0000C94B0000C94B0000C94B000A0
:100020000C94B0000C94B0000C94B0000C94B00090
:100030000C94B0000C94B0000C94B0000C94B00080
:100040000C94B0000C94B0000C94DF020C94B0003F
:100050000C9453030C9429030C94B0000C94B0003E
:100060000C94B0000C94B0000C94B0000C94B00050
:100070000C94B0000C94B0000C94B0000C94B00040
:100080000C94B0000C94B0000C94B000000021005F
:10009000240027002A0000002200250028002B0051
:1000A00000002000230026002900020202020202B2
:1000B000020204040404040404040303030303030A
:1000C00003030101010101010101010204081020E3
:1000D0004080010204081020408001020408102022
:1000E000408001020408102040800000000203004C
:1000F0000A0B0000000005040908000000000000D1
:1001000000000000000000000000EB0411241FBEEE
:10011000CFEFD0E4DEBFCDBF11E0A0E0B1E0EAE870
:10012000FAE000E00BBF02C007900D92AA36B107BB
:10013000D9F722E0AAE6B1E001C01D92A931B207C9
:10014000E1F710E0C6E8D0E004C02197FE010E946C
:100150003A05C538D107C9F70E9489030C944305B5
:100160000C94000082508A3088F5E82FF0E0E554C6
:10017000FF4F0C943A05E300E700C500CB00E60012
:10018000E600CF00D500D900DF00809180008F7796
:10019000809380000895809180008F7DF9CF8091B9
:1001A000B0008F778093B00008958091B0008F7D6C
:1001B000F9CF809190008F7780939000089580917F
:1001C00090008F7DF9CF84B58F7784BD089584B575
:1001D0008F7DFBCFCF93DF93282F30E0F901E651DD
:1001E000FF4F8491F901E653FF4FD491F901E65591
:1001F000FF4FC491CC23A1F081110E94B200EC2FDB
:10020000F0E0EE0FFF1FE056FF4FA591B491EC9187
:10021000ED2381E090E009F480E0DF91CF91089533
:1002200080E090E0FACF1F93CF93DF93282F30E048
:10023000F901E651FF4F8491F901E653FF4FD49144
:10024000F901E655FF4FC491CC23A9F0162F811177
:100250000E94B200EC2FF0E0EE0FFF1FEA56FF4FB6
:10026000A591B4918FB7F894EC91111108C0D09575
:10027000DE23DC938FBFDF91CF911F910895DE2B9A
:10028000F8CFCF93DF9390E0FC01E653FF4F24912A
:1002900086559F4FFC0184918823D1F090E0880F10
:1002A000991FFC01E457FF4FA591B491FC01EA5658
:1002B000FF4FC591D49161110EC09FB7F8948C91F6
:1002C000E22FE0958E238C932881E223E8839FBF61
:1002D000DF91CF9108958FB7F894EC91E22BEC93D6
:1002E0008FBFF6CFAF92BF92CF92DF92EF92FF9285
:1002F0000F931F93CF93DF936C017B018B01040F4E
:10030000151FEB015E01AE18BF08C017D10759F0E9
:100310006991D601ED91FC910190F081E02DC6012B
:100320000995892B79F7C501DF91CF911F910F9125
:10033000FF90EF90DF90CF90BF90AF900895FC01B9
:10034000538D448D252F30E0842F90E0821B930B3A
:10035000541710F0CF96089501970895FC01918DE0
:10036000828D981761F0A28DAE0FBF2FB11D5D96E3
:100370008C91928D9F5F9F73928F90E008958FEF85
:100380009FEF0895FC01918D828D981731F0828D39
:10039000E80FF11D858D90E008958FEF9FEF089590
:1003A000FC01918D228D892F90E0805C9F4F821BF4
:1003B00091098F73992708958CE791E00E94D001ED
:1003C00021E0892B09F420E0822F0895FC01A48DFF
:1003D000A80FB92FB11DA35ABF4F2C91848D90E067
:1003E00001968F739927848FA689B7892C93A0894A
:1003F000B1898C91837080648C93938D848D9813D4
:1004000006C00288F389E02D80818F7D8083089566
:10041000EF92FF920F931F93CF93DF93EC0181E054
:10042000888F9B8D8C8D98131AC0E889F9898081FB
:1004300085FF15C09FB7F894EE89FF896083E8892E
:10044000F98980818370806480839FBF81E090E020
:10045000DF91CF911F910F91FF90EF900895F62EAD
:100460000B8D10E00F5F1F4F0F731127E02E8C8D47
:100470008E110CC00FB607FCFACFE889F98980818C
:1004800085FFF5CFCE010E94E601F1CFEB8DEC0F99
:10049000FD2FF11DE35AFF4FF0829FB7F8940B8FA9
:1004A000EA89FB8980818062CFCFCF93DF93EC0113
:1004B000888D8823B9F0AA89BB89E889F9898C914C
:1004C00085FD03C0808186FD0DC00FB607FCF7CF08
:1004D0008C9185FFF2CF808185FFEDCFCE010E9408
:1004E000E601E9CFDF91CF91089580E090E0892B7C
:1004F00029F00E94DC0181110E94000080E090E060
:10050000892B49F080E090E0892B29F00E940000BF
:1005100081110C9400000895FC0101900020E9F77E
:100520003197AF01481B590BBC018CE791E00C944B
:1005300072018F929F92AF92BF920F931F93CF93AE
:10054000DF93CDB7DEB7A1970FB6F894DEBF0FBE2D
:10055000CDBF19A2423008F44AE08E010F5D1F4F53
:10056000842E912CB12CA12CA50194010E94180578
:10057000E62FB901CA01EA30F4F4E05DD801EE9348
:100580008D01232B242B252B79F790E080E0109709
:1005900019F0CD010E948C02A1960FB6F894DEBF2F
:1005A0000FBECDBFDF91CF911F910F91BF90AF9044
:1005B0009F908F900895E95CE1CF0C948C021F927C
:1005C0000F920FB60F9211242F933F938F939F9307
:1005D000AF93BF938091780190917901A0917A01B6
:1005E000B0917B013091770126E0230F2D3768F120
:1005F00029E8230F0396A11DB11D20937701809355
:10060000780190937901A0937A01B0937B01809156
:10061000730190917401A0917501B09176010196DA
:10062000A11DB11D8093730190937401A093750176
:10063000B0937601BF91AF919F918F913F912F9190
:100640000F900FBE0F901F9018950296A11DB11D1F
:10065000D4CF1F920F920FB60F9211240BB60F92A8
:100660002F933F934F935F936F937F938F939F93BA
:10067000AF93BF93EF93FF938CE791E00E94E60165
:10068000FF91EF91BF91AF919F918F917F916F916A
:100690005F914F913F912F910F900BBE0F900FBE26
:1006A0000F901F9018951F920F920FB60F92112462
:1006B0000BB60F922F938F939F93EF93FF93E0913D
:1006C0008C01F0918D018081E0919201F091930174
:1006D00082FD1DC09081809195018F5F8F73209165
:1006E0009601821741F0E0919501F0E0E458FE4F49
:1006F000958F80939501FF91EF919F918F912F910D
:100700000F900BBE0F900FBE0F901F901895808119
:10071000F2CFCF93DF9300D000D0CDB7DEB778947F
:1007200084B5836084BD85B5836085BD80916E008E
:10073000816080936E0092E09093810080918100AF
:10074000816080938100809180008160809380002F
:100750008091B10084608093B1008091B00081608D
:100760008093B0008091910083608093910080918C
:10077000900081608093900086E880937A001092C8
:10078000C100E0918C01F0918D019083E09188018E
:10079000F09189011082E0918A01F0918B0188E04B
:1007A000808310929401E0919001F091910186E094
:1007B0008083E0918E01F0918F0180818869808330
:1007C000E0918E01F0918F0180818F7D808361E0C7
:1007D00085E10E94410161E086E10E94410161E002
:1007E00087E10E94410160E08EE10E94410160E0EA
:1007F0008FE10E94410160E087E10E94130161E006
:1008000086E10E94130161E085E10E9413012FB788
:10081000F8948091780190917901A0917A01B0913A
:100820007B012FBF80936F0190937001A0937101A2
:10083000B093720183E291E00E948C028EE391E01A
:100840000E948C02992493948EE10E94EA005C013C
:100850008FE10E94EA008C01A114B10409F0AAC042
:1008600036E9C32ED12C892B19F490E5C92ED12C51
:1008700061E085E10E9413012FB7F894809178011F
:1008800090917901A0917A01B0917B012FBFF12C59
:10089000E12C40906F015090700160907101709058
:1008A00072019C01AD0124193509460957092C151F
:1008B0003D054E055F0508F47AC080936F01909363
:1008C0007001A0937101B093720170906E01672D59
:1008D000692560936E0187E10E941301672D86E10F
:1008E0000E94130180916A0190916B01A0916C01AB
:1008F000B0916D010196A11DB11D80936A01909385
:100900006B01A0936C01B0936D0181E491E00E94B2
:10091000DD0260916A0170916B0180916C01909190
:100920006D014AE00E94990287E491E00E94DD0295
:100930002FB7F894609178017091790180917A01D4
:1009400090917B012FBF28EE33E040E050E00E9401
:100950001805CA01B9014AE00E94990280E591E0B8
:100960000E94DD028AE191E0AB2811F482E191E07E
:100970000E94DD0288E591E00E94DD028AE191E0BB
:10098000012B11F482E191E00E94DD028FE591E0FC
:100990000E94DD024AE0C701B6010E94990287E683
:1009A00091E00E948C028EE391E00E948C020E94F2
:1009B00075024ACF24EFC22EDD24D394892B21F473
:1009C00088EEC82E83E0D82E61E00115110509F4E8
:1009D00050CF60E04ECFECE7F1E01382128288EE58
:1009E00093E0A0E0B0E084839583A683B78384E09E
:1009F00091E09183808385EC90E09587848784ECF7
:100A000090E09787868780EC90E0918B808B81ECDB
:100A100090E0938B828B82EC90E0958B848B86ECBC
:100A200090E0978B868B118E128E138E148E089504
:100A3000A1E21A2EAA1BBB1BFD010DC0AA1FBB1FE2
:100A4000EE1FFF1FA217B307E407F50720F0A21B54
:100A5000B30BE40BF50B661F771F881F991F1A94C1
:100A600069F760957095809590959B01AC01BD01EB
:100A7000CF010895EE0FFF1F0024001C0BBE07904E
:0A0A8000F691E02D0994F894FFCFE1
:100A8A0000000000080272019F015502D001AE0168
:100A9A00C201707265737365640072656C65617317
:100AAA006564005446554E495041594C4F414430B3
:100ABA00312068656C6C6F2D776F726C64000D0A5B
:100ACA00006C696E653D0020757074696D653D0046
:100ADA00732062746E413D002062746E423D0020B4
:0A0AEA00626C696E6B3D006D7300D5
:00000001FF
