:100000000C947F000C94A9000C94A9000C94A900F6
:100010000C94A9000C94A9000C94A9000C94A900BC
:100020000C94A9000C94A9000C94A9000C94A900AC
:100030000C94A9000C94A9000C94A9000C94A9009C
:100040000C94A9000C94A9000C942E0E0C94A900F9
:100050000C94F80B0C942E0C0C94A9000C94A90091
:100060000C94A9000C94A9000C94A9000C94A9006C
:100070000C948F0C0C94C50C0C94A9000C94A90042
:100080000C94A9000C94A9000C94A9000000000293
:1000900003000A0B0000000005040908000000002E
:1000A0000000000000000000000000000102040841
:1000B0001020408001020408102040800102040842
:1000C0001020408001020408102040800202020239
:1000D00002020202040404040404040403030303EC
:1000E00003030303010101010101010100002200DA
:1000F000250028002B00AF0A620CF90CBB0A112462
:100100001FBECFEFD0E4DEBFCDBF13E0A0E0B1E073
:10011000E4E7F5E200E00BBF02C007900D92A434C3
:10012000B107D9F724E0A4E4B3E001C01D92A43FD5
:10013000B207E1F710E0CEE7D0E004C02197FE015E
:100140000E94BC0FCB37D107C9F70E941F0E0C9439
:10015000AD120C940000FB019081892790E1899FEA
:1001600090011124822790E0382F2227AC0163E010
:10017000440F551F6A95E1F724273527418150E048
:100180002427352774E0959587957A95E1F782279E
:1001900093279183808308952F923F924F925F928D
:1001A0006F927F928F929F92AF92BF92CF92DF9287
:1001B000EF92FF920F931F93CF93DF93CDB7DEB7EC
:1001C000CA58D1400FB6F894DEBF0FBECDBF1C0198
:1001D000CF59DE4F79836883C156D140C95BDE4F6A
:1001E000288339834A835B83C754D140DC01CD9097
:1001F000DD90ED90FC90DA01C90113E0880F991FA2
:10020000AA1FBB1F1A95D1F78C0D9D1DAE1DBF1DDA
:10021000F10180839183A283B3838C159D05AE0584
:10022000BF0558F484819581A681B7810196A11DEF
:10023000B11D84839583A683B783A3E0F694E794E6
:10024000D794C794AA95D1F7FFE3CF22DD24EE24FB
:10025000FF248101085D1F4FC957DE4F19830883B2
:10026000C758D1408E010F5B1E4FCF5BDE4F198305
:100270000883C154D140C95BDE4F488059806A80F1
:100280007B80C754D140411451046104710409F4C6
:100290009BC480E490E0A0E0B0E08C199D09AE0919
:1002A000BF095301420184159505A605B70510F451
:1002B0004C015D01C957DE4F88819981C758D140F3
:1002C0008C0D9D1DA401CF59DE4F68817981C156E7
:1002D000D1400E949512C80CD91CEA1CFB1CCF59B6
:1002E000DE4F68807980C156D140680C791CCF59A7
:1002F000DE4F79826882C156D140C95BDE4F4880AB
:1003000059806A807B80C754D140481859086A08D0
:100310007B08C95BDE4F488259826A827B82C75460
:10032000D14000E4C016D104E104F10409F0A3CFE8
:10033000C957DE4F88819981C758D1408E010F5F20
:100340001E4FF801DC0113962C911397208312960F
:100350002C911297218311962C91119722832C9125
:10036000238304963496CF5BDE4F48805980C15476
:10037000D1404E165F0631F7D1011896CD90DD9031
:10038000ED90FC901B97CD59DE4FC882D982EA824E
:10039000FB82C356D1401C964D905D906D907C9031
:1003A0001F97C959DE4F488259826A827B82C7569D
:1003B000D14050964D905D906D907C905397C5596B
:1003C000DE4F488259826A827B82CB56D140549656
:1003D0004D905D906D907C905797C159DE4F48824B
:1003E00059826A827B82CF56D14058964D905D905B
:1003F0006D907C905B97CD58DE4F488259826A821F
:100400007B82C357D1405C964D905D906D907C90FF
:100410005F97C958DE4F488259826A827B82C757EC
:10042000D14090964D905D906D907C909397C5587B
:10043000DE4F488259826A827B82CB57D1409496A4
:100440004D905D906D907C909797C158DE4F48829B
:1004500059826A827B82CF57D1409E012F5F3F4FE6
:10046000CD5ADE4F39832883C355D140C901D80105
:100470004D915D916D917D918D01DC014D935D9369
:100480006D937D93CD01E017F10789F7CD5ADE4FCB
:1004900048805980C355D140B0EC4B0E511CCD5A09
:1004A000DE4F68807980C355D140CD5BDE4F7982C5
:1004B0006882C354D140F30180AD91ADA2ADB3AD1C
:1004C0000481158126813781F4E06F0E711C6C0167
:1004D0007D014FE0CC0CDD1CEE1CFF1C4A95D1F7D2
:1004E000AC01BD01E1E17695679557954795EA9591
:1004F000D1F7C42AD52AE62AF72AAC01BD01FDE0CE
:10050000440F551F661F771FFA95D1F74C015D0107
:10051000E3E1B694A79497948794EA95D1F7482994
:1005200059296A297B294C255D256E257F25FAE00E
:10053000B695A79597958795FA95D1F7842795272E
:10054000A627B727CD5BDE4FE881F981C354D140A0
:1005500044A155A166A177A1C080D180E280F3803B
:100560004C0D5D1D6E1D7F1D840F951FA61FB71FAF
:100570006801790147E0F694E794D794C7944A95C7
:10058000D1F7B901A801E9E1440F551F661F771F94
:10059000EA95D1F7C42AD52AE62AF72AB901A80193
:1005A000FEE0440F551F661F771FFA95D1F74801EB
:1005B0005901E2E1B694A79497948794EA95D1F70C
:1005C000482959296A297B294C255D256E257F25D7
:1005D000F3E03695279517950795FA95D1F74027BB
:1005E000512762277327840F951FA61FB71FF3019A
:1005F00084AF95AFA6AFB7AF4614570409F055CFF7
:100600000EEF11E0C757DE4F19830883C958D14058
:10061000C159DE4F288139814A815B81CF56D14053
:10062000CD57DE4F288339834A835B83C358D1403B
:10063000C559DE4F88819981AA81BB81CB56D140B3
:10064000C15BDE4F88839983AA83BB83CF54D1409B
:10065000C959DE4F488059806A807B80C756D14097
:10066000C55BDE4F488259826A827B82CB54D1407F
:10067000CD59DE4F488159816A817B81C356D14073
:10068000C558DE4FC880D980EA80FB80CB57D14067
:10069000C75ADE4FC882D982EA82FB82C955D1404F
:1006A000C958DE4FE880F9800A811B81C757D140C5
:1006B000CB5ADE4FE882F9820A831B83C555D140AD
:1006C000C158DE4F088119812A813B81CF57D14023
:1006D000CD5BDE4F088319832A833B83C354D1400B
:1006E000CD58DE4F88819981AA81BB81C357D14003
:1006F000C757DE4FE881F981C958D140E190F190A8
:1007000001911191C757DE4FF983E883C958D14051
:10071000C35ADE4FE882F9820A831B83CD55D1404C
:10072000CD5ADE4FE881F981C355D1408190919037
:10073000A190B190CD5ADE4FF983E883C355D140E3
:100740002C013D012AE1440C551C661C771C2A959E
:10075000D1F78C019D01E6E0369527951795079511
:10076000EA95D1F7402A512A622A732A8C019D0109
:10077000F5E1000F111F221F331FFA95D1F76C010D
:100780007D01EBE0F694E794D794C794EA95D1F70E
:100790000C291D292E293F29042515252625372515
:1007A0002C013D01F9E17694679457944794FA95AA
:1007B000D1F76C017D01E7E0CC0CDD1CEE1CFF1CC9
:1007C000EA95D1F7C428D528E628F7280C251D2559
:1007D0002E253F25C35ADE4F488059806A807B8092
:1007E000CD55D140840C951CA61CB71C080D191DB5
:1007F0002A1D3B1D4C015D0180949094A094B094FF
:10080000C75ADE4FC880D980EA80FB80C955D140E5
:100810008C209D20AE20BF20CB5ADE4FC880D980CF
:10082000EA80FB80C555D140C822D922EA22FB22AA
:100830008C249D24AE24BF24800E911EA21EB31EC4
:10084000CD5BDE4FE880F9800A811B81C354D14023
:100850008E0C9F1CA01EB11ECD57DE4F0881198142
:100860002A813B81C358D140080D191D2A1D3B1D0B
:10087000C35ADE4F088319832A833B83CD55D14069
:100880006A017B01FEE1CC0CDD1CEE1CFF1CFA951D
:10089000D1F78A019B01E2E03695279517950795D8
:1008A000EA95D1F7280139014C285D286E287F2868
:1008B0008A019B01F3E1000F111F221F331FFA95DC
:1008C000D1F76A017B01EDE0F694E794D794C794E1
:1008D000EA95D1F70C291D292E293F290425152534
:1008E000262537252A013B01F6E176946794579433
:1008F0004794FA95D1F76A017B01EAE0CC0CDD1C44
:10090000EE1CFF1CEA95D1F74C285D286E287F2845
:1009100073016201C026D126E226F326CD5BDE4FAD
:10092000C882D982EA82FB82C354D140C55BDE4FC4
:10093000088119812A813B81CB54D140C15BDE4FB4
:10094000488059806A807B80CF54D140042515258A
:10095000262537250423152326233723C55BDE4FA1
:10096000C880D980EA80FB80CB54D140C420D520F8
:10097000E620F7200C251D252E253F25CD5BDE4FDB
:10098000C880D980EA80FB80C354D1400C0D1D1D66
:100990002E1D3F1D080D191D2A1D3B1DC75ADE4F78
:1009A000488059806A807B80C955D140CD5BDE4F3D
:1009B000488259826A827B82C354D140C15BDE4F38
:1009C000C880D980EA80FB80CF54D140CD57DE4F1C
:1009D000C882D982EA82FB82C358D140FEEFEF2E53
:1009E000F2E0FF2EC757DE4FE881F981C958D140A8
:1009F000EE16FF0609F0ADC0CD59DE4F4880598094
:100A00006A807B80C356D140040D151D261D371DFD
:100A1000F1010087118722873387C959DE4F48804B
:100A200059806A807B80C756D140440D551D661D94
:100A3000771D4487558766877787C559DE4F48817C
:100A400059816A817B81CB56D140C55BDE4F48809E
:100A500059806A807B80CB54D140440D551D661D62
:100A6000771D408B518B628B738BC159DE4F488150
:100A700059816A817B81CF56D140C15BDE4F48806E
:100A800059806A807B80CF54D140440D551D661D2E
:100A9000771D448B558B668B778BCD58DE4F488105
:100AA00059816A817B81C357D140C35ADE4F488048
:100AB00059806A807B80CD55D140440D551D661DFF
:100AC000771D408F518F628F738FC958DE4F4880DA
:100AD00059806A807B80C757D140840D951DA61D23
:100AE000B71D848F958FA68FB78FC558DE4F88812D
:100AF0009981AA81BB81CB57D140CB5ADE4F488028
:100B000059806A807B80C555D140840D951DA61DF6
:100B1000B71D80A391A3A2A3B3A3C158DE4F8881C0
:100B20009981AA81BB81CF57D140C75ADE4F4880F7
:100B300059806A807B80C955D140840D951DA61DC2
:100B4000B71D84A395A3A6A3B7A3C12CD12C76016E
:100B500092CBC55BDE4F488059806A807B80CB5446
:100B6000D140C15BDE4F488259826A827B82CF547A
:100B7000D140C55BDE4F488359836A837B83CB5466
:100B8000D140B901A801CB5ADE4FC880D980EA8094
:100B9000FB80C555D140C75ADE4FC882D982EA8250
:100BA000FB82C955D140CB5ADE4F88839983AA83F3
:100BB000BB83C555D140C35ADE4F88819981AA8134
:100BC000BB81CD55D14094CDC657DE4F0FB6F894BA
:100BD000DEBF0FBECDBFDF91CF911F910F91FF9070
:100BE000EF90DF90CF90BF90AF909F908F907F90CD
:100BF0006F905F904F903F902F900895EF92FF92EB
:100C00000F931F93CF93DF93CDB7DEB7C854D109AD
:100C10000FB6F894DEBF0FBECDBF8C017B01FC0187
:100C200080819181A281B381AC01BD0123E07695E1
:100C30006795579547952A95D1F74F73552727E71D
:100C400030E0241B350B2F73332740E84983BE0166
:100C50006E5F7F4F47E4FB0111924A95E9F7AE01C1
:100C6000420F531FFA0181879087A783B683F8014B
:100C70005481458196818781DE01A20FB31F1596AD
:100C80005C93DE01A20FB31F14964C93DE01A20FFA
:100C9000B31F13969C93FB01E20FF31F8083275F22
:100CA0003F4F50E040E061507109C8010E94CC0004
:100CB000F8018385F7018083F8018285F70181833C
:100CC000F8018185F7018283F8018085F70183832C
:100CD000F8018785F7018483F8018685F70185830C
:100CE000C85BDF4F0FB6F894DEBF0FBECDBFDF91FC
:100CF000CF911F910F91FF90EF9008953F924F92E7
:100D00005F926F927F928F929F92AF92BF92CF929B
:100D1000DF92EF92FF920F931F93CF93DF93CDB7A4
:100D2000DEB7CC57D1090FB6F894DEBF0FBECDBFEA
:100D30006C013E2C80915003582F527081FD1DC0D4
:100D4000E0915203F0915303309731F080812DE010
:100D5000522E11E080FD02C0512C10E08DEFF60103
:100D600082833C96E00FF11D8291811103C00150F6
:100D70000130D1F78AE0482E09C08EEFD6011296D5
:100D80008C93022F512C96E0492E10E0D601139639
:100D90000C93139717966C93179718964C93189774
:100DA00011114CC014961C92D60115961C921597E1
:100DB00080914B0316968C93169780914B038F5F0F
:100DC00080934B0312968C911297AA968FAFAA9795
:100DD00013968C911397AB968FAFAB9719968D9115
:100DE0009D91AC91F60136812781552359F1AC963E
:100DF0003FAFAC97AD962FAFAD97AE964FAFAE97D6
:100E0000AF968FAFAF97A42CB12C8FEF9FEF9A8343
:100E10008983CE0187599F4F7C014C018A0C9B1C12
:100E20009FEFE91AF90A8E149F0439F1BE016F5F32
:100E30007F4FD7018C910E94AB00F2CF81E0F60189
:100E40008483B2CF5481AC965FAFAC975581AD9699
:100E50005FAFAD97AE963FAFAE97AF962FAFAF9760
:100E6000E0964FAFE097E1968FAFE197E2969FAFA4
:100E7000E297E396AFAFE397C6CF89819A81ED966B
:100E80009FAF8EAFED97F6016380712C7601FCE089
:100E9000EF0EF11C470181E0681A7108BE01655828
:100EA0007F4F9FEF6916790631F0D4018D914D0186
:100EB0000E94AB00F0CF832D0E94AB00EC969FAD5B
:100EC000EC97ED968FADED97D6011396EC911397B5
:100ED000EE0DFF2DF11D90831396EC911397EE0DFF
:100EE000FF2DF11D81839C9311968C9311971123F3
:100EF00009F4E6C000915203109153030115110546
:100F000009F4DEC0F801808180FFDAC013967C907E
:100F100081814601FAEE8F1AFEEF9F0AD4018C936D
:100F2000F8018281E4968FAFE4978381E5968FAFD5
:100F3000E5978481E6968FAFE6978581E7968FAF38
:100F4000E7978681E8968FAFE8978781E9968FAF1C
:100F5000E9978085EA968FAFEA978185EB968FAF08
:100F6000EB9786E0FE01ED58FF4F119601900D9230
:100F70008A95E1F7D80112962C91129713963C911D
:100F8000139714964C91149715965C911597169695
:100F90006C91169717967C91179718968C911897C5
:100FA00019969C91A1E00E94D00FF801228333830F
:100FB00044835583668377838087918719821A8259
:100FC0001B821C821D821E821F82188687E696EE77
:100FD000A9E0BAE689879A87AB87BC8785E89EEA4D
:100FE000A7E6BBEB8D879E87AF87B88B82E793EF31
:100FF000AEE6BCE3898B9A8BAB8BBC8B8AE395EF17
:10100000AFE4B5EA8D8B9E8BAF8BB88F8FE792E5FF
:10101000AEE0B1E5898F9A8FAB8FBC8F8CE898E6F4
:10102000A5E0BBE98D8F9E8FAF8FB8A38BEA99EDBA
:10103000A3E8BFE189A39AA3ABA3BCA389E19DEC7C
:10104000A0EEBBE58DA39EA3AFA3B8A7B801665FD2
:101050007F4F20E230E040E050E0CE0101960E9458
:10106000CC00242D30E050E040E0BE0167597F4FB6
:10107000CE0101960E94CC00272D30E050E040E0E8
:10108000B701CE0101960E94CC00B701670D711D1A
:1010900022E030E040E050E0CE0101960E94CC001A
:1010A00027E030E040E050E0B401CE0101960E941C
:1010B000CC00B601635E7E4FCE0101960E94FE0514
:1010C000D60113968C918A0D9B2D911D0296850D4C
:1010D000911DC458DF4F0FB6F894DEBF0FBECDBFD1
:1010E000DF91CF911F910F91FF90EF90DF90CF9004
:1010F000BF90AF909F908F907F906F905F904F9038
:101100003F900895AF92BF92DF92EF92FF920F93BC
:101110001F93CF93DF93EC018B01FB01D38082817E
:10112000645F7F4F8E3F09F459C0ED2CF12CFB0119
:10113000EE0DFF1DDE2C91E09E1538F49701215035
:1011400031099291992309F463C08883D982F80107
:1011500084818A8385818B8386818C8387818D833B
:1011600080858E8381858F8381859285A3859887ED
:1011700081859285A385A987A701CE010A960E9441
:101180009512FAE0EF0EF11CCE0DDF1DF8018481FF
:1011900099E0F92E80FF3AC08DE0F80190819883A4
:1011A00091819983A82EB12C882341F0B8016A5E01
:1011B0007E4FA501CE0102960E949512C5018F0DAA
:1011C000911D03968D0D911DDF91CF911F910F9170
:1011D000FF90EF90DF90BF90AF9008958883D98201
:1011E00086818A8387818B8380858C8381858D83AB
:1011F000438150E0CE0106960E949512F80183814A
:1012000090E00696C80FD91F25E0F22E80E0C5CFEA
:10121000790190CFFC017183608382E19CEAA0E2B6
:10122000BCE382839383A483B58381E086838EE9C4
:10123000878382E0808788E081870895CF93DF935A
:10124000EC0126E040E051EE60E070E08881998199
:101250000E94A60B88819981DC01ED91FC910084AC
:10126000F185E02D099521E0181619060CF020E013
:10127000822FDF91CF910895CF92DF92EF920F935B
:10128000CF93DF93CDB7DEB7CB53D2400FB6F894F0
:10129000DEBF0FBECDBF6C016AE071E08DEA93E066
:1012A0000E94660DF60181859085478166811D86C5
:1012B0001E861F86188A998B8A8B1B8A83E08C8BEB
:1012C0008D8B1A861B861C8682E3E82E09E029E0B6
:1012D000CE0101960E947E06BE016F5F7F4FCE0158
:1012E0008C5D9E4F0E948208F601A081B181ED9134
:1012F000FC9111970280F381E02DAC01BE016C5D81
:101300007E4FCD010995C55CDD4F0FB6F894DEBF69
:101310000FBECDBFDF91CF910F91EF90DF90CF90B7
:101320000895AF92BF92CF92DF92EF92FF920F9308
:101330001F93CF93DF93CDB7DEB7CB53D2400FB619
:10134000F894DEBF0FBECDBF6C015B01F42E122FEF
:1013500067EE71E08DEA93E00E94660DD601179664
:101360004C91179716966C91212F30E0CC5DDE4F93
:1013700039832883C452D140CA5DDE4F0883C652E8
:10138000D140C95DDE4FE882C752D140C85DDE4F13
:10139000F882C852D14080E8A114B10409F04AC0D3
:1013A000E4E2F1E0EC0FFD1F3596DF011D928A9516
:1013B000E9F785E8FE01EC5DFE4FDE011D96019028
:1013C0000D928A95E1F781E891E0A0E08A879B87FA
:1013D000AC8783E9E82E05E825E8CE0101960E9456
:1013E0007E06BE016F5F7F4FCE018C5D9E4F0E94D7
:1013F0008208F601A081B181ED91FC9111970280E4
:10140000F381E02DAC01BE016C5D7E4FCD010995ED
:10141000C55CDD4F0FB6F894DEBF0FBECDBFDF91C8
:10142000CF911F910F91FF90EF90DF90CF90BF90E1
:10143000AF900895F501A4E2B1E0AC0FBD1F159681
:1014400001900D928A95E1F7B4CF26E040E051EE8D
:1014500060E070E08DEA93E00E94A60B8BE993E0D8
:101460000E941E0960ED77E080E090E00C94A90EE8
:10147000EF920F931F930E94780E609397037093DF
:1014800098038093990390939A030091930310918A
:10149000940320919503309196030C501E4F2F4FCB
:1014A0003F4F061717072807390760F46093930327
:1014B0007093940380939503909396038BE993E044
:1014C0000E943C09409197035091980360919903C1
:1014D00070919A0380918F0390919003A091910352
:1014E000B091920388519C4FAF4FBF4F841795071F
:1014F000A607B70758F540938F0350939003609366
:101500009103709392036FEF70E080E090E00E948F
:101510007D0D60938C036FEF70E080E090E00E949F
:101520007D0D60938D03E12C00E020E042E06CE84B
:1015300073E08BE993E00E94910960918E0381E052
:10154000682760938E038DE00E944C0F6AE070E084
:1015500080E090E01F910F91EF900C94A90E6EEF38
:1015600072E087EA93E00E94090E6AE474E08BE976
:1015700093E00C940A0987EA93E00C94970DFC0120
:10158000918D228D892F90E0805C9F4F821B910965
:101590008F7399270895FC01918D828D981731F0F2
:1015A000828DE80FF11D858D90E008958FEF9FEFFC
:1015B0000895FC01918D828D981761F0A28DAE0F78
:1015C000BF2FB11D5D968C91928D9F5F9F73928FFF
:1015D00090E008958FEF9FEF0895FC01538D448DA7
:1015E000252F30E0842F90E0821B930B541710F0CE
:1015F000CF9608950197089588E59CE0892B49F0DE
:1016000080E090E0892B29F00E94580C81110E9403
:1016100000008FEE9CE0892B49F080E090E0892B60
:1016200029F00E94EF0C81110C9400000895FC0138
:10163000A48DA80FB92FB11DA35ABF4F2C91848D33
:1016400090E001968F739927848FA689B7892C9390
:10165000A089B1898C91837080648C93938D848DE3
:10166000981306C00288F389E02D80818F7D8083E6
:101670000895CF93DF93EC01888D8823B9F0AA8970
:10168000BB89E889F9898C9185FD03C0808186FD3D
:101690000DC00FB607FCF7CF8C9185FFF2CF80818C
:1016A00085FFEDCFCE010E94170BE9CFDF91CF91DF
:1016B0000895EF92FF920F931F93CF93DF93EC0166
:1016C00081E0888F9B8D8C8D98131AC0E889F989E9
:1016D000808185FF15C09FB7F894EE89FF896083EC
:1016E000E889F98980818370806480839FBF81E06D
:1016F00090E0DF91CF911F910F91FF90EF900895AF
:10170000F62E0B8D10E00F5F1F4F0F731127E02E89
:101710008C8D8E110CC00FB607FCFACFE889F989C1
:10172000808185FFF5CFCE010E94170BF1CFEB8DA5
:10173000EC0FFD2FF11DE35AFF4FF0829FB7F89495
:101740000B8FEA89FB8980818062CFCFCF92DF92B5
:10175000EF92FF921F93CF93DF93EC016A017B011D
:10176000122F60E874E88EE190E0A70196010E94D4
:101770007B0F2150310941095109569547953795FD
:101780002795E889F98982E08083211580E138076F
:1017900098F0E889F989108260E472E48FE090E0C3
:1017A000A70196010E947B0F21503109410951097F
:1017B0005695479537952795EC85FD853083EE85C1
:1017C000FF852083188EEC89FD891083EA89FB89C7
:1017D000808188698083EA89FB8980818F7D80830D
:1017E000DF91CF911F91FF90EF90DF90CF90089500
:1017F0001F920F920FB60F9211240BB60F922F93D8
:101800008F939F93EF93FF93E091BD03F091BE03FD
:101810008081E091C303F091C40382FD1DC09081DB
:101820008091C6038F5F8F732091C703821741F0A9
:10183000E091C603F0E0E355FC4F958F8093C6031B
:10184000FF91EF919F918F912F910F900BBE0F9071
:101850000FBE0F901F9018958081F2CF1F920F92AC
:101860000FB60F9211240BB60F922F933F934F9305
:101870005F936F937F938F939F93AF93BF93EF93F8
:10188000FF938DEA93E00E94170BFF91EF91BF91B8
:10189000AF919F918F917F916F915F914F913F9108
:1018A0002F910F900BBE0F900FBE0F901F901895A9
:1018B0008DEA93E00E94BF0A21E0892B09F420E021
:1018C000822F0895EDEAF3E01382128288EE93E00E
:1018D000A0E0B0E084839583A683B78383E393E09D
:1018E0009183808385EC90E09587848784EC90E0F9
:1018F0009787868780EC90E0918B808B81EC90E0DD
:10190000938B828B82EC90E0958B848B86EC90E0BD
:10191000978B868B118E128E138E148E08951F92C4
:101920000F920FB60F9211240BB60F922F938F9335
:101930009F93EF93FF93E0915A04F0915B048081B1
:10194000E0916004F091610482FD1DC0908180915E
:1019500063048F5F8F7320916404821741F0E091DC
:101960006304F0E0E65BFB4F958F80936304FF9187
:10197000EF919F918F912F910F900BBE0F900FBE03
:101980000F901F9018958081F2CF1F920F920FB683
:101990000F9211240BB60F922F933F934F935F93A7
:1019A0006F937F938F939F93AF93BF93EF93FF9327
:1019B0008AE494E00E94170BFF91EF91BF91AF91E1
:1019C0009F918F917F916F915F914F913F912F9157
:1019D0000F900BBE0F900FBE0F901F9018958AE4CA
:1019E00094E00E94BF0A21E0892B09F420E0822FB5
:1019F0000895EAE4F4E01382128288EE93E0A0E016
:101A0000B0E084839583A683B78383E393E09183D7
:101A100080838DEC90E0958784878CEC90E09787AD
:101A2000868788EC90E0918B808B89EC90E0938B9B
:101A3000828B8AEC90E0958B848B8EEC90E0978B78
:101A4000868B118E128E138E148E0895AF92BF92D4
:101A5000CF92DF92EF92FF920F931F93CF93DF937A
:101A60006C017B018B01040F151FEB015E01AE18A9
:101A7000BF08C017D10759F06991D601ED91FC91CB
:101A80000190F081E02DC6010995892B79F7C501F8
:101A9000DF91CF911F910F91FF90EF90DF90CF904A
:101AA000BF90AF900895FB0101900020E9F73197B6
:101AB000AF01461B570BDC01ED91FC910280F381D5
:101AC000E02D099461E473E00C94530D0F931F9380
:101AD000CF93DF938C01D0E0C0E06115710519F060
:101AE0000E94530DEC01C8010E94620D8C0F9D1FD6
:101AF000DF91CF911F910F910895CF92DF92EF92D6
:101B0000FF926B017C01C114D104E104F10441F0A6
:101B10000E945C11A70196010E949D0F6B017C0140
:101B2000C701B601FF90EF90DF90CF900895FC01C0
:101B300080819181009711F00C9487100895CF93C4
:101B4000DF93EC0188819981009711F00E94871042
:101B5000198218821D821C821B821A82DF91CF910A
:101B600008950F931F93CF93DF93EC018B016F5F69
:101B70007F4F888199810E94B411009751F0998319
:101B800088831B830A8381E0DF91CF911F910F919E
:101B9000089580E0F9CFCF93DF93EC01888199819C
:101BA000892B49F08A819B818617970720F081E075
:101BB000DF91CF910895CE010E94B10D8823C1F32A
:101BC0008C819D81892B99F7E881F9811082EFCF73
:101BD000EF92FF920F931F93CF93DF93EC017B0162
:101BE0008A01BA010E94CB0D81110BC0CE010E9467
:101BF0009F0DCE01DF91CF911F910F91FF90EF903C
:101C000008951D830C83B701888199810E949E12DB
:101C1000F0CFFC011182108213821282158214828D
:101C20006115710551F0FB0101900020E9F7319732
:101C3000AF01461B570B0C94E80D089508950E94C0
:101C4000E20E0E941E0E0E94250ACCEFDAE00E94EE
:101C5000380A2097E1F30E94FC0AF9CF1F920F92F5
:101C60000FB60F9211242F933F938F939F93AF93AF
:101C7000BF938091EC049091ED04A091EE04B0919B
:101C8000EF043091EB0426E0230F2D3768F129E8AB
:101C9000230F0396A11DB11D2093EB048093EC0448
:101CA0009093ED04A093EE04B093EF048091E704C9
:101CB0009091E804A091E904B091EA040196A11D75
:101CC000B11D8093E7049093E804A093E904B093D6
:101CD000EA04BF91AF919F918F913F912F910F9007
:101CE0000FBE0F901F9018950296A11DB11DD4CF65
:101CF0002FB7F8946091EC047091ED048091EE049C
:101D00009091EF042FBF08953FB7F8948091E704B6
:101D10009091E804A091E904B091EA0426B5A89B4B
:101D200005C02F3F19F00196A11DB11D3FBFBA2F6D
:101D3000A92F982F8827BC01CD01620F711D811D2D
:101D4000911D43E0660F771F881F991F4A95D1F7B1
:101D500008958F929F92AF92BF92CF92DF92EF92AF
:101D6000FF926B017C010E94840E4B015C01C11447
:101D7000D104E104F104E9F00E947A0F0E94840E7C
:101D8000681979098A099B09683E734081059105A4
:101D900070F321E0C21AD108E108F10888EE880E3C
:101DA00083E0981EA11CB11CC114D104E104F1040C
:101DB00029F7FF90EF90DF90CF90BF90AF909F906A
:101DC0008F900895789484B5836084BD85B58360D1
:101DD00085BDEEE6F0E0808181608083E1E8F0E09F
:101DE00082E08083808181608083E0E8F0E0808110
:101DF00081608083E1EBF0E0808184608083E0EBB0
:101E0000F0E0808181608083E1E9F0E0808183609F
:101E10008083E0E9F0E080818160808386E88093C0
:101E20007A001092C100089582508A3088F5E82F18
:101E3000F0E0E35EF04F0C94BC0F450F490F270F05
:101E40002D0F480F480F310F370F3B0F410F809177
:101E500080008F77809380000895809180008F7D2F
:101E6000F9CF8091B0008F778093B0000895809172
:101E7000B0008F7DF9CF809190008F778093900094
:101E80000895809190008F7DF9CF84B58F7784BDC0
:101E9000089584B58F7DFBCF1F93CF93DF93282FB9
:101EA00030E0F901E457FF4F8491F901E455FF4F09
:101EB000D491F901E453FF4FC491CC23A9F0162F1C
:101EC00081110E94140FEC2FF0E0EE0FFF1FE45180
:101ED000FF4FA591B4918FB7F894EC91111108C000
:101EE000D095DE23DC938FBFDF91CF911F910895B2
:101EF000DE2BF8CF0895A1E21A2EAA1BBB1BFD0111
:101F00000DC0AA1FBB1FEE1FFF1FA217B307E407D8
:101F1000F50720F0A21BB30BE40BF50B661F771F30
:101F2000881F991F1A9469F7609570958095909510
:101F30009B01AC01BD01CF010895052E97FB1EF456
:101F400000940E94B40F57FD07D00E947B0F07FC3E
:101F500003D04EF40C94B40F5095409530952195D4
:101F60003F4F4F4F5F4F08959095809570956195C5
:101F70007F4F8F4F9F4F0895EE0FFF1F0024001CCF
:101F80000BBE0790F691E02D09940E94DC0FA59FEF
:101F9000900DB49F900DA49F800D911D1124089564
:101FA0000024A7FD00942A0F301D401D501D601D08
:101FB000701D801D901D0895A29FB001B39FC001A8
:101FC000A39F700D811D1124911DB29F700D811D65
:101FD0001124911D08950F931F93CF93DF938230A7
:101FE000910510F482E090E0E091F204F091F304A6
:101FF00030E020E0B0E0A0E0309799F42115310501
:1020000009F44AC0281B390B24303105D8F58A81E0
:102010009B816115710589F1FB0193838283FE0128
:1020200011C0408151810281138148175907E0F0A6
:102030004817590799F4109761F012960C9312976C
:1020400013961C933296CF01DF91CF911F910F9180
:1020500008950093F2041093F304F4CF2115310591
:1020600051F04217530738F0A901DB019A01BD0175
:10207000DF01F801C1CFEF01F9CF9093F304809312
:10208000F204CDCFFE01E20FF31F81939193225012
:10209000310939832883D7CF2091F0043091F1049E
:1020A000232B41F420910201309103013093F1047C
:1020B0002093F00420910001309101012115310598
:1020C00041F42DB73EB74091040150910501241B06
:1020D000350BE091F004F091F104E217F307A0F45E
:1020E0002E1B3F0B2817390778F0AC014E5F5F4F6E
:1020F0002417350748F04E0F5F1F5093F1044093AB
:10210000F004819391939FCFF0E0E0E09CCFCF93D8
:10211000DF930097E9F0FC01329713821282A091BD
:10212000F204B091F304ED0130E020E01097A1F447
:1021300020813181820F931F2091F0043091F104AE
:102140002817390709F061C0F093F104E093F00417
:10215000DF91CF910895EA01CE17DF07E8F54A81B4
:102160005B819E0141155105B1F7E901FB83EA83CB
:1021700049915991C40FD51FEC17FD0761F4808177
:1021800091810296840F951FE9019983888382814A
:1021900093819B838A83F0E0E0E012968D919C917D
:1021A00013970097B9F52D913C911197CD010296A7
:1021B000820F931F2091F0043091F1042817390702
:1021C00039F6309751F51092F3041092F204B0935F
:1021D000F104A093F004BCCFD383C283408151812A
:1021E000840F951FC817D90761F44E5F5F4F888130
:1021F0009981480F591F518340838A819B81938322
:1022000082832115310509F0B0CFF093F304E093F8
:10221000F2049ECFFD01DC01C0CF13821282D7CF22
:102220008F929F92AF92BF92CF92DF92EF92FF92E6
:10223000CF93DF93EC01688179818A819B8161155D
:1022400071058105910521F464E279ED8BE597E054
:102250002DE133EF41E050E00E949D0F49015A010A
:102260009B01AC01A7EAB1E40E94C50F6B017C01A0
:10227000ACEEB4EFA50194010E94A812C60ED71EC1
:10228000E81EF91EF7FE06C081E0C81AD108E10871
:1022900080E8F80AC882D982EA82FB82C701B601C7
:1022A0009F77DF91CF91FF90EF90DF90CF90BF901D
:1022B000AF909F908F9008958F929F92AF92BF9210
:1022C000CF92DF92EF92FF92609106017091070129
:1022D00080910801909109016115710581059105B1
:1022E00021F464E279ED8BE597E02DE133EF41E0F5
:1022F00050E00E949D0F49015A019B01AC01A7EAE1
:10230000B1E40E94C50F6B017C01ACEEB4EFA501F6
:1023100094010E94A812C60ED71EE81EF91EF7FEF1
:1023200006C081E0C81AD108E10880E8F80AC09226
:102330000601D0920701E0920801F0920901C7015D
:10234000B6019F77FF90EF90DF90CF90BF90AF9056
:102350009F908F900895609306017093070180937A
:1023600008019093090108954F925F926F927F92B6
:102370008F929F92AF92BF92CF92DF92EF92FF9295
:102380000F931F93CF93DF938C01009799F4CB01A8
:10239000DF91CF911F910F91FF90EF90DF90CF9041
:1023A000BF90AF909F908F907F906F905F904F9075
:1023B0000C94EB0FFC01E60FF71F9C012250310932
:1023C000E217F30708F4AEC0D901CD91DC91119763
:1023D000C617D70720F1C530D10578F0CE01049794
:1023E0008617970750F0C61BD70B2297C193D1933E
:1023F0006D937C93CF010E948710C801DF91CF912C
:102400001F910F91FF90EF90DF90CF90BF90AF9012
:102410009F908F907F906F905F904F9008955B0199
:10242000AC1ABD0A4C018C0E9D1EA091F204B09115
:10243000F304512C412CF12CE12C109731F58091B3
:10244000F0049091F1048815990509F05CC04616D6
:10245000570608F058C08091000190910101009743
:1024600041F48DB79EB74091040150910501841B42
:10247000950BE817F90708F055C0F093F104E093C5
:10248000F004F90171836083B8CF8D919C9111970D
:1024900012966C90129713967C901397A815B90515
:1024A00059F56C0142E0C40ED11CCA14DB0420F1C2
:1024B000AC014A195B09DA011296159780F0628225
:1024C000738251834083D9016D937C93E114F104AD
:1024D00071F0D7011396FC93EE9312978ECF22964C
:1024E0008C0F9D1FF90191838083F301EFCFF0934F
:1024F000F304E093F20481CF4816590608F42C0146
:102500007D01D3019ACFCB010E94EB0F7C01009794
:1025100049F0AE01B8010E949512C8010E948710CF
:1025200087016BCF10E000E068CFFB01DC0102C047
:1025300001900D9241505040D8F70895FB01DC0105
:1025400001900D920020E1F70895B7FF0C94C50F9C
:102550000E94C50F821B930B089510E0CEE7D0E0D8
:1025600004C0FE010E94BC0F2196CF37D107C9F7E6
:04257000F894FFCF0D
:102574000000F40480000100000053656E64696E7D
:102584006720486561727462656174732E2E2E0033
:10259400486561727462656174732073656E742139
:1025A400204E6F772077696C6C20636865636B20BD
:1025B400666F72207265636965766564206865611B
:1025C4007274626561747320746F207265636F72D4
:1025D4006420737973696420616E6420636F6D7025
:1025E40069642E2E2E004D657373616765205061FA
:1025F4007273696E6720446F6E6521007379736925
:102604006420616E6420636F6D7069642073756308
:102614006365737366756C6C79207265636F72643D
:10262400656400526571756573742073656E7421F9
:10263400204E6F7720796F75206172652072656115
:10264400647920746F2072656369657665206461BE
:102654007461732E2E2E0053656E64696E67205468
:10266400756E6E656C20646174612E2E2E00982F39
:102674008A4291443771CFFBC0B5A5DBB5E95BC293
:102684005639F111F159A4823F92D55E1CAB98AA38
:1026940007D8015B8312BE853124C37D0C55745D5C
:1026A400BE72FEB1DE80A706DC9B74F19BC1C169DA
:1026B4009BE48647BEEFC69DC10FCCA10C246F2CB2
:1026C400E92DAA84744ADCA9B05CDA88F9765251FF
:1026D4003E986DC631A8C82703B0C77F59BFF30B16
:1026E400E0C64791A7D55163CA0667292914850A0C
:1026F400B72738211B2EFC6D2C4D130D3853547302
:102704000A65BB0A6A762EC9C281852C7292A1E839
:10271400BFA24B661AA8708B4BC2A3516CC719E8B1
:1027240092D1240699D685350EF470A06A1016C18C
:10273400A419086C371E4C774827B5BCB034B30CC9
:102744001C394AAAD84E4FCA9C5BF36F2E68EE829E
:102754008F746F63A5781478C8840802C78CFAFF55
:10276400BE90EB6C50A4F7A3F9BEF27871C6316346
:10277400343437366232383434363363333539637C
:102784006366636333633232363364616430323197
:102794006232653636352C43494275696C640000F3
:1027A400000000590B260DED0A390BBF0AD90ACBDC
:0427B4000A0D0A0000
:00000001FF
