:020000040000FA
:100000000C947F000C94A9000C94A9000C94A900F6
:100010000C94A9000C94A9000C94A9000C94A900BC
:100020000C94A9000C94A9000C94A9000C94A900AC
:100030000C94A9000C94A9000C94A9000C94A9009C
:100040000C94A9000C94A9000C948C140C94A90095
:100050000C9456120C948C120C94A9000C94A900C8
:100060000C94A9000C94A9000C94A9000C94A9006C
:100070000C94ED120C9423130C94A9000C94A90079
:100080000C94A9000C94A9000C94A9000000000293
:1000900003000A0B0000000005040908000000002E
:1000A0000000000000000000000000000102040841
:1000B0001020408001020408102040800102040842
:1000C0001020408001020408102040800202020239
:1000D00002020202040404040404040403030303EC
:1000E00003030303010101010101010100002200DA
:1000F000250028002B000D11C012571319111124CF
:100100001FBECFEFD0E4DEBFCDBF1CE0A0E0B1E06A
:10011000EAE6F2E300E00BBF02C007900D92AE36B4
:10012000B107D9F722E1AEE6BCE001C01D92AA3AC0
:10013000B207E1F710E0CEE7D0E004C02197FE015E
:100140000E941A16CB37D107C9F70E947D140C9470
:1001500028190C940000FB019081892790E1899F68
:1001600090011124822790E0382F2227AC0163E010
:10017000440F551F6A95E1F724273527418150E048
:100180002427352774E0959587957A95E1F782279E
:1001900093279183808308952F923F924F925F928D
:1001A0006F927F928F929F92AF92BF92CF92DF9287
:1001B000EF92FF920F931F93CF93DF93CDB7DEB7EC
:1001C000CA58D1400FB6F894DEBF0FBECDBF1C0198
:1001D000CF59DE4F79836883C156D140C95BDE4F6A
:1001E000288339834A835B83C754D140DC01CD9097
:1001F000DD90ED90FC90DA01C90113E0880F991FA2
:10020000AA1FBB1F1A95D1F78C0D9D1DAE1DBF1DDA
:10021000F10180839183A283B3838C159D05AE0584
:10022000BF0558F484819581A681B7810196A11DEF
:10023000B11D84839583A683B783A3E0F694E794E6
:10024000D794C794AA95D1F7FFE3CF22DD24EE24FB
:10025000FF248101085D1F4FC957DE4F19830883B2
:10026000C758D1408E010F5B1E4FCF5BDE4F198305
:100270000883C154D140C95BDE4F488059806A80F1
:100280007B80C754D140411451046104710409F4C6
:100290009BC480E490E0A0E0B0E08C199D09AE0919
:1002A000BF095301420184159505A605B70510F451
:1002B0004C015D01C957DE4F88819981C758D140F3
:1002C0008C0D9D1DA401CF59DE4F68817981C156E7
:1002D000D1400E940919C80CD91CEA1CFB1CCF593B
:1002E000DE4F68807980C156D140680C791CCF59A7
:1002F000DE4F79826882C156D140C95BDE4F4880AB
:1003000059806A807B80C754D140481859086A08D0
:100310007B08C95BDE4F488259826A827B82C75460
:10032000D14000E4C016D104E104F10409F0A3CFE8
:10033000C957DE4F88819981C758D1408E010F5F20
:100340001E4FF801DC0113962C911397208312960F
:100350002C911297218311962C91119722832C9125
:10036000238304963496CF5BDE4F48805980C15476
:10037000D1404E165F0631F7D1011896CD90DD9031
:10038000ED90FC901B97CD59DE4FC882D982EA824E
:10039000FB82C356D1401C964D905D906D907C9031
:1003A0001F97C959DE4F488259826A827B82C7569D
:1003B000D14050964D905D906D907C905397C5596B
:1003C000DE4F488259826A827B82CB56D140549656
:1003D0004D905D906D907C905797C159DE4F48824B
:1003E00059826A827B82CF56D14058964D905D905B
:1003F0006D907C905B97CD58DE4F488259826A821F
:100400007B82C357D1405C964D905D906D907C90FF
:100410005F97C958DE4F488259826A827B82C757EC
:10042000D14090964D905D906D907C909397C5587B
:10043000DE4F488259826A827B82CB57D1409496A4
:100440004D905D906D907C909797C158DE4F48829B
:1004500059826A827B82CF57D1409E012F5F3F4FE6
:10046000CD5ADE4F39832883C355D140C901D80105
:100470004D915D916D917D918D01DC014D935D9369
:100480006D937D93CD01E017F10789F7CD5ADE4FCB
:1004900048805980C355D140B0EC4B0E511CCD5A09
:1004A000DE4F68807980C355D140CD5BDE4F7982C5
:1004B0006882C354D140F30180AD91ADA2ADB3AD1C
:1004C0000481158126813781F4E06F0E711C6C0167
:1004D0007D014FE0CC0CDD1CEE1CFF1C4A95D1F7D2
:1004E000AC01BD01E1E17695679557954795EA9591
:1004F000D1F7C42AD52AE62AF72AAC01BD01FDE0CE
:10050000440F551F661F771FFA95D1F74C015D0107
:10051000E3E1B694A79497948794EA95D1F7482994
:1005200059296A297B294C255D256E257F25FAE00E
:10053000B695A79597958795FA95D1F7842795272E
:10054000A627B727CD5BDE4FE881F981C354D140A0
:1005500044A155A166A177A1C080D180E280F3803B
:100560004C0D5D1D6E1D7F1D840F951FA61FB71FAF
:100570006801790147E0F694E794D794C7944A95C7
:10058000D1F7B901A801E9E1440F551F661F771F94
:10059000EA95D1F7C42AD52AE62AF72AB901A80193
:1005A000FEE0440F551F661F771FFA95D1F74801EB
:1005B0005901E2E1B694A79497948794EA95D1F70C
:1005C000482959296A297B294C255D256E257F25D7
:1005D000F3E03695279517950795FA95D1F74027BB
:1005E000512762277327840F951FA61FB71FF3019A
:1005F00084AF95AFA6AFB7AF4614570409F055CFF7
:1006000008E11BE0C757DE4F19830883C958D14062
:10061000C159DE4F288139814A815B81CF56D14053
:10062000CD57DE4F288339834A835B83C358D1403B
:10063000C559DE4F88819981AA81BB81CB56D140B3
:10064000C15BDE4F88839983AA83BB83CF54D1409B
:10065000C959DE4F488059806A807B80C756D14097
:10066000C55BDE4F488259826A827B82CB54D1407F
:10067000CD59DE4F488159816A817B81C356D14073
:10068000C558DE4FC880D980EA80FB80CB57D14067
:10069000C75ADE4FC882D982EA82FB82C955D1404F
:1006A000C958DE4FE880F9800A811B81C757D140C5
:1006B000CB5ADE4FE882F9820A831B83C555D140AD
:1006C000C158DE4F088119812A813B81CF57D14023
:1006D000CD5BDE4F088319832A833B83C354D1400B
:1006E000CD58DE4F88819981AA81BB81C357D14003
:1006F000C757DE4FE881F981C958D140E190F190A8
:1007000001911191C757DE4FF983E883C958D14051
:10071000C35ADE4FE882F9820A831B83CD55D1404C
:10072000CD5ADE4FE881F981C355D1408190919037
:10073000A190B190CD5ADE4FF983E883C355D140E3
:100740002C013D012AE1440C551C661C771C2A959E
:10075000D1F78C019D01E6E0369527951795079511
:10076000EA95D1F7402A512A622A732A8C019D0109
:10077000F5E1000F111F221F331FFA95D1F76C010D
:100780007D01EBE0F694E794D794C794EA95D1F70E
:100790000C291D292E293F29042515252625372515
:1007A0002C013D01F9E17694679457944794FA95AA
:1007B000D1F76C017D01E7E0CC0CDD1CEE1CFF1CC9
:1007C000EA95D1F7C428D528E628F7280C251D2559
:1007D0002E253F25C35ADE4F488059806A807B8092
:1007E000CD55D140840C951CA61CB71C080D191DB5
:1007F0002A1D3B1D4C015D0180949094A094B094FF
:10080000C75ADE4FC880D980EA80FB80C955D140E5
:100810008C209D20AE20BF20CB5ADE4FC880D980CF
:10082000EA80FB80C555D140C822D922EA22FB22AA
:100830008C249D24AE24BF24800E911EA21EB31EC4
:10084000CD5BDE4FE880F9800A811B81C354D14023
:100850008E0C9F1CA01EB11ECD57DE4F0881198142
:100860002A813B81C358D140080D191D2A1D3B1D0B
:10087000C35ADE4F088319832A833B83CD55D14069
:100880006A017B01FEE1CC0CDD1CEE1CFF1CFA951D
:10089000D1F78A019B01E2E03695279517950795D8
:1008A000EA95D1F7280139014C285D286E287F2868
:1008B0008A019B01F3E1000F111F221F331FFA95DC
:1008C000D1F76A017B01EDE0F694E794D794C794E1
:1008D000EA95D1F70C291D292E293F290425152534
:1008E000262537252A013B01F6E176946794579433
:1008F0004794FA95D1F76A017B01EAE0CC0CDD1C44
:10090000EE1CFF1CEA95D1F74C285D286E287F2845
:1009100073016201C026D126E226F326CD5BDE4FAD
:10092000C882D982EA82FB82C354D140C55BDE4FC4
:10093000088119812A813B81CB54D140C15BDE4FB4
:10094000488059806A807B80CF54D140042515258A
:10095000262537250423152326233723C55BDE4FA1
:10096000C880D980EA80FB80CB54D140C420D520F8
:10097000E620F7200C251D252E253F25CD5BDE4FDB
:10098000C880D980EA80FB80C354D1400C0D1D1D66
:100990002E1D3F1D080D191D2A1D3B1DC75ADE4F78
:1009A000488059806A807B80C955D140CD5BDE4F3D
:1009B000488259826A827B82C354D140C15BDE4F38
:1009C000C880D980EA80FB80CF54D140CD57DE4F1C
:1009D000C882D982EA82FB82C358D140F8E1EF2E67
:1009E000FCE0FF2EC757DE4FE881F981C958D1409E
:1009F000EE16FF0609F0ADC0CD59DE4F4880598094
:100A00006A807B80C356D140040D151D261D371DFD
:100A1000F1010087118722873387C959DE4F48804B
:100A200059806A807B80C756D140440D551D661D94
:100A3000771D4487558766877787C559DE4F48817C
:100A400059816A817B81CB56D140C55BDE4F48809E
:100A500059806A807B80CB54D140440D551D661D62
:100A6000771D408B518B628B738BC159DE4F488150
:100A700059816A817B81CF56D140C15BDE4F48806E
:100A800059806A807B80CF54D140440D551D661D2E
:100A9000771D448B558B668B778BCD58DE4F488105
:100AA00059816A817B81C357D140C35ADE4F488048
:100AB00059806A807B80CD55D140440D551D661DFF
:100AC000771D408F518F628F738FC958DE4F4880DA
:100AD00059806A807B80C757D140840D951DA61D23
:100AE000B71D848F958FA68FB78FC558DE4F88812D
:100AF0009981AA81BB81CB57D140CB5ADE4F488028
:100B000059806A807B80C555D140840D951DA61DF6
:100B1000B71D80A391A3A2A3B3A3C158DE4F8881C0
:100B20009981AA81BB81CF57D140C75ADE4F4880F7
:100B300059806A807B80C955D140840D951DA61DC2
:100B4000B71D84A395A3A6A3B7A3C12CD12C76016E
:100B500092CBC55BDE4F488059806A807B80CB5446
:100B6000D140C15BDE4F488259826A827B82CF547A
:100B7000D140C55BDE4F488359836A837B83CB5466
:100B8000D140B901A801CB5ADE4FC880D980EA8094
:100B9000FB80C555D140C75ADE4FC882D982EA8250
:100BA000FB82C955D140CB5ADE4F88839983AA83F3
:100BB000BB83C555D140C35ADE4F88819981AA8134
:100BC000BB81CD55D14094CDC657DE4F0FB6F894BA
:100BD000DEBF0FBECDBFDF91CF911F910F91FF9070
:100BE000EF90DF90CF90BF90AF909F908F907F90CD
:100BF0006F905F904F903F902F900895EF92FF92EB
:100C00000F931F93CF93DF93CDB7DEB7C854D109AD
:100C10000FB6F894DEBF0FBECDBF8C017B01FC0187
:100C200080819181A281B381AC01BD0123E07695E1
:100C30006795579547952A95D1F74F73552727E71D
:100C400030E0241B350B2F73332740E84983BE0166
:100C50006E5F7F4F47E4FB0111924A95E9F7AE01C1
:100C6000420F531FFA0181879087A783B683F8014B
:100C70005481458196818781DE01A20FB31F1596AD
:100C80005C93DE01A20FB31F14964C93DE01A20FFA
:100C9000B31F13969C93FB01E20FF31F8083275F22
:100CA0003F4F50E040E061507109C8010E94CC0004
:100CB000F8018385F7018083F8018285F70181833C
:100CC000F8018185F7018283F8018085F70183832C
:100CD000F8018785F7018483F8018685F70185830C
:100CE000C85BDF4F0FB6F894DEBF0FBECDBFDF91FC
:100CF000CF911F910F91FF90EF9008950F931F9345
:100D0000CF93DF9300D0CDB7DEB78C01862FF801EB
:100D1000208131813A832983BE016F5F7F4F0E941A
:100D2000AB0089819A81F801918380830F900F90A5
:100D3000DF91CF911F910F9108953F924F925F9253
:100D40006F927F928F929F92AF92BF92CF92DF92DB
:100D5000EF92FF920F931F93CF93DF93CDB7DEB740
:100D6000CC57D1090FB6F894DEBF0FBECDBF6C01D2
:100D70003E2C80910611582F527081FD1DC0E091CC
:100D80000811F0910911309731F080812DE0522E39
:100D900011E080FD02C0512C10E08DEFF60182833E
:100DA0003C96E00FF11D8291811103C0015001308A
:100DB000D1F78AE0482E09C08EEFD60112968C93A7
:100DC000022F512C96E0492E10E0D60113960C9379
:100DD000139717966C93179718964C9318971111B1
:100DE0004CC014961C92D60115961C9215978091B2
:100DF000011116968C931697809101118F5F809345
:100E0000011112968C911297AA968FAFAA971396FA
:100E10008C911397AB968FAFAB9719968D919D914F
:100E2000AC91F60136812781552359F1AC963FAF3D
:100E3000AC97AD962FAFAD97AE964FAFAE97AF963E
:100E40008FAFAF97A42CB12C8FEF9FEF9A8389833C
:100E5000CE0187599F4F7C014C018A0C9B1C9FEF50
:100E6000E91AF90A8E149F0439F1BE016F5F7F4FB2
:100E7000D7018C910E94AB00F2CF81E0F601848310
:100E8000B2CF5481AC965FAFAC975581AD965FAF52
:100E9000AD97AE963FAFAE97AF962FAFAF97E096B8
:100EA0004FAFE097E1968FAFE197E2969FAFE29761
:100EB000E396AFAFE397C6CF89819A81ED969FAF56
:100EC0008EAFED97F6016380712C7601FCE0EF0E9A
:100ED000F11C470181E0681A7108BE0165587F4F17
:100EE0009FEF6916790631F0D4018D914D010E9472
:100EF000AB00F0CF832D0E94AB00EC969FADEC973A
:100F0000ED968FADED97D6011396EC911397EE0DFC
:100F1000FF2DF11D90831396EC911397EE0DFF2D8D
:100F2000F11D81839C9311968C931197112309F4E1
:100F3000E6C000910811109109110115110509F47D
:100F4000DEC0F801808180FFDAC013967C90818139
:100F50004601FAEE8F1AFEEF9F0AD4018C93F80136
:100F60008281E4968FAFE4978381E5968FAFE59712
:100F70008481E6968FAFE6978581E7968FAFE797F6
:100F80008681E8968FAFE8978781E9968FAFE997DA
:100F90008085EA968FAFEA978185EB968FAFEB97C6
:100FA00086E0FE01ED58FF4F119601900D928A9553
:100FB000E1F7D80112962C91129713963C91139752
:100FC00014964C91149715965C91159716966C9102
:100FD000169717967C91179718968C9118971996D3
:100FE0009C91A1E00E942E16F80122833383448352
:100FF0005583668377838087918719821A821B8243
:101000001C821D821E821F82188687E696EEA9E04A
:10101000BAE689879A87AB87BC8785E89EEAA7E608
:10102000BBEB8D879E87AF87B88B82E793EFAEE6E9
:10103000BCE3898B9A8BAB8BBC8B8AE395EFAFE4D7
:10104000B5EA8D8B9E8BAF8BB88F8FE792E5AEE0C4
:10105000B1E5898F9A8FAB8FBC8F8CE898E6A5E0BD
:10106000BBE98D8F9E8FAF8FB8A38BEA99EDA3E874
:10107000BFE189A39AA3ABA3BCA389E19DECA0EE39
:10108000BBE58DA39EA3AFA3B8A7B801665F7F4F52
:1010900020E230E040E050E0CE0101960E94CC001A
:1010A000242D30E050E040E0BE0167597F4FCE0173
:1010B00001960E94CC00272D30E050E040E0B701BF
:1010C000CE0101960E94CC00B701670D711D22E090
:1010D00030E040E050E0CE0101960E94CC0027E0D5
:1010E00030E040E050E0B401CE0101960E94CC0017
:1010F000B601635E7E4FCE0101960E94FE05D601C9
:1011000013968C918A0D9B2D911D0296850D911D34
:10111000C458DF4F0FB6F894DEBF0FBECDBFDF91CE
:10112000CF911F910F91FF90EF90DF90CF90BF90E4
:10113000AF909F908F907F906F905F904F903F9077
:101140000895AF92BF92DF92EF92FF920F931F9399
:10115000CF93DF93EC018B01FB01D3808281645F2D
:101160007F4F8E3F09F459C0ED2CF12CFB01EE0DA1
:10117000FF1DDE2C91E09E1538F4970121503109B6
:101180009291992309F463C08883D982F8018481FC
:101190008A8385818B8386818C8387818D838085FB
:1011A0008E8381858F8381859285A38598878185AC
:1011B0009285A385A987A701CE010A960E940919E5
:1011C000FAE0EF0EF11CCE0DDF1DF801848199E0ED
:1011D000F92E80FF3AC08DE0F801908198839181CB
:1011E0009983A82EB12C882341F0B8016A5E7E4F06
:1011F000A501CE0102960E940919C5018F0D911D0E
:1012000003968D0D911DDF91CF911F910F91FF904E
:10121000EF90DF90BF90AF9008958883D982868148
:101220008A8387818B8380858C8381858D834381AD
:1012300050E0CE0106960E940919F801838190E0E2
:101240000696C80FD91F25E0F22E80E0C5CF7901A0
:1012500090CF2F923F924F925F926F927F928F9298
:101260009F92AF92BF92CF92DF92EF92FF920F9335
:101270001F93CF93DF93CDB7DEB7C858D1090FB610
:10128000F894DEBF0FBECDBF3C014B01F42ECC570E
:10129000DF4F39832883C458D040CE57DF4F19839E
:1012A0000883C258D040DB011C9213968D919C910B
:1012B00014978131910560F5FC01EF59F64F0C94BC
:1012C0001A16720972090F0A2A0A440A4D0A560AA6
:1012D0005F0A680A820A910AA10ABA0A4D0B4D0BED
:1012E000AA0BAA0BBDEF4B1388C082E090E0FB0174
:1012F00094838383D30113961C92139712964C9375
:10130000129784858E7F84878FEF9FEF8D939C93B8
:10131000D4018C918130A9F4F301868116968C93C7
:10132000169718968D919C911997009721F41B960A
:101330001C921E921A970196D40119969C938E9333
:101340001897F3018381CC57DF4FA881B981C45826
:10135000D04013968C93F40183819481CE57DF4F54
:10136000A881B981C258D04014969C938E9313974C
:10137000858115968C93159786818F5F16968C9331
:1013800016978085918519969C938E9318978281E4
:1013900090E01B969C938E931A9784851C968C9351
:1013A00012828081823069F4F301EC5EFE4F80810D
:1013B0009181CC57DF4FE881F981C458D0409183A7
:1013C0008083D4018C91C857DF4F0FB6F894DEBFED
:1013D0000FBECDBFDF91CF911F910F91FF90EF9086
:1013E000DF90CF90BF90AF909F908F907F906F9045
:1013F0005F904F903F902F900895BEEF4B13A1CF79
:1014000082E090E0FB0194838383D30113961C92C6
:10141000139712964C9312978485816074CFF301D1
:10142000438315961C92642FC3010E947E06F4012B
:10143000848580FF0BC0D30114961C9214971596D7
:101440001C9285E090E09483838362CF83E090E0F8
:10145000F401F9CFD30114964C93842F8E7F41F081
:10146000FB0182818F5F8283108281E090E0EBCF6D
:10147000642FC3010E947E0684E090E0D40114969C
:101480009C938E93139744CFF3014583642FC3013C
:101490000E947E0685E090E0F1CFF3014683642F41
:1014A000C3010E947E0686E090E0E8CFF301478307
:1014B000642FC3010E947E0687E090E0DFCFF30136
:1014C0004087642FC3010E947E0688E090E0D6CF5B
:1014D000842F90E0A0E0F30181879287A387642F97
:1014E000C3010E947E06D4011C968C9180FF07C028
:1014F000F30183818823D9F18BE090E0BFCF89E0AD
:1015000090E0BCCFF30181859285A385942B8187E0
:101510009287A387642FC3010E947E068AE090E031
:10152000ADCFF30181859285A385A42B8187928716
:10153000A387642FC3010E947E06D30113968C916A
:10154000D9CF1596EC91159781E08E0F15968C9357
:10155000E60DF72DF11D4487642FC3010E947E061E
:10156000F4019581D30113968C919813D1CE8CE020
:1015700090E06ECFF30181859285A385AC016A2F3F
:1015800070E008EE10E020E030E0A12CB12C650105
:10159000FAE0EF2ED601C501800F911FA21FB31FE5
:1015A0000196A11DB11DB695A79597958795E89EC3
:1015B000F001E99EF00D1124E250FE4F20803180B1
:1015C00042805380421553056405750590F58C01E2
:1015D0009D010150110921093109A016B106C20669
:1015E000D306C0F28AE08A9DF0018B9DF00D112494
:1015F000E250FE4F80819181A281B38183010C5E14
:101600001E4F481759076A077B07D9F46481C30145
:101610000E947E06D3018D919C919927F816190698
:10162000C1F48DE090E0D40114969C938E931397AF
:1016300015C05C016D01241635064606570690F666
:10164000CCCF8EE090E0F40194838383D801FC92A8
:101650005FCE8EE090E0F40194838383F801F08202
:10166000D40115968C919AE09A9DF0019B9DF00D06
:101670001124E250FE4F4681841708F049CE50E015
:1016800090E0481B590B70E060E09301245F3F4FEE
:10169000820F931F0E9412193BCE0E9731F0F30177
:1016A000818190E048171906C1F082E0D4018C9343
:1016B000F301EB5EFE4FF082D30114968C9180FF14
:1016C00016C0F4018081823061F480E190E094835F
:1016D00083838DE0F40185871BCE81E0FB0180834D
:1016E000E7CF8FE090E0948383831082F2CFD40120
:1016F0001E96ED91FC91309749F022A533A5211556
:101700003105B9F4F4018081823001F581E090E087
:10171000F4019483838383E291E0F301CC57DF4F9C
:10172000A881B981C458D04001900D920197E1F78A
:10173000EFCDF30181859285A385AC016A2F70E01E
:10174000C401F90109958111E1CFDCCF83E0D40117
:101750008C93DCCF1D968C911D97EDE0F0E0E81B9B
:10176000F109E60DF71DEA5EFE4F40831D968C9150
:101770001D9781501D968C931D978111C9CD1E9682
:101780004D905C901F9781E04114510409F4EEC123
:101790005096ED91FC91C058DF4FF983E883C05813
:1017A000D04019821A821B821C821D821E821F82D7
:1017B000188687E696EEA9E0BAE689879A87AB870E
:1017C000BC8785E89EEAA7E6BBEB8D879E87AF873F
:1017D000B88B82E793EFAEE6BCE3898B9A8BAB8B39
:1017E000BC8B8AE395EFAFE4B5EA8D8B9E8BAF8B14
:1017F000B88F8FE792E5AEE0B1E5898F9A8FAB8F16
:10180000BC8F8CE898E6A5E0BBE98D8F9E8FAF8FEB
:10181000B8A38BEA99EDA3E8BFE189A39AA3ABA390
:10182000BCA389E19DECA0EEBBE58DA39EA3AFA375
:10183000B8A720E230E040E050E0B201665F7F4FA1
:10184000CE0101960E94CC002AE030E040E050E05A
:10185000B3016E5F7F4FCE0101960E94CC00D30191
:1018600013962C9130E050E040E0B301645F7F4F6D
:10187000CE0101960E94CC0022E030E040E050E032
:10188000B3016C5E7E4FCE0101960E94CC008301B5
:101890000A5E1E4F27E030E040E050E0B801CE0184
:1018A00001960E94CC00BE0167587F4FCE01019681
:1018B0000E94FE0546E050E0B301635E7E4FCE011C
:1018C00087589F4F0E94FC18892BD9F082E090E046
:1018D000F20195A784A7D4011E96ED91FC9122A553
:1018E00033A580E02115310509F440C1F30181855C
:1018F0009285A385AC016A2F70E0C401F9010995B6
:1019000035C1D801BC91C158DF4FB883CF57D04003
:10191000E2961FAEE297E3961FAEE397E4961FAE02
:10192000E497E5961FAEE597E6961FAEE697E79635
:101930001FAEE797E8961FAEE897E9961FAEE997C6
:10194000F301E95EFE4FCA57DF4FF983E883C658BB
:10195000D04086E0DE01AF58BF4F01900D928A95CE
:10196000E1F7C058DF4F28813981C058D040211598
:10197000310519F1D9018D919C91F901312C212C5E
:1019800082159305E9F0D30117963C9117972381AF
:1019900032130EC018963C912481321309C0228163
:1019A000C158DF4FB881CF57D040B21709F4E9C012
:1019B0002FEF221A320A3996E3CF83E090E088CFE6
:1019C000409740F084E090E0D2019D969C938E93E6
:1019D0009C9781CFE2962FADE297E3963FADE397D8
:1019E000E4964FADE497E5965FADE597E6966FAD6B
:1019F000E697E7967FADE797E8968FADE897E9968B
:101A00009FADE99720583247444A5F4F6F4F7F4F51
:101A10008F4F9F4FF201A280B380C480D580E680B3
:101A2000F780008511850E943A1618F485E090E051
:101A300050CFD30117968C91179799E0929DF001A2
:101A4000939DF00D1124C058DF4F28813981C05873
:101A5000D040E20FF31F838318968C918483C15882
:101A6000DF4F3881CF57D0403283C1010196C05833
:101A7000DF4FA881B981C058D0408D939C9389E0F5
:101A8000829DD001839DB00D11241596C058DF4F63
:101A9000E881F981C058D040AE0FBF1F86E0CA5719
:101AA000DF4FE881F981C658D04001900D928A95A8
:101AB000E1F7E2962FACE297E3963FACE397E4962A
:101AC000FFADE497C058DF4FF883C058D040E5968B
:101AD000AFADE597C158DF4FA883CF57D040E6960A
:101AE000BFADE697E796AFADE797E896EFADE8971D
:101AF000CA57DF4FE883C658D040E996FFADE99753
:101B0000C857DF4FF883C858D040F201A280B38095
:101B1000C480D580E680F780008511859101C0588A
:101B2000DF4F4881C058D040C158DF4F5881CF5750
:101B3000D0406B2F7A2FCA57DF4F8881C658D040CC
:101B4000C857DF4F9881C858D0400E943A1649F0D4
:101B500040F02282338244835583B683A7838087F3
:101B6000918781E090E0F20195A784A7D4011396B4
:101B70002D913C9114972031310509F069C082E024
:101B8000E7CDAA961FAEAA97AB961FAEAB97AC96C1
:101B90001FAEAC97AD961FAEAD97AE961FAEAE978B
:101BA000AF961FAEAF97E0961FAEE097E1961FAEDF
:101BB000E19789E0829DF001839DF00D1124359617
:101BC000C058DF4F28813981C058D040E20FF31F41
:101BD00086E0DE01A759BF4F01900D928A95E1F78B
:101BE000E2962FADE297E3963FADE397E4964FADD3
:101BF000E497E5965FADE597E6966FADE697E796D5
:101C00007FADE797AA96AFACAA97AB96BFACAB9760
:101C1000AC96CFACAC97AD96DFACAD97AE96EFACD3
:101C2000AE97AF96FFACAF97E0960FADE097E19619
:101C30001FADE197E8968FADE897E9969FADE997DC
:101C40000E943A1611F008F01ACF86E090E0BCCE60
:101C5000882309F47BCD81E0F401808357CDFC011A
:101C60007183608382E19CEAA0E2BCE38283938378
:101C7000A483B58381E086838EE9878382E08087B1
:101C800088E081870895CF93DF93EC0126E040E060
:101C900051EE60E070E0888199810E940412888191
:101CA0009981DC01ED91FC910084F185E02D09958D
:101CB00021E0181619060CF020E0822FDF91CF9159
:101CC00008955F926F927F928F929F92AF92BF9290
:101CD000CF92DF92EF92FF920F931F93CF93DF93F8
:101CE000CDB7DEB7C957D3400FB6F894DEBF0FBEED
:101CF000CDBF6C0160ED77E080E090E00E940715B9
:101D00006AE071E083E691E10E94C413D60119965E
:101D10008C91199718969C91189717964C91179734
:101D200016966C91C05DDE4F188219821A821B8252
:101D3000C053D140CC5CDE4F9883C453D140CB5CC0
:101D4000DE4F8883C553D140CA5CDE4F1882C6532C
:101D5000D14083E0C95CDE4F8883C753D140C85C63
:101D6000DE4F8883C853D140C35DDE4F188219828D
:101D70001A82CD52D14022E3E22E09E029E0CE01C1
:101D80008C5D9E4F0E949D06BE016C5D7E4FCE0114
:101D9000895B9D4F0E94A1087C0168EE73E080E0A2
:101DA00090E00E940715F60180819181DC01ED91A0
:101DB000FC910280F381E02DA701BE01695B7D4F9C
:101DC000099560E271E083E691E10E94C41332E07C
:101DD000A32EB12C88248394912C61E070E080E0E4
:101DE00090E00E94071566246394712CEE24EA9417
:101DF000FE2CF60180819181DC01ED91FC91008443
:101E0000F185E02D09951816190604F16A946728E2
:101E100021F363EB71E083E691E10E94C413C7589C
:101E2000DC4F0FB6F894DEBF0FBECDBFDF91CF9170
:101E30001F910F91FF90EF90DF90CF90BF90AF90E8
:101E40009F908F907F906F905F900895F6018081B2
:101E50009181DC01ED91FC910284F385E02D0995DF
:101E6000582E8E01015A1C4F9E012F5F3F4F482F65
:101E70006AEF70E18EE69CE00E9429099EEF980FC0
:101E80009230D0F48091FC108F5F8093FC10109200
:101E9000FA10BDEF5B1629F09092FE108092FD10B3
:101EA000A8CFB092FE10A092FD101092710CF0928B
:101EB0006F0CE0926E0C9DCF882309F49ACF66E7F1
:101EC00071E083E691E10E94C4138A859B85AC850D
:101ED000892B8A2B09F08DCF4C814A3008F049E0DC
:101EE00050E0BE01635F7F4FCE018F589C4F0E9430
:101EF00009198885F6018287898583876CE871E0F6
:101F000083E691E10E94C413712C612C72CFCF92B1
:101F1000DF92EF920F93CF93DF93CDB7DEB7CB5322
:101F2000D2400FB6F894DEBF0FBECDBF6C016AE0A1
:101F300071E083E691E10E94C413F60181859085EA
:101F4000478166811D861E861F86188A998B8A8B1B
:101F50001B8A83E08C8B8D8B1A861B861C8682E302
:101F6000E82E09E029E0CE0101960E949D06BE01FF
:101F70006F5F7F4FCE018C5D9E4F0E94A108F601DE
:101F8000A081B181ED91FC9111970280F381E02D48
:101F9000AC01BE016C5D7E4FCD010995C55CDD4F86
:101FA0000FB6F894DEBF0FBECDBFDF91CF910F917A
:101FB000EF90DF90CF900895AF92BF92CF92DF92D3
:101FC000EF92FF920F931F93CF93DF93CDB7DEB7BE
:101FD000CB53D2400FB6F894DEBF0FBECDBF6C011D
:101FE0005B01F42E122F67EE71E083E691E10E940F
:101FF000C413D60117964C91179716966C91212F02
:1020000030E0CC5DDE4F39832883C452D140CA5DB5
:10201000DE4F0883C652D140C95DDE4FE882C75209
:10202000D140C85DDE4FF882C852D14080E8A1148B
:10203000B10409F04AC0E4E2F1E0EC0FFD1F35966F
:10204000DF011D928A95E9F785E8FE01EC5DFE4F00
:10205000DE011D9601900D928A95E1F781E891E0ED
:10206000A0E08A879B87AC8783E9E82E05E825E80E
:10207000CE0101960E949D06BE016F5F7F4FCE018B
:102080008C5D9E4F0E94A108F601A081B181ED9167
:10209000FC9111970280F381E02DAC01BE016C5DD3
:1020A0007E4FCD010995C55CDD4F0FB6F894DEBFBC
:1020B0000FBECDBFDF91CF911F910F91FF90EF9099
:1020C000DF90CF90BF90AF900895F501A4E2B1E00A
:1020D000AC0FBD1F159601900D928A95E1F7B4CF14
:1020E00026E040E051EE60E070E083E691E10E947E
:1020F000041281E591E10E94430E81110DC068E157
:102100007CE083E691E10E94C4136AEF70E080E016
:1021100090E00E940715EDCF81E591E10E94610EEC
:1021200060ED77E080E090E00C940715EF920F935C
:102130001F930E94D61460934D1170934E1180939B
:102140004F11909350110091491110914A11209113
:102150004B1130914C110C501E4F2F4F3F4F061713
:1021600017072807390760F46093491170934A11E3
:1021700080934B1190934C1181E591E10E94870F60
:1021800040914D1150914E1160914F11709150112D
:102190008091451190914611A0914711B09148113D
:1021A00088519C4FAF4FBF4F84179507A607B707BD
:1021B00058F5409345115093461160934711709321
:1021C00048116FEF70E080E090E00E94DB136093B5
:1021D00042116FEF70E080E090E00E94DB136093AB
:1021E0004311E12C00E020E042E062E471E181E58E
:1021F00091E10E94DC0F6091441181E068276093B7
:1022000044118DE00E94AA156AE070E080E090E041
:102210001F910F91EF900C94071567E27CE08DE51C
:1022200091E10E94671460E072E181E591E10C9414
:102230002F0E8DE591E10C94F513FC01918D228D0B
:10224000892F90E0805C9F4F821B91098F739927A3
:102250000895FC01918D828D981731F0828DE80FE1
:10226000F11D858D90E008958FEF9FEF0895FC019B
:10227000918D828D981761F0A28DAE0FBF2FB11D89
:102280005D968C91928D9F5F9F73928F90E00895E1
:102290008FEF9FEF0895FC01538D448D252F30E083
:1022A000842F90E0821B930B541710F0CF96089563
:1022B0000197089586EB92E1892B49F080E090E048
:1022C000892B29F00E94B61281110E9400008DE432
:1022D00093E1892B49F080E090E0892B29F00E945E
:1022E0004D1381110C9400000895FC01A48DA80FDA
:1022F000B92FB11DA35ABF4F2C91848D90E0019648
:102300008F739927848FA689B7892C93A089B18967
:102310008C91837080648C93938D848D981306C008
:102320000288F389E02D80818F7D80830895CF938B
:10233000DF93EC01888D8823B9F0AA89BB89E889ED
:10234000F9898C9185FD03C0808186FD0DC00FB693
:1023500007FCF7CF8C9185FFF2CF808185FFEDCF11
:10236000CE010E947511E9CFDF91CF910895EF92D0
:10237000FF920F931F93CF93DF93EC0181E0888F3F
:102380009B8D8C8D98131AC0E889F989808185FF0F
:1023900015C09FB7F894EE89FF896083E889F989B1
:1023A00080818370806480839FBF81E090E0DF91B3
:1023B000CF911F910F91FF90EF900895F62E0B8D06
:1023C00010E00F5F1F4F0F731127E02E8C8D8E11C1
:1023D0000CC00FB607FCFACFE889F989808185FF28
:1023E000F5CFCE010E947511F1CFEB8DEC0FFD2FD3
:1023F000F11DE35AFF4FF0829FB7F8940B8FEA89E3
:10240000FB8980818062CFCFCF92DF92EF92FF92E3
:102410001F93CF93DF93EC016A017B01122F60E8D9
:1024200074E88EE190E0A70196010E94D915215031
:102430003109410951095695479537952795E889FE
:10244000F98982E08083211580E1380798F0E889D6
:10245000F989108260E472E48FE090E0A7019601B0
:102460000E94D915215031094109510956954795C6
:1024700037952795EC85FD853083EE85FF85208394
:10248000188EEC89FD891083EA89FB89808188692F
:102490008083EA89FB8980818F7D8083DF91CF9162
:1024A0001F91FF90EF90DF90CF9008951F920F92B1
:1024B0000FB60F9211240BB60F922F938F939F9309
:1024C000EF93FF93E0917311F09174118081E0918B
:1024D0007911F0917A1182FD1DC0908180917C115B
:1024E0008F5F8F7320917D11821741F0E0917C11F5
:1024F000F0E0ED59FE4E958F80937C11FF91EF91A6
:102500009F918F912F910F900BBE0F900FBE0F9048
:102510001F9018958081F2CF1F920F920FB60F92E5
:1025200011240BB60F922F933F934F935F936F93AA
:102530007F938F939F93AF93BF93EF93FF9383E624
:1025400091E10E947511FF91EF91BF91AF919F9121
:102550008F917F916F915F914F913F912F910F904C
:102560000BBE0F900FBE0F901F90189583E691E160
:102570000E941D1121E0892B09F420E0822F08958B
:10258000E3E6F1E11382128288EE93E0A0E0B0E08E
:1025900084839583A683B7838CE59CE091838083B5
:1025A00085EC90E09587848784EC90E09787868718
:1025B00080EC90E0918B808B81EC90E0938B828B10
:1025C00082EC90E0958B848B86EC90E0978B868BE9
:1025D000118E128E138E148E08951F920F920FB6C5
:1025E0000F9211240BB60F922F938F939F93EF931B
:1025F000FF93E0911012F09111128081E091161278
:10260000F091171282FD1DC09081809119128F5F89
:102610008F7320911A12821741F0E0911912F0E0A5
:10262000E050FE4E958F80931912FF91EF919F918C
:102630008F912F910F900BBE0F900FBE0F901F9098
:1026400018958081F2CF1F920F920FB60F9211242E
:102650000BB60F922F933F934F935F936F937F939C
:102660008F939F93AF93BF93EF93FF9380E092E19B
:102670000E947511FF91EF91BF91AF919F918F9142
:102680007F916F915F914F913F912F910F900BBE72
:102690000F900FBE0F901F90189580E092E10E945E
:1026A0001D1121E0892B09F420E0822F0895E0E03C
:1026B000F2E11382128288EE93E0A0E0B0E084831E
:1026C0009583A683B7838CE59CE0918380838DEC12
:1026D00090E0958784878CEC90E09787868788ECDC
:1026E00090E0918B808B89EC90E0938B828B8AECCD
:1026F00090E0958B848B8EEC90E0978B868B118E7F
:10270000128E138E148E0895AF92BF92CF92DF92E5
:10271000EF92FF920F931F93CF93DF936C017B0196
:102720008B01040F151FEB015E01AE18BF08C01727
:10273000D10759F06991D601ED91FC910190F0819A
:10274000E02DC6010995892B79F7C501DF91CF915D
:102750001F910F91FF90EF90DF90CF90BF90AF90BF
:102760000895FB0101900020E9F73197AF01461B66
:10277000570BDC01ED91FC910280F381E02D09946F
:102780006AE67CE00C94B1130F931F93CF93DF9311
:102790008C01D0E0C0E06115710519F00E94B11301
:1027A000EC01C8010E94C0138C0F9D1FDF91CF91D7
:1027B0001F910F910895CF92DF92EF92FF926B01DC
:1027C0007C01C114D104E104F10441F00E94C3175B
:1027D000A70196010E94FB156B017C01C701B601A0
:1027E000FF90EF90DF90CF900895FC018081918160
:1027F000009711F00C94EE160895CF93DF93EC013F
:1028000088819981009711F00E94EE161982188232
:102810001D821C821B821A82DF91CF9108950F9333
:102820001F93CF93DF93EC018B016F5F7F4F888104
:1028300099810E941B18009751F0998388831B830C
:102840000A8381E0DF91CF911F910F91089580E07D
:10285000F9CFCF93DF93EC0188819981892B49F0DF
:102860008A819B818617970720F081E0DF91CF91C5
:102870000895CE010E940F148823C1F38C819D819D
:10288000892B99F7E881F9811082EFCFEF92FF92BF
:102890000F931F93CF93DF93EC017B018A01BA0161
:1028A0000E94291481110BC0CE010E94FD13CE019C
:1028B000DF91CF911F910F91FF90EF9008951D83AD
:1028C0000C83B701888199810E941919F0CFFC010E
:1028D0001182108213821282158214826115710591
:1028E00051F0FB0101900020E9F73197AF01461B41
:1028F000570B0C944614089508950E9440150E94A9
:102900007C140E947010CAE5D1E10E9496102097B5
:10291000E1F30E945A11F9CF1F920F920FB60F9256
:1029200011242F933F938F939F93AF93BF938091E5
:10293000A2129091A312A091A412B091A51230916D
:10294000A11226E0230F2D3768F129E8230F039603
:10295000A11DB11D2093A1128093A2129093A312E6
:10296000A093A412B093A51280919D1290919E12F3
:10297000A0919F12B091A0120196A11DB11D80934C
:102980009D1290939E12A0939F12B093A012BF919C
:10299000AF919F918F913F912F910F900FBE0F900C
:1029A0001F9018950296A11DB11DD4CF2FB7F89492
:1029B0006091A2127091A3128091A4129091A5121D
:1029C0002FBF08953FB7F89480919D1290919E1269
:1029D000A0919F12B091A01226B5A89B05C02F3FD1
:1029E00019F00196A11DB11D3FBFBA2FA92F982F35
:1029F0008827BC01CD01620F711D811D911D43E02F
:102A0000660F771F881F991F4A95D1F708958F92F7
:102A10009F92AF92BF92CF92DF92EF92FF926B01A3
:102A20007C010E94E2144B015C01C114D104E10459
:102A3000F104E9F00E94D8150E94E214681979099E
:102A40008A099B09683E73408105910570F321E076
:102A5000C21AD108E108F10888EE880E83E0981EBA
:102A6000A11CB11CC114D104E104F10429F7FF90A9
:102A7000EF90DF90CF90BF90AF909F908F90089590
:102A8000789484B5836084BD85B5836085BDEEE6AA
:102A9000F0E0808181608083E1E8F0E082E0808383
:102AA000808181608083E0E8F0E0808181608083C4
:102AB000E1EBF0E0808184608083E0EBF0E08081F6
:102AC00081608083E1E9F0E0808183608083E0E9D8
:102AD000F0E080818160808386E880937A001092A4
:102AE000C100089582508A3088F5E82FF0E0E5585B
:102AF000FA4E0C941A16A315A71585158B15A61555
:102B0000A6158F15951599159F15809180008F77C3
:102B1000809380000895809180008F7DF9CF80910F
:102B2000B0008F778093B00008958091B0008F7DC2
:102B3000F9CF809190008F778093900008958091D5
:102B400090008F7DF9CF84B58F7784BD089584B5CB
:102B50008F7DFBCF1F93CF93DF93282F30E0F901B8
:102B6000E457FF4F8491F901E455FF4FD491F901E7
:102B7000E453FF4FC491CC23A9F0162F81110E947A
:102B80007215EC2FF0E0EE0FFF1FE451FF4FA591FF
:102B9000B4918FB7F894EC91111108C0D095DE2351
:102BA000DC938FBFDF91CF911F910895DE2BF8CF7B
:102BB0000895A1E21A2EAA1BBB1BFD010DC0AA1F7E
:102BC000BB1FEE1FFF1FA217B307E407F50720F096
:102BD000A21BB30BE40BF50B661F771F881F991F11
:102BE0001A9469F760957095809590959B01AC015A
:102BF000BD01CF010895052E97FB1EF400940E949D
:102C0000121657FD07D00E94D91507FC03D04EF4C9
:102C10000C94121650954095309521953F4F4F4F8B
:102C20005F4F089590958095709561957F4F8F4F78
:102C30009F4F0895EE0FFF1F0024001C0BBE07904E
:102C4000F691E02D09940E944316A59F900DB49F24
:102C5000900DA49F800D911D112408950024A7FDBF
:102C600000942A0F301D401D501D601D701D801DD9
:102C7000901D08952A153B054C055D056E057F05E1
:102C8000800791070895A29FB001B39FC001A39F41
:102C9000700D811D1124911DB29F700D811D112495
:102CA000911D08950F931F93CF93DF938230910569
:102CB00010F482E090E0E091A812F091A91230E0C7
:102CC00020E0B0E0A0E0309799F42115310509F437
:102CD0004AC0281B390B24303105D8F58A819B81E5
:102CE0006115710589F1FB0193838283FE0111C097
:102CF000408151810281138148175907E0F048173C
:102D0000590799F4109761F012960C931297139645
:102D10001C933296CF01DF91CF911F910F910895AF
:102D20000093A8121093A912F4CF2115310551F088
:102D30004217530738F0A901DB019A01BD01DF01F9
:102D4000F801C1CFEF01F9CF9093A9128093A81297
:102D5000CDCFFE01E20FF31F8193919322503109F1
:102D600039832883D7CF2091A6123091A712232B25
:102D700041F420910201309103013093A712209376
:102D8000A61220910001309101012115310541F475
:102D90002DB73EB74091040150910501241B350B1E
:102DA000E091A612F091A712E217F307A0F42E1BF0
:102DB0003F0B2817390778F0AC014E5F5F4F24179F
:102DC000350748F04E0F5F1F5093A7124093A6128D
:102DD000819391939FCFF0E0E0E09CCFCF93DF937E
:102DE0000097E9F0FC01329713821282A091A81299
:102DF000B091A912ED0130E020E01097A1F42081FC
:102E00003181820F931F2091A6123091A7122817AB
:102E1000390709F061C0F093A712E093A612DF9181
:102E2000CF910895EA01CE17DF07E8F54A815B816B
:102E30009E0141155105B1F7E901FB83EA834991F0
:102E40005991C40FD51FEC17FD0761F48081918162
:102E50000296840F951FE90199838883828193816B
:102E60009B838A83F0E0E0E012968D919C9113970A
:102E70000097B9F52D913C911197CD010296820FE3
:102E8000931F2091A6123091A7122817390739F6FF
:102E9000309751F51092A9121092A812B093A71270
:102EA000A093A612BCCFD383C28340815181840FEB
:102EB000951FC817D90761F44E5F5F4F88819981CC
:102EC000480F591F518340838A819B81938382835A
:102ED0002115310509F0B0CFF093A912E093A812A3
:102EE0009ECFFD01DC01C0CF13821282D7CF8F921B
:102EF0009F92AF92BF92CF92DF92EF92FF92CF93C9
:102F0000DF93EC01688179818A819B81611571056C
:102F10008105910521F464E279ED8BE597E02DE1DF
:102F200033EF41E050E00E94FB1549015A019B013B
:102F3000AC01A7EAB1E40E9423166B017C01ACEE60
:102F4000B4EFA50194010E942319C60ED71EE81EF6
:102F5000F91EF7FE06C081E0C81AD108E10880E832
:102F6000F80AC882D982EA82FB82C701B6019F773C
:102F7000DF91CF91FF90EF90DF90CF90BF90AF9017
:102F80009F908F9008958F929F92AF92BF92CF9211
:102F9000DF92EF92FF92609106017091070180919C
:102FA000080190910901611571058105910521F4D0
:102FB00064E279ED8BE597E02DE133EF41E050E0FD
:102FC0000E94FB1549015A019B01AC01A7EAB1E43B
:102FD0000E9423166B017C01ACEEB4EFA5019401B5
:102FE0000E942319C60ED71EE81EF91EF7FE06C062
:102FF00081E0C81AD108E10880E8F80AC092060109
:10300000D0920701E0920801F0920901C701B601D0
:103010009F77FF90EF90DF90CF90BF90AF909F9001
:103020008F900895609306017093070180930801C3
:103030009093090108954F925F926F927F928F92C1
:103040009F92AF92BF92CF92DF92EF92FF920F9337
:103050001F93CF93DF938C01009799F4CB01DF91FD
:10306000CF911F910F91FF90EF90DF90CF90BF9085
:10307000AF909F908F907F906F905F904F900C9447
:103080005216FC01E60FF71F9C0122503109E2178E
:10309000F30708F4AEC0D901CD91DC911197C617A2
:1030A000D70720F1C530D10578F0CE0104978617F7
:1030B000970750F0C61BD70B2297C193D1936D93FE
:1030C0007C93CF010E94EE16C801DF91CF911F9132
:1030D0000F91FF90EF90DF90CF90BF90AF909F90B7
:1030E0008F907F906F905F904F9008955B01AC1A26
:1030F000BD0A4C018C0E9D1EA091A812B091A91280
:10310000512C412CF12CE12C109731F58091A61215
:103110009091A7128815990509F05CC046165706CC
:1031200008F058C08091000190910101009741F48E
:103130008DB79EB74091040150910501841B950BFA
:10314000E817F90708F055C0F093A712E093A6120C
:10315000F90171836083B8CF8D919C91119712967C
:103160006C90129713967C901397A815B90559F592
:103170006C0142E0C40ED11CCA14DB0420F1AC0186
:103180004A195B09DA011296159780F06282738200
:1031900051834083D9016D937C93E114F10471F064
:1031A000D7011396FC93EE9312978ECF22968C0F35
:1031B0009D1FF90191838083F301EFCFF093A91252
:1031C000E093A81281CF4816590608F42C017D011E
:1031D000D3019ACFCB010E9452167C01009749F08F
:1031E000AE01B8010E940919C8010E94EE168701BC
:1031F0006BCF10E000E068CFFB01DC0104C08D91D3
:103200000190801921F441505040C8F7881B990B58
:103210000895FB01DC0102C001900D924150504025
:10322000D8F70895DC0101C06D9341505040E0F79C
:103230000895FB01DC0101900D920020E1F7089553
:10324000B7FF0C9423160E942316821B930B08953C
:1032500010E0CEE7D0E004C0FE010E941A162196CD
:10326000CF37D107C9F7F894FFCF0000AA1280002A
:103270000100000053656E64696E672048656172E5
:103280007462656174732E2E2E00486561727462DB
:10329000656174732073656E7421204E6F7720779B
:1032A000696C6C20636865636B20666F7220726561
:1032B00063696576656420686561727462656174CE
:1032C0007320746F207265636F7264207379736901
:1032D0006420616E6420636F6D7069642E2E2E0011
:1032E0004D6573736167652050617273696E672005
:1032F000446F6E652100737973696420616E642088
:10330000636F6D706964207375636365737366754D
:103310006C6C79207265636F7264656400526571CC
:10332000756573742073656E7421204E6F772079F4
:103330006F752061726520726561647920746F20F9
:10334000726563696576652064617461732E2E2EE3
:103350000053656E64696E672054756E6E656C20EF
:10336000646174612E2E2E000000000032090900F5
:103370000000010000007C1F2B0000000200000084
:10338000890C0C00000004000000ED0E0E030C0D73
:1033900005000000D91C1C010000060000006803A5
:1033A0000300000007000000772020000000080054
:1033B00000007524240000000B00000059060601DF
:1033C000040014000000D6141403020315000000CA
:1033D0009F020203000116000000DC191900000022
:1033E00017000000A8171703040518000000181E96
:1033F00034000000190000001765650000001A0085
:103400000000AA16180000001B000000901A1D0002
:1034100000001C0000004310100000001D00000010
:10342000730E100000001E000000271C1C0000008E
:103430001F000000F6203000000020000000B91C32
:103440001C00000021000000681C1C00000022007D
:103450000000ED161600000023000000F416160010
:10346000000024000000DE152500000025000000FB
:10347000D406070304052600000009060703040517
:1034800027000000FE252603202128000000E60476
:1034900005030203290000001C04040302032A00A0
:1034A00000001C02120000002B0000008402030335
:1034B00000012C000000DD04090302032D000000C0
:1034C000E802030300012E0000000B0202000000CE
:1034D0002F00000099030803000130000000290DAF
:1034E00015010C0031000000270C14000000320010
:1034F00000004E252503121333000000C404050309
:103500000203360000000F1B1B03181937000000D0
:103510000319190000003D000000A7484800000002
:103520003E000000B71A1A0000003F00000077B507
:10353000B500000040000000BFE1E10000004100D4
:103540000000762A2A0000004200000094060603CC
:1035500002034300000015040400000045000000C1
:10356000F30B1E010A00460000007C122603101116
:10357000490000002625260320214A0000001414DB
:10358000140000004B0000009E2323031E1F4C006C
:103590000000982121031E1F4D0000008F030A0325
:1035A0000809500000000E0404030203510000004B
:1035B0006A1616000000520000003127330324254C
:1035C00053000000162525000000540000008F3530
:1035D00035033233550000008C33330000005600B1
:1035E00000000535350332335700000096333300B1
:1035F000000059000000E71C1C0000005A000000F9
:10360000B738380000005B0000003F2A2A000000A5
:103610005C0000003621210000005D0000002F51F9
:103620005100000064000000AF1A22000000650095
:103630000000662075000000660000009E207500F6
:10364000000067000000D01439000000680000008E
:10365000382074000000690000005D3E3F0000005B
:103660006A0000008A2C2C0000006B0000006C40F7
:10367000410000006C00000020545C0000006D0060
:103680000000B909090000006E00000054FEFE03AE
:1036900001026F00000022101203101170000000E0
:1036A000AE0C0C000000710000007C24270000001C
:1036B00072000000ED2C2C0000007300000004409C
:1036C00040000000740000004C1618000000750057
:1036D000000080060603040576000000380E0E0088
:1036E000000077000000740C0C030A0B7800000047
:1036F00086616100000079000000ED020203000114
:103700007A000000CB02020300017B000000FA7186
:10371000710300017C0000005723390000007D0088
:103720000000CB06060000007E000000DC4F5103C5
:103730004F507F000000192323000000800000008C
:10374000E22323000000810000002E161800000074
:10375000820000001D0D0D00000083000000DFFF4F
:10376000FF00000084000000550E270000008500C7
:10377000000006121200000086000000E52B2B005E
:10378000000087000000CB0808000000880000004F
:1037900001161600000089000000C30E1000000092
:1037A0008A0000006D24780000008B000000A82B28
:1037B0002B03292A8C000000B529290000008D0068
:1037C00000002F20200000008E00000048F3F300CE
:1037D00000008F000000830E100000009000000029
:1037E0007F5D5D00000092000000676464000000DF
:1037F000930000009A243600000094000000B23CC0
:103800004E00000095000000C81E3C000000A20011
:103810000000BD0809000000C0000000242C360094
:103820000000E1000000D04149000000E600000077
:10383000A32A2A000000E7000000692828000000F1
:10384000E8000000973F41000000E900000023B6B7
:10385000B6000000EA000000962828000000EB00F7
:103860000000B32A2A000000F10000005A202000C6
:103870000000F200000068343C000000F30000008B
:1038800055353D013400F40000005F0606000000DD
:10389000F5000000820202000000F6000000B826D9
:1038A00026000000F7000000511313000000F8008C
:1038B000000008FEFE030304F9000000CC242400ED
:1038C0000000FA000000311E1E000000FB00000096
:1038D000AA1212000000FC0000002C1212000000CE
:1038E000FD000000533336000000FE0000002E09EA
:1038F0000900000000010000472A2A03080901010D
:10390000000083090900000002010000BB20E80359
:103910000001030100005CEBED0000000401000069
:1039200092050E00000005010000B31B3D000000E1
:10393000060100000C12170000000701000085FFBF
:10394000FF00000008010000311C200000000901F8
:1039500000001A10140000000A010000C1FFFF035C
:1039600002030B01000023FFFF0302030C01000010
:103970000E04040302030D0100006DD5D700000002
:103980000E0100003B13140000000F01000016346C
:1039900035000000130100007E1F2000000014010C
:1039A0000000123132000000150100003E1E1E0012
:1039B000000018010000462121000000190100004C
:1039C000300D0D0000001A0100007B23230320218D
:1039D0001B0100004A90910000001C0100006320C0
:1039E00020031E1F1D0100008928310326271E0108
:1039F0000000D235390332331F01000001171703CD
:103A000014152001000014171703141522010000DB
:103A1000FB2E2E000000230100000A3939000000AF
:103A200027010000EA0C0C0000002B0100001360CD
:103A3000620000002C010000D916160000002D01C4
:103A40000000F33A3A000000360100001C1111009A
:103A50000000370100005F747400000040010000A6
:103A6000F314140302034101000058020203000191
:103A700042010000F39595000000430100004E93C1
:103A800093030001440100008492920000004A0167
:103A90000000179EA70000004B0100005BE6E90054
:103AA00000004C010000ECEFEF0000004D010000B1
:103AB000E76D6D0000004E010000480A0A0000009A
:103AC0004F010000E1181800000050010000F554FB
:103AD0005400000053010000C70505000000540118
:103AE000000063464600000059010000D11515038F
:103AF00002035E010000E814FC0000006801000001
:103B00000B1919000000690100005D21210000006F
:103B1000720100004B576D000000730100000A1A8B
:103B20001A000000740100001A8C8C00000075015E
:103B30000000752A2A00000077010000FB8C8C0031
:103B4000000078010000C708080000007C010000A8
:103B5000E81414000000810100009385850302032E
:103B60008201000084101003040583010000044852
:103B7000480304058401000008252503202186014F
:103B800000009CEEF00000008B01000000D4D40087
:103B900000008C01000032A0A00000008D01000098
:103BA000B66C6C000000900100006EFEFE03040580
:103BB00091010000B706060304059A010000A03534
:103BC000350000009B0100006A03030000009C0117
:103BD00000002106060304059D0100004D070703B0
:103BE0000405B3010000862E2E000000B401000081
:103BF000C10909000000B50100001E01010000001C
:103C0000B80100004223230000002823000071892E
:103C1000890000002D23000075222200000064327C
:103C20000000722C2C03000165320000FE3B3B03B8
:103C30001E1F663200008C35350304056732000014
:103C4000F92E2E030001683200004D3636031C1D8C
:103C500069320000312B2B030001733200005EF942
:103C6000F9030001763200008B3333000000773215
:103C7000000007121203101178320000140505002D
:103C80000000982F8A4291443771CFFBC0B5A5DB65
:103C9000B5E95BC25639F111F159A4823F92D55E64
:103CA0001CAB98AA07D8015B8312BE853124C37D63
:103CB0000C55745DBE72FEB1DE80A706DC9B74F10C
:103CC0009BC1C1699BE48647BEEFC69DC10FCCA1D5
:103CD0000C246F2CE92DAA84744ADCA9B05CDA8824
:103CE000F97652513E986DC631A8C82703B0C77FF8
:103CF00059BFF30BE0C64791A7D55163CA066729A0
:103D00002914850AB72738211B2EFC6D2C4D130D65
:103D1000385354730A65BB0A6A762EC9C281852C52
:103D20007292A1E8BFA24B661AA8708B4BC2A35136
:103D30006CC719E892D1240699D685350EF470A087
:103D40006A1016C1A419086C371E4C774827B5BCF9
:103D5000B034B30C1C394AAAD84E4FCA9C5BF36FDF
:103D60002E68EE828F746F63A5781478C884080279
:103D7000C78CFAFFBE90EB6C50A4F7A3F9BEF278A3
:103D800071C64E6F7420436F6E6E656374656421F7
:103D90000061636638633964346439326563346161
:103DA0006536373133613230383932393961373736
:103DB0003833653361316235372C43494275696C5C
:103DC000640000000000B71184134B1197111D11FE
:083DD000371129110D0A000052
:020000040001F9
:10FE0000112424B614BE80E088D021FE2FC18EE0DC
:10FE100084D0E0ECF0E0AFE7BFEF4899FECF9096DA
:10FE2000489BFDCFB4831197F1F7B2E0B083B8E1FE
:10FE3000B1835FD0C82F8235D1F475D0E0E0FDEFFB
:10FE400091E09BBFA8959F017E2F67916F3F11F4B2
:10FE5000E713FBCFF9019BBF19F083E0A2D0A0D03C
:10FE6000F15091099BBF70F78DE83CD0E2CF8D7FB8
:10FE7000D9F44CD0D82FA0E0B1E03BD08D93DA1369
:10FE8000FCCFA0E0B1E04FD0C1110CC0F2BDE1BD8C
:10FE90008D9180BDFA9AF99A3196F999FECFD15099
:10FEA000A9F7E2CF4BD0E0CFC33041F42FD0C82F19
:10FEB0003AD0879117D0C150E1F7D6CFC13061F465
:10FEC00025D0C82F30D0F2BDE1BDF89A80B50AD058
:10FED0003196C150C1F7C8CFC13511F488E01DD0AB
:10FEE00022D0C2CF9091C00095FFFCCF8093C60076
:10FEF0000895289A209A8091C00087FFFCCF84FD46
:10FF000015C0A8958091C60028980895F2DFE82FC3
:10FF1000F0DFF82FEEDF8BBFECCF98E1909360001D
:10FF2000809360000895E5DF803219F088E0F5DF06
:10FF3000FFCF80EAD7CF6BBFFA01DC01E0707A2FE8
:10FF40006BB7FE3F81E0680788F5603039F4309682
:10FF500029F48FEF8D938EEC8C93119790E047915D
:10FF60005D91451391605F3F09F092604523451311
:10FF70009460A713F4CFF1506BBFBA9590FF16C0F1
:10FF800092FF04C083E00DD091FF0AC081E00D9084
:10FF90001D9007D03296A713FACFF15085E001D01B
:10FFA00081E187BFE89517B610FCFDCF11240895B5
:06FFFA00021B9CCFE74052
:00000001FF
